:020000040800F2
:1000000000800120E56200083563000835630008C0
:100010003563000835630008356300080000000000
:100020000000000000000000000000003563000830
:10003000356300080000000035630008B91B0008A4
:100040003563000835630008356300083563000830
:100050003563000835630008356300083563000820
:100060003563000835630008356300083563000810
:100070003563000835630008356300083563000800
:100080003563000835630008356300080000000090
:1000900000000000000000000000000035630008C0
:1000A00035630008356300083563000835630008D0
:1000B00035630008C51B0008356300083563000878
:1000C00035630008356300083563000835630008B0
:1000D00035630008D91B0008ED1B00080000000074
:1000E0003563000835630008356300080000000030
:1000F0000000000000000000000000003563000860
:10010000000000003563000835630008356300080F
:1001100000000000000000000000000000000000DF
:10012000356300083563000835630008356300084F
:10013000356300080000000000000000000000001F
:10014000000000000000000000000000356300080F
:10015000356300083563000835630008356300081F
:10016000356300083563000800000000000000004F
:10017000000000000000000000000000000000007F
:1001800000000000356300080000000000000000CF
:0401900035630008CB
:10019400044B05481B1A062B02D9044B03B118471C
:1001A400704700BFF7070020F4070020000000009C
:1001B40005490648091A891001EBD171491002D08A
:1001C400034B03B118477047F4070020F4070020DD
:1001D4000000000010B5064C237843B9FFF7D8FFA0
:1001E400044B13B10448AFF300800123237010BD06
:1001F400F407002000000000186C000808B5084B44
:100204001BB108480849AFF300800848036813B9D4
:10021400BDE80840CCE7064B002BF9D09847F7E738
:1002240000000000186C0008F8070020F407002004
:1002340000000000C3681A78FF2A03D10133C360A9
:10024400014B0360704700BF51020008C3681A786D
:10025400FF2A04D10133C360034B03607047034B8F
:1002640003608368C36070477502000839020008A0
:10027400C3681A78FD2A04D10133C360034B0360B9
:100284007047034B03608368C3607047990200089A
:1002940039020008C3681A78FD2A04D00133C36008
:1002A400034B03607047034B03608368C36070476C
:1002B400BD02000839020008C3681A78FF2A06D074
:1002C400FD2A04D00133C360034B03607047034B22
:1002D40003608368C3607047E502000839020008C0
:1002E400C36813F8012B8280C360014B036070471D
:1002F400F9020008C2681178838843EA01238380E5
:10030400032B07D90733202B04DC0132C260044BD2
:1003140003607047034B03608368C360704700BF8A
:100324002D03000839020008C3681A78552A07D13A
:100334008288013A82800133C360044B03607047B2
:10034400034B03608368C360704700BF5903000810
:1003540039020008C3680133C3608388013B9BB240
:1003640083800BB901230374704700BF70B5ADF5EA
:10037400007D04460E46154668460B494FF400724C
:1003840005F0FEFF002309E0F25C82EA14223DF846
:10039400122082EA0424A4B201339BB2AB42F3D309
:1003A40020460DF5007D70BD306C0008F8B505469B
:1003B4000C468B1813F8017C023A8E188B5C43EAC6
:1003C4000727002092B2FFF7D1FFB84205D04FF4BF
:1003D4008072194B1A800120F8BD23792B70237A7F
:1003E4006B70E71D04F109020023AB7020E0AB78C9
:1003F400591CA970511C10782B44D870CB1B032BAB
:1004040015D13B78FF2B11D17B78FF2B0ED1BB7814
:10041400FD2B0BD15378FD2B05D04FF48072064B86
:100424001A800120F8BD971C394600E001370A46BE
:10043400B242DCD10020F8BD10080020F8B5202914
:1004440003D90120224B1880F8BD17460D460446F7
:100454008368012098471F4B23610023A38204F182
:100464002406A661E66184F8203063683046294694
:100474003A46984728B140F20112154B1A800120E0
:10048400F8BD204650F8103F9847E369A2699342AB
:1004940003D094F820100129F3D194F8201029B93D
:1004A4004FF480720A4B1A800120F8BD9B1A9BB24C
:1004B400AB4205D04FF48072054B1A800120F8BD81
:1004C40004F1440031462A46FFF770FFF8BD00BF2F
:1004D400100800203902000828B1024643680BB90D
:1004E400837803B919B900202C4B1880704713780E
:1004F400FD2B01D0FF2B03D10020284B188070471F
:1005040070B5937803F10A00254CA4FB034300EB78
:100514005303202B04DD0122204B1A80002070BDE0
:10052400FF230B704B70FD238B700023CB7010786E
:100534000871CD1D01F108045078C87117E0601CE2
:100544005668F65C2670461B032E0ED12E78FF2EBD
:100554000AD16E78FF2E07D1AE78FD2E04D1A01CEF
:10056400FD256570054600E00135013304469078A9
:100574009842E4DC0D46621A92B2531F9BB24B714F
:100584001B0A8B710020FFF7F1FE214601F8020BD4
:10059400000A6070481BC0B270BD00BF1008002084
:1005A400ABAAAAAAF8B50446164600F124050846E3
:1005B4002946FFF791FF78B10746A36800209847C2
:1005C40023682846B9B232469847012806D140F23A
:1005D4000112034B1A80F8BD0120F8BD0020F8BDBC
:1005E40010080020436893F8450010F03F0004D041
:1005F40040F40070014B188001207047100800205F
:1006040020B90022114B1A800120704710B582B026
:10061400044603788DF8003001228DF80120002370
:100624008DF80230019340686946FFF7BBFF01284B
:1006340009D060680E210122FFF700FF012802D0D3
:100644002046FFF7CFFF02B010BD00BF1008002006
:1006540070B582B00E4615461C46019000232380D7
:100664008DF8003012E06846FFF7CAFF48B92388C6
:100674005A1C228006EBC30302AA12E9030083E892
:1006840003009DF8003001338DF800309DF80030F0
:10069400FC2B02D82388AB42E5D32088B0FA80F043
:1006A400400902B070BD00BF1E2904D90022224BAC
:1006B4001A800120704770B584B01546044603784B
:1006C4008DF8083002238DF8093004238DF80A30A0
:1006D4001A4B5B5C8DF8043000238DF80530184A02
:1006E400565C8DF806608DF8073001AB03934068C3
:1006F40002A90122FFF756FF01281BD0606806F10A
:100704000B010122FFF79AFE012813D02046FFF7C0
:1007140069FF01280ED0636893F847302B80022EBE
:1007240007D1626892F8482043EA02232B80002014
:1007340000E0002004B070BD10080020386E0008EE
:10074400586E000808B50A461721FFF7ADFF08BD2B
:1007540008B50A461E21FFF7A7FF08BD10B582B0F1
:10076400436893F84530DC090CD00DF10601FFF71E
:10077400EFFF012807D0BDF8063043F48063034A35
:10078400138000E00024204602B010BD10080020B1
:1007940098B310B504461E2931D81B48405C1B4948
:1007A4000870002048708A70120ACA702178184AAA
:1007B40011709DF808200AB1032200E004221449B4
:1007C4004A7002338B70114B4B6060680122FFF753
:1007D400E9FE012816D060680B210122FFF72EFEE6
:1007E40001280FD02046FFF7B9FF01280AD0204680
:1007F400FFF7F8FE012804D110BD01207047012045
:1008040010BD002010BD00BF386E00081408002081
:100814001808002000B583B000910E210122134670
:10082400FFF7B6FF03B05DF804FB00BF072904D946
:100834000022084B1A800120704700B583B013468C
:100844000A4600930F210123FFF7A2FF03B05DF8CE
:1008540004FB00BF1008002070B50446FFF7D0FE6B
:10086400012822D0636893F845300BB9022600E0D2
:100874000126002515E0204631460122FFF7D6FF68
:100884006368DB684FF4FA70984720460021012220
:10089400FFF7CCFF6368DB684FF4FA7098470135C3
:1008A400EDB22378AB42E6D8002070BDB1F5806F7D
:1008B40004D30022074B1A800120704700B583B08F
:1008C40013460A46009313210223FFF761FF03B086
:1008D4005DF804FB1008002000F00700064AD36806
:1008E40023F4E0631B041B0C43EA002040F0BF60C8
:1008F40040F40030D060704700ED00E030B4164B97
:10090400DC68C4F30224C4F10705042D28BF0425C0
:10091400231D062B01D9033C00E00024012303FA24
:1009240005F5013D2940A140A340013B1A400A437B
:10093400002806DA00F00F001201D2B2074B1A5455
:1009440007E01201D2B200F1604000F5614080F886
:10095400002330BC704700BF00ED00E014ED00E060
:10096400410900F01F0001238340024A42F821306C
:10097400704700BF00E100E00138B0F1807F0AD287
:10098400064B5860F021064A82F823100020986034
:1009940007221A6070470120704700BF10E000E092
:1009A40000ED00E0430900F01F00012282406033A3
:1009B400014941F82320704700E100E0704700BF7F
:1009C40008B5FFF7FBFF08BD0F49D1F8883043F4A1
:1009D4007003C1F888300D4B1A6842F001021A60A6
:1009E400002098601A6822F0847222F480321A601F
:1009F400074A5A601A6822F480221A60D8604FF0BD
:100A040000638B60704700BF00ED00E000380240D7
:100A140010300024F8B504460D46164601F0B6F829
:100A2400074627E023685A6912F4806F11D01A68C8
:100A340042F400721A6023686FF480625A610423DE
:100A440084F83630012084F83500002384F83430EB
:100A5400F8BDB6F1FF3F0DD026B101F097F8C01BE9
:100A6400B04207D9012384F83530002384F83430A8
:100A74000320F8BDC5F30743012B08D123685B6944
:100A840025EA03039BB2003318BF012307E0236860
:100A94009B6925EA03039BB2003318BF0123002B93
:100AA400C0D10020F8BD00BF2DE9F04106460C4638
:100AB40090461D4601F06AF80746B8F1000F12D0BF
:100AC4003DE0B5F1FF3F0ED025B101F05FF8C01B4A
:100AD400A84208D9012386F83530002386F834303B
:100AE4000320BDE8F081C4F30743012B08D1336828
:100AF4005B6924EA03039BB2003318BF012307E0B8
:100B040033689B6924EA03039BB2003318BF0123B3
:100B1400002BD6D10020BDE8F081B5F1FF3F0ED007
:100B240025B101F033F8C01BA84208D9012386F887
:100B34003530002386F834300320BDE8F081C4F357
:100B44000743012B08D133685B6924EA03039BB292
:100B5400B3FA83F35B0907E033689B6924EA030370
:100B64009BB2B3FA83F35B09002BD6D10020BDE816
:100B7400F08100BF70B504460E461546026813683E
:100B840043F4807313604FF0011100222B46FFF7EA
:100B94008BFF68BB2369B3F5804F04D1236806F04B
:100BA400FE061E6116E0226806F44073DB1143F072
:100BB400F0031361204612492A46FFF72BFF30B198
:100BC40094F83630DBB2042B14D1012315E02368EA
:100BD400F6B21E6120460B492A46FFF71BFF034667
:100BE40058B194F83630DBB2042B05D1012304E06C
:100BF400032302E0032300E00323184670BD00BF73
:100C04000800010002000100F8B504460E4615462E
:100C14000268136843F4806313600268136843F442
:100C2400807313604FF0011100222B46FFF73CFF45
:100C340000284ED12369B3F5804F05D1236846F0CF
:100C44000106F6B21E6136E0236806F44077FF0918
:100C540047F0F0021A61204623492A46FFF7DAFEDC
:100C640030B194F83630DBB2042B34D1012339E0AF
:100C74002368F6B21E6120461C492A46FFF7CAFEC5
:100C840030B194F83630DBB2042B26D1012329E0AD
:100C940023685A699A691A6842F480721A60204675
:100CA4004FF0011100222B46FFF7FEFEB8B923686E
:100CB40047F0F1071F6120460C492A46FFF7AAFEB8
:100CC400034678B194F83630DBB2042B09D1012302
:100CD40008E0032306E0032304E0032302E00323E4
:100CE40000E003231846F8BD0800010002000100DB
:100CF40000287DD038B5044690F8353013F0FF0F46
:100D040001D100F099FF022384F83530226813687A
:100D140023F00103136001F089FC364BA3FB00238D
:100D24009B0C2268536021686568334A954201D858
:100D3400013308E04FF4967202FB03F32F4AA2FB3F
:100D440003239B0901330B62216863682A4A934297
:100D540008D85B00B0FBF3F0C0F30B03032B2BD8D4
:100D6400042029E0A5684DB903EB4302B0FBF2F27D
:100D7400C2F30B02B2FA82F252090AE003EB8302D5
:100D840002EB8202B0FBF2F2C2F30B02B2FA82F27D
:100D9400520982B935B903EB4303B0FBF3F040F4D5
:100DA400004009E003EB830303EB8303B0FBF3F0A0
:100DB40040F4404000E00120C8612268E169236AF0
:100DC4000B43136022682169E3680B439360226834
:100DD4006169A3690B43D3602268136843F001037C
:100DE4001360002084F83600012384F8353038BDC0
:100DF4000120704783DE1B43A0860100D34D62109F
:100E040070B504461D4690F83530DBB2012B64D131
:100E14001646002A63D0002D63D003689B6913F043
:100E2400020F60D190F83430012B5ED0012380F89A
:100E34003430122380F83530002380F83630049A99
:100E4400FFF798FE70B194F83630DBB2042B04D16E
:100E5400002384F8343001234EE0002384F8343036
:100E6400032349E023685A699B6919E02046234912
:100E74000022049BFFF718FE002838D12268731C57
:100E840031781161013DADB22268516911F0040F4E
:100E940005D025B1B31C71781161013DADB21E4678
:100EA400002DE3D1204615490022049BFFF7FCFDE9
:100EB400F8B92268136843F400731360204610499C
:100EC4000122049BFFF7F0FD0346A0B9012284F838
:100ED4003520002284F834200EE002230CE00123A4
:100EE4000AE0012308E0022306E0022304E00323CE
:100EF40002E0032300E00323184670BD80000100D4
:100F04000200100070B504461D4690F83530DBB27F
:100F1400012B40F0DE801646002A00F0DC80002D14
:100F240000F0DB8003689B6913F0020F40F0D78068
:100F340090F83430012B00F0D480012380F8343051
:100F4400222380F83530002380F83630049AFFF7E6
:100F54005BFE70B194F83630DBB2042B04D100236D
:100F640084F834300123C9E0002384F834300323A7
:100F7400C4E0012D0CD12268136823F4806313604C
:100F840023685A699A691A6842F400721A608AE0FE
:100F9400022D0DD12268136823F480631360226844
:100FA400136843F40063136023685A699B697AE009
:100FB4002268136843F48063136023685A699B6949
:100FC40071E0032D55D8012D0FD120464C49002244
:100FD400049BFFF769FD002840F0858023681B69A6
:100FE4003370013DADB201365DE0022D18D12046CB
:100FF40044490022049BFFF757FD002875D122685D
:10100400136843F40073136023681A69334603F8C2
:10101400022B226812697270023DADB21E4642E094
:10102400204638490022049BFFF73EFD00285ED18C
:101034002268136823F48063136023681B69337088
:10104400013DADB220462F490022049BFFF72CFD41
:1010540000284ED12268136843F400731360236898
:101064001B69737023681B69B370023DADB203360C
:1010740019E0204622490022049BFFF715FD0028B1
:1010840039D1711C23681B693370013DADB22368EB
:101094005A6912F0040F05D01B697370013DADB29B
:1010A400023600E00E46002D8BD12268136823F42B
:1010B40000631360204614490122049BFFF7F4FCEB
:1010C4000346D0B9012284F83520002284F8342064
:1010D40014E0022312E0012310E001230EE00223B6
:1010E4000CE002230AE0032308E0032306E00323C1
:1010F40004E0032302E0032300E00323184670BD49
:1011040040000100040001000200100008B500F0D6
:1011140043FD08BD38B505460C4613460448294628
:10112400224604F0D3FE003018BF012038BD00BFB2
:101134005409002008B5B0FA80F2520902484FF46D
:10114400007100F0F7FE08BD0008024038B50546FE
:101154000C46134604482946224604F02DFF00306D
:1011640018BF012038BD00BF540900202DE9F0410B
:1011740086B0324B1A6B42F004021A631A6B42F0C7
:1011840080021A631A6B42F001021A631A6B42F06E
:1011940002021A631A6B42F008021A634FF40053F6
:1011A4000193002402940394254E304601A900F0D3
:1011B400CDFD41F6FF530193032502950394304678
:1011C40001A900F0C3FD30464FF40071224600F03F
:1011D400B1FE49F6D313019302950394DFF86C80B2
:1011E400404601A900F0B2FD202301930127029794
:1011F40003940494404601A900F0A8FD4FF2F7437C
:101204000193029503940F4801A900F09FFD4FF448
:1012140000730193029703940494304601A900F0EB
:1012240095FD042301930295039407480DEB0301F4
:1012340000F08CFD06B0BDE8F08100BF003802402C
:101244000008024000040240000C0240000002407A
:1012540030B593B0174A136C43F080531364A2F56E
:10126400E432136823F4404343F40043136002243C
:1012740006940123099306230A930C9400250D95E3
:1012840010230E934FF4A8730F9304231093072392
:10129400119306A800F058FE0523019302940395C8
:1012A4004FF480530493059501A8214601F036F8C4
:1012B40013B030BD0038024008B50948094B03603B
:1012C400094B436000238360C3604FF48042026192
:1012D40043618361C3610362FFF70AFD08BD00BF78
:1012E4003C08002000540040801A060030B587B046
:1012F4000F4C104B23604AF20F4363600025A56036
:1013040040F2E733E3602561204604F0F7FB06A9C9
:101314004FF4805341F8103D204604F03BFA009509
:1013240001952046694604F003FC07B030BD00BFB8
:10133400B00800200004004008B50848084B0360CA
:101344004FF4E133436000238360C36003610C22E4
:1013540042618361C36104F08BFD08BD90090020E4
:101364000044004008B50848084B0360084B43603C
:1013740000238360C36003610C2242618361C36103
:1013840004F076FD08BD00BF5409002000100140A0
:1013940040420F0010B5044C204604F0CBF92368FA
:1013A40000225A6210BD00BF7408002008B503482B
:1013B4004FF4005100F0B6FD08BD00BF0008024024
:1013C40010B500F0E3FB044608E000F0DFFB001B6F
:1013D400B0F57A7F02D9084801F0FAFAFFF7E6FF80
:1013E4000028F2D000F0D2FB001BB0F57A7F94BF46
:1013F4000020012010BD00BF786E000800B585B044
:1014040002466846034904F0CFFF684601F0E0FA5B
:10141400FEE700BF806E00082DE9F04182B0074668
:101424004E4B93E8030000908DF8041000244C4BBD
:101434001C6004E02046002101F082FA0134022CF1
:10144400F8DD002560E04FF4C874464B04FB053416
:10145400522384F860310023C4F86831D4F864015D
:10146400012101F06DFA0646022000F095FB05F11A
:101474002A034FEA430826B920468821002204F0B3
:101484007BF82046C0210DF1060204F0C7F803469C
:10149400A0BBBDF806204EF6AA639A422DD15FFA8E
:1014A40088F82046414601F0C9FA034630BB4FF4A0
:1014B400C8732C4A03FB052383F860812046C021AE
:1014C4000DF1060204F0AAF80346B8B9204601F06B
:1014D4002FFD034690B94FF4C872224902FB05114F
:1014E4000122C1F868211E48016811440160AA4024
:1014F4001D4801680A43026000E001231BB128462D
:10150400002101F01DFA0135022D9CDDA7B920E070
:101514004FF4C872134902FB0312D2F868214AB18E
:101524004FF4C87202FB031292F8611102AA1A4422
:1015340002F8071C013300E00023022BE8DD02A8B7
:10154400202300F8083D01F043FA4FF47A7000F0CC
:1015540023FB034B186802B0BDE8F081886E0008D5
:101564002008002004000020380800202DE9F04F56
:1015740085B006464FF00A0B4FF00E0A48F2E80910
:101584004FF490184FF48047002477E04FF4C87369
:101594003D4A03FB0423D3F86831002B6DD04FF48C
:1015A400C87303FB0425284602F044F828460DF1CD
:1015B4000F010DF10E0201F093FD284602A90DF171
:1015C400070202F047F92846002101F03DFA2846B7
:1015D4000021012201F068FB284601210A4601F09E
:1015E40063FB012E0DD0BEB1022E1FD14FF00A0BAA
:1015F4004FF00E0ADFF894904FF490184FF48047A0
:1016040014E04FF00A0B4FF00E0A44F620694FF431
:1016140000184FF4804709E04FF00E0B4FF0120A08
:1016240048F2E8094FF4701841F699172846012149
:101634003A4601F08FFB28460021424601F08AFB1E
:101644002846494601F028FA28460021524601F06E
:101654002BFA284601215A4601F026FA28460DF1B4
:101664000F010DF10E0201F03BFD4FF4C873064A61
:1016740003FB04230122C3F87C210134022C85DD01
:1016840005B0BDE8F08F00BF04000020400D03004A
:101694000B7E5BB9D0F87831074A1268934207DBB6
:1016A400064A1268934205DA3D2070472D207047A0
:1016B4005F2070477E207047C4040020C8040020C7
:1016C4000B7ECBB9D0F87C3133B10023C0F87C3128
:1016D4000B89C0F87831704730B4D0F87831094AB2
:1016E4001468C4F580750A8902FB05F204FB032320
:1016F4001B12C0F8783103E00123C0F87C31704735
:1017040030BC7047B40400200B68062B12D170B5AE
:101714000D460446084E304604F026F8336860004F
:101724001330D862304604F013F832680023536251
:101734002B6070BD704700BFB008002070B586B044
:101744008DE8030014461E460A9D1168B1F57A7FA0
:1017540008D2684689B20122FFF7A8F82368053346
:10176400236005E03221116068460122FFF79EF8EC
:10177400684621880122FFF799F80A2000F00CFA44
:1017840068460DF11601FEF7DDFF0A2000F004FAA9
:101794002B68082B06DC03A81A49BDF8162004F0B0
:1017A40003FE07E0092B05D103A81749BDF816204D
:1017B40004F0FAFD304603A904F01AFE2B68092B45
:1017C4001DD1304604F02BFE104C82B22046314627
:1017D4004FF47A7304F07AFB06A90A2321F8103D2A
:1017E400204601224FF47A7304F070FB4FF0FF336C
:1017F4002B60002333704FF47A7000F0CDF906B0FB
:1018040070BD00BF906E0008946E0008900900201F
:101814002DE9F04397B0054602A880E80C000024A7
:10182400139412948DF814400A2304930846FFF786
:101834009DFE27462646234611E045FA03F212F0A0
:10184400010F0BD04FF4C872534902FB0312D2F8B4
:1018540068211AB10136012E00D11F460133022B33
:10186400EBDD002E00F09280012E32DD4B4B93E82D
:10187400030014908DF85410002427E04FF4C8732B
:10188400454A03FB0423D3F86831F3B145FA04F362
:1018940013F0010F19D04FF4C87303FB042840461A
:1018A4003F4901F0FDFD10B10220FFF7A7FDDFF86D
:1018B400F09040464946FFF703FF40464946FFF78C
:1018C400E7FE16AB234403F8070C0134022CD5DDE4
:1018D4004DE04FF4C873304C03FB074420463049B5
:1018E40001F0DEFD00283FD1DFF8B48020464146F8
:1018F400FFF7E6FE98F8183033BB139B01331393BC
:10190400A046D4F87831274C84FB0312DB1714A8C3
:101914002549C3EBA20204F047FDD8F8783184FBD3
:101924000320DB17C3EBA00013A9FFF7EDFE12ABF6
:10193400009302AB93E8030004AA05ABFFF7FEFE95
:10194400129B0133129312E0184B93E80300149096
:101954008DF854104FF4C8730F4A03FB072393F810
:1019640061318DF8503002E00120FFF747FD14A8E3
:1019740001F02EF8FFF71AFD00287FF475AFFFF78A
:101984001FFD0B4B1B6800225A6201E04FF0FF3031
:1019940017B0BDE8F08300BF04000020886E000883
:1019A400CC09002067666666986E0008A06E000881
:1019B400B008002008B5FFF72FFD002805DD012839
:1019C40007D1044BD3F8F8321BB94FF0FF30FFF7BF
:1019D40015FD08BD0400002070B586B000F0B4F811
:1019E400FFF736FCFFF7C2FBFFF732FCFFF764FC9E
:1019F400FFF77CFCFFF7A0FCFFF7B4FC00F052FFFC
:101A0400344800F0E5FF4FF4257000F0C5F80120DC
:101A1400FFF7D0FF304803F09BFE304D304B2B6076
:101A2400304BAB60304B6B60304BEB604FF47A70F3
:101A340000F0B2F82E4B04AE93E8030086E80300EE
:101A44000024ADF80640284602A901220DF1060340
:101A5400FEF7FEFD02A8FEF7FFFE4FF47A7000F0D9
:101A64009BF830460121FEF7D5FE0226254602E00A
:101A7400022600E001241F4B53F8250000F0A8FFC4
:101A84004FF4FA7000F088F81B4B53F8240000F070
:101A94009FFF4FF4FA7000F07FF80020FFF78AFFF1
:101AA400FFF778FC3046214602AB0CCBFFF7B0FEC3
:101AB40040B1124B1B68012BDDDD95F00105D7D039
:101AC4000726D8E7002CD5D0012C01D10224D2E777
:101AD4000024D0E7A86E0008B0080020EC0800201D
:101AE40019110008391100085111000811110008DA
:101AF400306E0008CC040020B80400202008002028
:101B040008B50268044B1B689A4203D1034820219C
:101B140000F016FA08BD00BFB00800200000024023
:101B240010B5044600F066FD064BA3FB00308009A7
:101B3400FEF722FF4FF0FF3021460022FEF7DEFEC3
:101B4400002010BDD34D621008B50B4B1A6842F447
:101B540000721A601A6842F480621A601A6842F4C9
:101B640080721A600320FEF7B7FE0020FFF7D8FF4B
:101B740000F044F8002008BD003C0240024A13680B
:101B840001331360704700BF24080020014B18681C
:101B9400704700BF2408002010B582B00190FFF701
:101BA400F5FF0446FFF7F2FF001B019B9842F9D3AF
:101BB40002B010BD08B5FFF7E1FFFEF701FF08BD55
:101BC40008B51D20FEF7EEFE014803F077FE08BDC0
:101BD400B008002008B52520FEF7E4FE014804F013
:101BE40019FB08BD5409002008B52620FEF7DAFECB
:101BF400014804F00FFB08BD9009002008B5072038
:101C0400FEF76AFE6FF00B0000210A46FEF776FE2F
:101C14006FF0090000210A46FEF770FE6FF0030022
:101C240000210A46FEF76AFE4FF0FF3000210A4603
:101C3400FEF764FE08BD00BF02680F4B9A4219D13B
:101C440000B587B00D4A136C43F4001313644FF4CA
:101C540040730193122302930023039303230493F9
:101C64000423059306480DEB030100F06FF807B059
:101C74005DF804FB704700BF005400400038024088
:101C84000004024008B50268084B9A420CD1084A85
:101C9400136C43F0020313641D2000210A46FEF76F
:101CA4002DFE1D20FEF75CFE08BD00BF00040040B1
:101CB4000038024000B587B00368214A93421DD121
:101CC40002F59432536C43F0100353644FF4C06331
:101CD4000193022302930123039303230493072311
:101CE4000593184801A900F031F8252000210A467F
:101CF400FEF704FE2520FEF733FE1EE0124A93424F
:101D04001BD102F5FA32136C43F4003313640C2331
:101D140001930223029301230393032304930723D0
:101D24000593084801A900F011F8262000210A466D
:101D3400FEF7E4FD2620FEF713FE07B05DF804FB72
:101D44000010014000000240004400402DE9F04131
:101D54000023DAE09C4601229A400C681440944225
:101D640040F0D2804D68022D01D0122D14D14FEADB
:101D7400D30808F1080850F8287003F0070E4FEA5A
:101D84008E0E0F2505FA0EF527EA05060D6905FAEC
:101D94000EF5354340F8285006684FEA430E0325F4
:101DA40005FA0EF5ED4305EA06074E6806F003064C
:101DB40006FA0EF63E4306604E68771E012F03D9DD
:101DC400112E01D0122E12D1866805EA0607CE68BC
:101DD40006FA0EF63E438660476827EA02074E6815
:101DE400C6F3001202FA0CF646EA07024260C26821
:101DF4002A408D6805FA0EF51543C5604A6812F04D
:101E0400805F00F08180434D6A6C42F480426A64D2
:101E14009A08961CA5F5803555F8266003F003074B
:101E2400BF000F25BD4026EA05063B4DA84237D02A
:101E340005F58065A84231D005F58065A8422BD010
:101E440005F58065A84225D005F58065A8421FD018
:101E540005F58065A84219D005F58065A84213D020
:101E640005F58065A8420DD005F58065A84207D028
:101E740005F58065A84201D1092512E00A2510E084
:101E840008250EE007250CE006250AE0052508E0F4
:101E9400042506E0032504E0022502E0012500E014
:101EA4000025BD40354302321C4E46F822501C4AE0
:101EB4001568E24302EA05064F6817F4803F01D033
:101EC40044EA0506164D2E606D6802EA05064F6861
:101ED40017F4003F01D044EA0506114D6E60AD6869
:101EE40002EA05064F6817F4801F01D044EA05068C
:101EF4000B4DAE60ED682A404E6816F4001F01D009
:101F040044EA0502064CE26001330F2B7FF622AF50
:101F1400BDE8F08100380240000002400038014072
:101F2400003C014003690B4201D0012070470020AE
:101F3400704700BF0AB1018370474183704700BFF7
:101F4400436959404161704738B50446036813F04A
:101F5400010F57D0A94B9B6803F00C03042B0AD044
:101F6400A64B9B6803F00C03082B0ED1A34B5B68B4
:101F740013F4800F09D0A14B1B6813F4003F41D028
:101F84006368012B40F0A2813CE000229C4B1A7054
:101F9400FFF7FCFD054607E0FFF7F8FD401B41F2A3
:101FA4008833984200F29481944B1B6813F4003FE9
:101FB400F2D12279924B1A706368012B11D1FFF789
:101FC400E5FD054607E0FFF7E1FD401B41F28833DC
:101FD400984200F27F81894B1B6813F4003FF2D0D2
:101FE40010E0FFF7D3FD054607E0FFF7CFFD401BE8
:101FF40041F28833984200F26F81804B1B6813F4DE
:10200400003FF2D1236813F0020F5DD07B4B9B6835
:1020140013F00C0F0AD0794B9B6803F00C03082BC8
:102024001CD1764B5B6813F4800F17D1734B1B687C
:1020340013F0020F03D0E368012B40F04F816F4887
:10204400026822F0F8012269F82393FAA3F3B3FAA1
:1020540083F3DBB29A400A43026035E0E3680BB3D2
:102064000122684B1A60FFF791FD054605E0FFF772
:102074008DFD401B642800F23381604B1B6813F014
:10208400020FF4D05D48036823F0F8012269F823B5
:1020940093FAA3F3B3FA83F3DBB29A4041EA02035F
:1020A400036011E00022574B1A60FFF76FFD0546ED
:1020B40005E0FFF76BFD401B642800F213814F4BD2
:1020C4001B6813F0020FF4D1236813F0080F26D015
:1020D400636993B101224C4B1A60FFF757FD054623
:1020E40005E0FFF753FD401B642800F2FD80434BDD
:1020F4005B6F13F0020FF4D011E00022424B1A6020
:10210400FFF744FD054605E0FFF740FD401B64284A
:1021140000F2EC80394B5B6F13F0020FF4D12368AB
:1021240013F0040F56D0354A136C43F080531364F4
:10213400A2F5E432136843F480731360FFF726FDBD
:10214400054605E0FFF722FD401B642800F2D0801D
:102154002E4B1B6813F4807FF4D000222C4B1A7092
:10216400FFF714FD054607E0FFF710FD401B41F2A1
:102174008833984200F2BE80204B1B6F13F0020F8D
:10218400F2D1227A224B1A70A368012B11D1FFF7E6
:10219400FDFC054607E0FFF7F9FC401B41F28833DC
:1021A400984200F2A980154B1B6F13F0020FF2D076
:1021B40010E0FFF7EBFC054607E0FFF7E7FC401BE8
:1021C40041F28833984200F299800C4B1B6F13F054
:1021D400020FF2D1A369002B00F09280074A9268A3
:1021E40002F00C02082A00F08D80022B5BD1002241
:1021F400084B1A60FFF7CAFC054612E0003802409B
:102204000238024000004742800E474200700040FE
:102214007038024060004742FFF7B8FC401B642856
:1022240072D83C4B1B6813F0007FF5D1216A626AB7
:1022340047F6C07393FAA3F3B3FA83F3DBB29A407D
:102244001143A36A5B08013B4FF4403292FAA2F2B5
:10225400B2FA82F2D2B293400B43E26943EA02013A
:10226400E36A4FF0706292FAA2F2B2FA82F2D2B248
:1022740003FA02F241EA020343F00053254A536091
:102284000122254B1A60FFF781FC044604E0FFF7A6
:102294007DFC001B642839D81E4B1B6813F0007F9B
:1022A400F5D0002038BD00221B4B1A60FFF76EFCEE
:1022B400044604E0FFF76AFC001B642828D8154B89
:1022C4001B6813F0007FF5D1002038BD012038BD14
:1022D400032038BD032038BD032038BD012038BD9C
:1022E400032038BD032038BD032038BD032038BD8A
:1022F400032038BD032038BD032038BD032038BD7A
:10230400002038BD012038BD032038BD032038BD6E
:10231400032038BD003802406000474270B50446CF
:102324000D46874B1B6803F00F038B426BD2CAB276
:10233400834B1A701B6803F00F038B4240F0E48058
:10234400036813F0020F06D07E498B6823F0F00275
:10235400836813438B60236813F0010F00F0B88087
:102364006268012A05D1774B1B6813F4003F0ED134
:10237400CCE0022A05D1734B1B6813F0007F06D111
:10238400C6E0704B1B6813F0020F00F0C3806D4968
:102394008B6823F0030313438B60FFF7F7FB0546B9
:1023A4006368012B0FD107E0FFF7F0FB401B41F2FC
:1023B4008833984200F2B080624B9B6803F00C03B0
:1023C400042BF1D184E0022B17D107E0FFF7DEFBE9
:1023D400401B41F28833984200F2A080594B9B681D
:1023E40003F00C03082BF1D172E0FFF7CFFB401B85
:1023F40041F28833984200F29380524B9B6813F069
:102404000C0FF2D164E0036813F0020F06D04D49BB
:102414008B6823F0F002836813438B60236813F006
:10242400010F4DD06268012A05D1464B1B6813F495
:10243400003F0DD176E0022A05D1424B1B6813F010
:10244400007F05D170E03F4B1B6813F0020F6DD085
:102454003C498B6823F0030313438B60FFF796FB1F
:1024640006466368012B0ED106E0FFF78FFB801B45
:1024740041F2883398425BD8324B9B6803F00C03DB
:10248400042BF2D11CE0022B15D106E0FFF77EFBF2
:10249400801B41F2883398424CD82A4B9B6803F046
:1024A4000C03082BF2D10BE0FFF770FB801B41F209
:1024B4008833984240D8234B9B6813F00C0FF3D118
:1024C400EAB21F4B1A701B6803F00F03AB4235D1FD
:1024D400236813F0040F06D01A498B6823F4E052E2
:1024E400E36813438B60236813F0080F07D0154A81
:1024F400936823F46043216943EAC1039360002095
:10250400FFF70EFB002070BD012070BD012070BDDF
:10251400012070BD012070BD032070BD032070BD7B
:10252400032070BD012070BD012070BD012070BD6D
:10253400032070BD032070BD032070BD012070BD59
:10254400003C024000380240274B9B6803F00C0318
:10255400042B46D0082B01D024487047224B5868DE
:1025640000F03F00596801F480014FF4800292FAB0
:10257400A2F2B2FA82F2D2B231FA02F310D01C4BB8
:10258400B3FBF0F3184A506847F6C072104092FA51
:10259400A2F2B2FA82F2D2B2D04000FB03F30FE00F
:1025A400124BB3FBF0F3104A506847F6C072104068
:1025B40092FAA2F2B2FA82F2D2B2D04000FB03F352
:1025C400094A506800F440304FF4403292FAA2F2C3
:1025D400B2FA82F2D2B2D04001304000B3FBF0F044
:1025E40070470348704700BF003802400024F400DD
:1025F40000127A0008B5FFF7A7FF094B9B6803F0A8
:10260400F002F02393FAA3F3B3FA83F3DBB222FAD2
:1026140003F3044AD35CD840034B186008BD00BFE1
:1026240000380240C46E00080000002008B5FFF71F
:10263400E1FF084B9B6803F4E0524FF4E05393FA34
:10264400A3F3B3FA83F3DBB222FA03F3024AD35CB3
:10265400D84008BD00380240C46E000808B5FFF732
:10266400C9FF084B9B6803F460424FF4604393FA3C
:10267400A3F3B3FA83F3DBB222FA03F3024AD35C83
:10268400D84008BD00380240C46E000870B586B05A
:102694003D4A136B43F0020313633C4C20464FF452
:1026A40080710122FFF746FC20464FF4007101229D
:1026B400FFF740FC4FF4407301931123029301236D
:1026C4000393204601A9FFF741FB002600E01E46C4
:1026D400002413E02D4D28464FF480710022FFF7AB
:1026E40029FC0120FFF758FA28464FF48071012293
:1026F400FFF720FC0120FFF74FFA0134092CE9DD34
:1027040022484FF40071FFF70DFC10B9731C062E1C
:10271400DDDD1E484FF40071FFF704FC88BB1A4A44
:10272400136B43F0010313632023019301230293EA
:1027340000230393164801A9FFF708FB144C204615
:1027440020210122FFF7F6FB2120FFF725FA20467E
:1027540020210022FFF7EEFB2120FFF71DFA20467F
:1027640020210122FFF7E6FB2120FFF715FA20467E
:1027740020210022FFF7DEFB4FF42570FFF70CFA4F
:10278400DCE706B070BD00BF003802400004024020
:102794000000024070B584B016461D4604AA02F833
:1027A400011D84B264230093094821460123FEF7E6
:1027B40027FB03464BB9642303FB05F3009304484A
:1027C40021463246ABB2FEF79DFB04B070BD00BF9C
:1027D400E809002070B586B006461C4606AD05F82B
:1027E400101D0DF1090011461A4603F0C9FD631CC2
:1027F400642200920348B1B22A469BB2FEF700FB62
:1028040006B070BDE809002008B586201221074AE9
:102814000223FFF7DFFF034630B984201221044A64
:102824000223FFF7D7FF0346184608BD28080020F7
:102834002A08002010B586B0FFF728FF144B1A6B46
:1028440042F002021A631A6C42F400121A644FF442
:1028540040730193122302930024039404940423E9
:1028640005930C480DEB0301FFF770FA0A480B4B74
:1028740003600B4B43608460C4604FF48043036186
:1028840044618461C4610462FEF732FA06B010BD8B
:102894000038024000040240E809002000540040CF
:1028A400801A060000B583B0FFF7C4FF862000211C
:1028B40001AA0223FFF76EFF034600283AD19DF8D0
:1028C4000420BABB9DF80520162A33D184200021A8
:1028D40001AA0223FFF75EFF034658BB9DF80420BC
:1028E40042BB9DF80520162A24D10022134B1A60FE
:1028F400FF238DF804308DF805308620142101AAB9
:102904000223FFF767FF0346A0B9FF238DF80430C5
:10291400BF238DF805308420142101AA0223FFF778
:1029240059FF034630B96FF0C022044B1A60FFF719
:102934006BFF0346184603B05DF804FB280800202B
:1029440008B502282AD003DCC0B1012806D035E03E
:102954006C2813D0722821D063282FD1194AD37838
:1029640003F07F03D37011B163F07F03D37084202D
:102974001321154A0123FFF72DFF08BD114A53788F
:1029840003F0BF03537011B143F04003537086202A
:1029940013210E4A0123FFF71DFF08BD094A53788E
:1029A40003F07F03537011B163F07F0353708620EB
:1029B4001321064A0123FFF70DFF08BD4FF0FF3036
:1029C40008BD00BF280800202B080020290800208B
:1029D40070B5002312E014498A5CD24302F07F02EE
:1029E400124951F823607F2101FA06F4104D296839
:1029F40021EA0401B2400A432A600133032B0DDCAF
:102A0400C25C002AE7D109E0084A52F823107F2269
:102A14008A400749086802430A600133032BF3DD47
:102A2400FFF7F2FE70BD00BFD46E0008D46F00083B
:102A34002808002008B500F011FF08BD08B54A08B1
:102A44008A2102F099FD08BD15290FD8DFE801F0AD
:102A54000B0B0E0B0E0E0E0E0E0E0E0E0E0E0E0E9B
:102A64000E0E0E0E0B0B0174002000E0F82040B295
:102A7400704700BF037C0B700020704710B50C46F4
:102A84000921224602F096FD024618B9237803F084
:102A940001032370104610BD08B502F0C9F808BD43
:102AA40008B502F037F908BD08B501F021FF08BDEB
:102AB40008B502F09DF808BDF0B583B006460D4692
:102AC400174602AA002302F8013D012102F072FD1B
:102AD4009DF80730044668BB012F15D1042D2BD86F
:102AE400DFE805F00306090C0F0043F0100528E0A9
:102AF40043F0280525E043F0040522E043F04005B7
:102B04001FE043F080051CE0042D18D8DFE805F031
:102B14000306090C0F0003F0EF0512E003F0D705DC
:102B24000FE003F0FB050CE003F0BF0509E003F040
:102B34007F0506E01D4604E01D46FC2401E01D4619
:102B4400FC249D420ED02CB9304601212A4602F0C5
:102B540013FD04460CB986F830511CB9304671692E
:102B6400FFF79AFF60B203B0F0BD00BF00201870F9
:102B740004291CD8DFE801F003080D121700C2F382
:102B840000121A70002013E0C2F3C0021A70002071
:102B94000EE0C2F380021A70002009E0C2F3801232
:102BA4001A70002004E0D2091A70002000E0FC2012
:102BB40040B2704730B583B005460C4602AA0023E4
:102BC40002F8013D012102F0F5FC034638B928461C
:102BD40000219DF807202346FFF7C8FF03463BB9B1
:102BE400284601219DF80720A31CFFF7BFFF0346D9
:102BF4003BB9284602219DF80720631CFFF7B6FF66
:102C040003463BB9284603219DF807206318FFF7C4
:102C1400ADFF03463BB9284604219DF807206318FD
:102C2400FFF7A4FF034658B203B030BD30B583B0FC
:102C340005460C46F8210DF1060202F0EFFC0346AE
:102C440028B9284604216A4602F00AFD034643B91E
:102C5400BDF806201AB10099B1FBF2F22260226895
:102C6400AA6158B203B030BD037F0B7000207047D7
:102C740030B583B004460D4620210DF1060202F062
:102C8400CDFC024660B9BDF8063023B9236A2B6037
:102C94000023237704E0DB002B60236201232377E6
:102CA400104603B030BD00BF70B505460C4616464D
:102CB400052931D82AB100EB81035A6B0023012185
:102CC40002E0012300210A46052C27D8DFE804F09E
:102CD40003070E12161D85F8281000201FE0284651
:102CE4004421C2F34F2202F055FC18E085F82A1063
:102CF400002014E085F82B10002010E02846602105
:102D0400FE225B0002F070FC09E028466021EF22FD
:102D14001B0102F069FC02E0FC2000E0FC2048B941
:102D240026B92C44002384F8283003E02C440123E2
:102D340084F8283040B270BD052903D900231370EC
:102D4400FC2004E0014491F828301370002040B2C4
:102D5400704700BF431893F828302BB900EB81006B
:102D64004263002040B2704770B516460D460446D3
:102D7400052919D8DFE801F003060C0F121262636B
:102D8400002012E04421C2F34F2202F003FC0CE0C5
:102D9400E263002009E02264002006E06421C2F31B
:102DA4004F2202F0F7FB00E0FC2010B904EB85048D
:102DB400666340B270BD00BFF0B583B005460C46F3
:102DC4001746052928D8DFE801F0030713171B1B52
:102DD400466B0022134625E044210DF1060202F061
:102DE4001DFC0346D8B9BDF806607602012219E03D
:102DF400C66B0022134615E0066C0022134611E050
:102E040064210DF1060202F009FC034648B9BDF83D
:102E140006607602002205E00022FC2302E0012283
:102E240000E00022A3B992B146B905EB8402526BCB
:102E34003A602C44002284F8282009E03E6005EB27
:102E4400840256632C44012284F8282000E03E606A
:102E540058B203B0F0BD00BF30B583B004460D4690
:102E640001210DF1070202F0A5FB034658B99DF8B4
:102E7400072084F8302112F0800F02D001222A703A
:102E840001E000222A7013B92A7884F84C201846ED
:102E940003B030BD2DE9F04107460E46FFF7EAFDC9
:102EA400044628B9384606F10801FFF7BFFE044678
:102EB4000CB9002333732CB9384606F11001FFF71F
:102EC400D7FE04462CB9384606F11401FFF7B2FDCB
:102ED4000446CCB11BE0D4B91FFA85F806EB850291
:102EE400384641462432FFF767FF204310F0FF04C1
:102EF4000DD105F11802384641463244FFF71CFF54
:102F04002043C4B2013500E00025052DE3DD2CB9D2
:102F1400384606F13C01FFF79FFF044624B93846C2
:102F2400311DFFF7BDFD044660B2BDE8F08100BF6E
:102F3400F0B593B005468821002202F01DFB002362
:102F440085F8F0304FF47A72A5F852214FF4C87224
:102F5400A5F85421604AC5F85821604AC5F8D42020
:102F64002B62284602A9FFF795FF044688B900237F
:102F74008DF808308DF8093005F1100602AF0FCF37
:102F84000FC60FCF0FC60FCF0FC697E80F0086E806
:102F94000F006423A5F834314FF46173A5F836317A
:102FA4004FF4FA73A5F838314FF42063A5F83C3197
:102FB400012685F8506128468021324602F0DCFA69
:102FC4002043C4B22846FF21324602F0D5FA2043FA
:102FD400C4B2284600210A4602F0CEFA2043C4B205
:102FE400284691210DF1070202F0E4FA2043C4B20D
:102FF4009DF8073085F83A3128460021324602F020
:10300400BBFA2043C4B22846FF21002202F0B4FADE
:103014002043C4B228468021002202F0ADFA2043A6
:10302400C4B2002608E04CB92846B1B20122FFF729
:103034003BFE2043C4B20136052EF4DD2CB92846EC
:1030440002210022FFF730FE04462CB92846032152
:103054000022FFF729FE04462CB928460421002249
:10306400FFF722FE04462CB9284605210022FFF76B
:103074001BFE044634B9284600214FF49012FFF792
:1030840069FE044634B9284601214FF48042FFF713
:1030940061FE044634B9284602214FF40C12FFF7AE
:1030A40059FE04462CB9284603210022FFF752FE9C
:1030B400044654B9FF2285F830212846012102F044
:1030C4005BFA0446012385F8323114B9002385F8EC
:1030D400153160B213B0F0BD856B0100A470090016
:1030E40008B5012300F004FE08BD00BF2DE9F0413E
:1030F4008EB005460C4614210AAA0C2302F022FACB
:103104008046002870D10023A37523609DF83260A7
:103114009DF8332002EB06261FFA86FE63609DF8B5
:103124002E209DF82F3003EB022292B25202E2606D
:103134009DF830109DF8313003EB01239BB25B0204
:1031440023619DF82A109DF82B3003EB01239BB2D9
:10315400A3829DF82810B5F8526195F83171B6F53F
:103164007A7F26D00EFB06F606F5FA76364880FB03
:1031740006E0F617C6EBA0101FFA80FE2E6A95F83B
:103184001CC0BCF1000F14D0B6B203FB06F6361215
:10319400964203D15FB142F2B82E0AE080B202FB3C
:1031A40000F0961BB0FBF6F61FFA86FE01E048F627
:1031B400E02E37B14FEA9E0020814FEA8E16E67565
:1031C40003E0A4F808E00020E07500940DF1370056
:1031D4000190284602F038F840EA080010F0FF0891
:1031E40002D19DF837302376B8F1000F26D103AE13
:1031F40005F150070FCF0FC697E8070086E80700D0
:103204002389ADF81430E37D8DF823306389ADF85C
:10321400163063680493E368069323690793A38ACB
:10322400ADF82030237E8DF8243005F1500403AD31
:103234000FCD0FC495E8070084E807004FFA88F023
:103244000EB0BDE8F08100BFD34D621070B582B0FE
:10325400064615461C460E210DF1060202F0DEF963
:10326400BDF80630C3F30B035B042B60034660B95F
:1032740030460C210DF1060202F0D0F90346BDF8E8
:103284000620C2F30B025204226058B202B070BD91
:1032940070B582B090F8DA30013BDBB2022B34D83F
:1032A4000E460546012101AA6B46FFF7CFFF0446EF
:1032B400019BB3F57F0F03D8009BB3F57F0F25D98E
:1032C40024BB2EB12846134901F08AFD04461DE0B3
:1032D4002846FF21042202F04FF92043C4B22846B5
:1032E4007021002202F048F92043C4B22846FF218D
:1032F400002202F041F92043C4B228468021002272
:1033040002F03AF92043C4B200E0002460B202B0F3
:1033140070BD00BFC805002030B583B004460DF170
:103324000701FFF7A7FB20468021012202F024F9C0
:103334002046FF21012202F01FF9204600210A46FF
:1033440002F01AF92046912194F83A2102F014F976
:1033540020460021012202F00FF92046FF2100221D
:1033640002F00AF920468021002202F005F99DF8B6
:103374000730012B24D013B1032B31D040E0204679
:103384000021012202F0F8F801238DF806300346EB
:10339400C8BB002535B1204600210DF1060202F01C
:1033A40009F9034601359DF8062012F0010F03D0F8
:1033B40013B9B5F5FA6FEDD3B5F5FA6F23D321E060
:1033C40018B920460121FFF763FF2046002102229D
:1033D40002F0D2F80346B0B9042284F8322112E094
:1033E40018B920460121FFF753FF2046002104228B
:1033F40002F0C2F8034630B9042284F8322102E014
:10340400F82300E0F92358B203B030BD10B582B000
:1034140004460DF10701FFF72DFB034630B99DF873
:1034240007201AB92046FFF777FF03461BB9204649
:1034340000F0D6FD03462BB99DF8072012B90322EC
:1034440084F8322158B202B010BD00BF70B582B00A
:103454000646002530460B21012202F08DF8044671
:1034640030460B21002202F087F82043C4B23046D4
:1034740013210DF1070202F09DF82043C0B201357B
:10348400EDB29DF8073013F0070F03D0022D01D8D9
:103494000028DFD0022D00D9F42040B202B070BD64
:1034A40038B504460D460021FFF7CEFA034618B995
:1034B4002046FFF7ABFF034623B920462946FFF712
:1034C40015FE034623B920460021FFF7BFFF03463C
:1034D40058B238BDF8B59DF81860002940F0A780AF
:1034E40005461C46142A08D10EB9102200E0012218
:1034F4002846842102F040F89AE0152A67D1FF217A
:10350400012202F039F80446284600210A4602F056
:1035140033F82043C4B22846FF21002202F02CF8DD
:103524002043C4B228468021012202F025F820431A
:10353400C4B228468521022202F01EF82043C4B2F8
:103544002846FF21042202F017F82043C4B228467B
:10355400CD21002202F010F82043C4B22846CC2129
:10356400112202F009F82043C4B22846FF210722A1
:1035740002F002F82043C4B22846BE21002201F022
:10358400FBFF2043C4B22846FF21062201F0F4FFCA
:103594002043C4B22846CC21092201F0EDFF204388
:1035A400C4B22846FF21002201F0E6FF2043C4B242
:1035B4002846FF21012201F0DFFF2043C4B2284640
:1035C40000210A4601F0D8FF2043C0B230E0042CA9
:1035D40010D8DFE804F0031106090C000027384670
:1035E4000CE00227002009E00327002006E004275E
:1035F400002003E0F52001E00127002020B928463F
:103604000A213A4601F0B8FF40B90EB9002300E0A0
:10361400102328468421EF2201F0E6FF08B985F83B
:10362400DA4028B928460021FFF710FF00E0F62011
:1036340040B2F8BDF0B597B0074606A80021402275
:1036440002F0A9FE0023ADF816308DF815308DF880
:10365400143004933846012100F026FD97F8131125
:1036640097F81421012A05D801D1202902D842B99A
:103674000C2906D9384604A905AA00F059FB0446CA
:1036840003E0384600F0E0F904462CB997F85031CD
:1036940023B9D7F84C1102E04F4900E04E491CB958
:1036A400384601F09DFB04463CB90022009238469E
:1036B40011460423FFF70EFF0446A4B93846FF2140
:1036C400012201F059FF0446384684210DF1160207
:1036D40001F0A4FF2043C4B23846FF21002201F0C8
:1036E4004BFF2043C4B224B9BDF816301B01C7F800
:1036F400D43024B9384606A9FFF7CCFB044654B9A4
:1037040038460DF11501FFF7B9F9044618B99DF8CB
:10371400153087F8313164B907F1100506AE0FCEC4
:103724000FC50FCE0FC50FCE0FC596E80F0085E865
:103734000F005CB9384601210DF1150201F03AFF82
:10374400044618B99DF8153087F830312CB938463D
:1037540000210A46FFF7B0F904462CB93846022185
:103764000022FFF7A9F9044614B9032387F832317C
:1037740034B9384600210DF10F02FFF799F90446D8
:103784001CB99DF80F3087F8E83034B93846012168
:103794000DF10F02FFF78CF904461CB99DF80F30A8
:1037A40087F8E0302CB93846032102AA00F088FFDC
:1037B400044614B9029BC7F8E4302CB938460421F6
:1037C40002AA00F07DFF044614B9029BC7F8DC305E
:1037D40060B217B0F0BD00BFD404002010B582B0B1
:1037E4000C4613210DF1070201F0E4FE9DF80730A9
:1037F40003F00702226013F0180F00D0FA2040B241
:1038040002B010BD10B582B00C4690F8DA30042B2B
:103814000CD16946FFF7E2FF0346009A042A02D15D
:103824000122227013E00022227010E014210DF115
:10383400070201F0BFFE034648B99DF8072012F0C5
:10384400010F02D00122227001E00022227058B23E
:1038540002B010BD08B500F06BFA08BD10B582B017
:103864000C4628210DF1060201F0D8FE024688B963
:10387400BDF80630C3F30B03B3F5006F06DBA3F505
:103884008053FA2101FB03F3236003E0FA2101FBD7
:1038940003F32360104602B010BD00BFF0B54FF033
:1038A400FF341C60D70802F0070E3D46002616E0E0
:1038B400445DBD4204D144FA0EF4E4B272460BE016
:1038C400002209E014F0010F04D002EBC5021A60D3
:1038D400012603E064080132072AF3D901358D4239
:1038E40001D2002EE4D0F0BD8009044B53F82030FF
:1038F4000BB1012070470020704700BF80070020F3
:1039040010B4D40802F007028C4206D2012393407B
:10391400025D13430355002000E0CE2040B25DF861
:10392400044B704708B50A46B021062301F0F0FDA8
:1039340008BD00BF08B50A46B021062301F002FE07
:1039440008BD00BF2DE9F04F87B001908B4600926F
:103954009846109EDDF844A0129FDDF84C90059720
:10396400002516E0009831463A4605ABFFF796FF6E
:10397400059CB4F1FF3F10D00AEB0400FFF7B4FF3D
:1039840058450CD1404631462246FFF7B9FF671C23
:1039940001354D45E6D3002002E0CE2000E0CE20E4
:1039A400149B1F6018B901984146FFF7BBFF90B9FB
:1039B400019803A9FFF7BEFF002308E018F80310DD
:1039C40006AA1A4412F80C2C914203D10133B342D3
:1039D400F4D300E0CE2040B207B0BDE8F08F00BFC2
:1039E40070B588B004460E4690F830510121C022CB
:1039F40001F0C2FD034620B9204601A9FFF750FD9E
:103A040003462BB92046FF21012201F0B5FD0346F0
:103A14002BB92046B621324601F000FE03462BB9ED
:103A24002046FF21002201F0A7FD034643B92046AA
:103A340001212A4601F0A0FD034608B984F830515B
:103A440058B208B070BD00BFF0B589B005460F4646
:103A54001646FF21012201F08FFD034628B92846AE
:103A64004F21002201F088FD03462BB928464E2140
:103A74002C2201F081FD03462BB92846FF210022A8
:103A840001F07AFD034623B92846B621B42201F099
:103A940073FD002304E0EA18002182F824110133A5
:103AA400052BF8D91EB9002409E0013400E00024F4
:103AB40004F1B400FFF718FF08B92B2CF5D906233D
:103AC4000093B42301930294039707AB049328460D
:103AD400314605F5957205F59273FFF733FF0346FA
:103AE40030B9012285F8152185F8137185F8146120
:103AF400184609B0F0BD00BF10B5044641F00102FC
:103B0400002101F039FD034618B9204600F068FA97
:103B1400034623B920460021FFF798FC03462BB93E
:103B2400204600210A4601F027FD034658B210BD85
:103B34002DE9F04F83B005468846924699469DF894
:103B440038709DF83C604FF0000B8DF807B0FF21F2
:103B5400012201F011FD0446284659465A4601F057
:103B64000BFD2043C4B22846FF215A4601F004FD50
:103B74002043C4B2B8F1000F11D037B12846CB218D
:103B84000C9A01F017FD2043C4B2CEB12846EE21B1
:103B94000DF1070201F00EFD2043C4B210E037B16D
:103BA4002846CB21524601F0E7FC2043C4B23EB183
:103BB4002846EE2180224B4601F016FD2043C4B274
:103BC4002846FF21012201F0D7FC2043C4B2284635
:103BD4000021012201F0D0FC2043C4B22846FF2179
:103BE400002201F0C9FC20439DF8073003F0EF03E5
:103BF4000D9A137040B203B0BDE8F08F2DE9F04187
:103C040086B004460D46174600228DF817201E463E
:103C140013B190F8308101E04FF0000820460121F3
:103C24000A4601F0A9FC034620B920464021FFF7CB
:103C340063FF03467BB9012F0DD100950DF11703E6
:103C44000193012102910023039320461A46FFF7B2
:103C54006FFF034601E000222A704BB946B12046AB
:103C64000121424601F088FC034608B984F83081FA
:103C740058B206B0BDE8F0812DE9F04186B00446A3
:103C84000D4617461E4613B190F8308101E04FF0FF
:103C9400000820460121022201F06EFC034620B9EF
:103CA40020460021FFF728FF03467BB9012F0DD1E1
:103CB4000DF1170300930195002302930121039151
:103CC40020461A46FFF734FF034601E000222A701B
:103CD4004BB946B120460121424601F04DFC034652
:103CE40008B984F8308158B206B0BDE8F08100BF4D
:103CF400F8B5044617461D4690F830611A4600236D
:103D0400FFF77CFF034630B9204639462A46002394
:103D1400FFF7B2FF034643B920460121324601F0C2
:103D24002BFC034608B984F8306158B2F8BD00BFD3
:103D34002DE9F04F95B004460C910D920023119398
:103D440010938DF83D308DF83C30B0F83CB104E070
:103D5400E218002182F824110133052BF8D92046FA
:103D6400FF21012201F008FC054628B920464F2115
:103D7400002201F001FC05462DB920464E212C22DB
:103D840001F0FAFB05462DB92046FF21002201F07F
:103D9400F3FB05462DB92046B621B42201F0ECFB15
:103DA40005462DB920468021002201F0E5FB054699
:103DB4003DB920460DF13D010FAA0023FFF798FFFE
:103DC40005469DB9002114AB43F80C1D0622009250
:103DD400B42201920291032203920493204604F533
:103DE400957204F59273FFF7ADFD0546002D48D199
:103DF400119F20460DF13E01FFF7F2FD0546002814
:103E040045D1BDF83E305B450AD800230B93984654
:103E1400089352E0E218002182F82411013300E0F3
:103E24000023052BF6D900E0013707F1B400FFF7B2
:103E34005BFD08B92B2FF7D906230093B423019314
:103E440002970323039311AB04932046012104F545
:103E5400957204F59273FFF775FD0546E0B9119F5D
:103E640020460DF13E01FFF7BBFD0546D0B9BDF874
:103E74003E305B451CD800230B93984601230893DE
:103E84001BE000230B93984608931F4615E000237C
:103E94000B939846089310E000230B939846012354
:103EA40008930AE000230B9398460123089304E047
:103EB40001230B934FF003080893002D7AD1BDF82A
:103EC4003E305B4576D29DF820200B92D4F8240135
:103ED4001290B4F82821ADF84C20CDF828B0CBEBE3
:103EE4000303002BB8BF5B4209934FF003084FF064
:103EF400000A07975F4654E004F595700621079A77
:103F040010ABFFF7CBFC109EB6F1FF3F4DD00796E8
:103F140006F1B400FFF7E8FC089B98424AD108F187
:103F2400010B04F59279484606213246FFF7E8FC76
:103F3400054630B9731C079320464946FFF7F2FC47
:103F44000546A5BB20460DF13E01FFF749FD054698
:103F540078BBBDF83E200A9BD31A002BB8BF5B4246
:103F6400974212D2099A934218D9204612A9FFF710
:103F7400D9FC05461298C4F82401BDF84C30A4F8C5
:103F84002831C3464FF0010A0AE0D4F82401129004
:103F9400B4F82821ADF84C20099301E04FF0010A50
:103FA400D846BAF1000FA7D004E0CE2502E0D846E7
:103FB40000E0D8467DB90C9AC2F800800D999DF8AE
:103FC4002C000870012384F81531137884F8133118
:103FD4000B7884F8143168B215B0BDE8F08F00BFD7
:103FE40030B583B0054600248DF8074028460DF10E
:103FF4000701FFF707FC024660B99DF80730012B63
:1040040008D00134B4F5FA6F03D2284601F050FB0E
:10401400ECE7F92250B203B030BD00BF01304000DC
:1040240000F0FE00704700BF40080138C0B270477E
:104034004FF0804300E09B088342FCD8002208E054
:10404400D118814203D8401A03EB520200E052080F
:104054009B08002BF4D11046704700BF70B582B0A6
:1040640006468321002201F087FA054698B9002408
:10407400304683210DF1070201F09CFA05469DF8B4
:10408400073023B918B90134B4F5FA6FF0D3B4F595
:10409400FA6F00D3F92530468321012201F06CFA2E
:1040A400284340B202B070BD2DE9F04F8DB00546F3
:1040B4000E4600230893079390F8F070072F00F042
:1040C40058828021012201F057FA04462846FF2134
:1040D400012201F051FA2043C4B2284600210A46C5
:1040E40001F04AFA2043C4B22846FF21062201F017
:1040F40043FA2043C4B2284683210DF12F0201F074
:1041040059FA2043C4B29DF82F202846832142F057
:10411400040201F031FA2043C4B22846FF210722E9
:1041240001F02AFA2043C4B228468121012201F079
:1041340023FA2043C4B2284601F0BAFA2043C4B299
:1041440028468021012201F017FA2043C4B216F058
:10415400010F57D017F0010F58D1284694216B2234
:1041640001F00AFA2043C4B22846FFF777FF204340
:10417400C4B2284690210AAA01F072FA2043C4B2BC
:104184000A9BC3F3062BC3F3C03928469421242287
:1041940001F0F2F92043C4B22846FFF75FFF204341
:1041A400C4B2284690210AAA01F05AFA2043C4B2A4
:1041B4000A9B1A0E8DF80020C3F307428DF80120E4
:1041C400C3F307228DF802208DF80330284694218A
:1041D400252201F0D1F92043C4B22846FFF73EFF5F
:1041E4002043C4B2284690210AAA01F039FA204398
:1041F400C4B20A9B1A0E8DF80420C3F307438DF84A
:10420400053006E04FF00009CB4602E04FF000090C
:10421400CB4616F0020F00F0DB8017F0020F40F0DF
:10422400D78028469421022201F0A6F92043C4B283
:104234002846FFF713FF2043C4B2284690210DF10E
:10424400270201F0B7F92043C4B2284694217B2207
:1042540001F092F92043C4B22846FFF7FFFE204341
:10426400C4B2284690210DF1260201F0A3F920439F
:10427400C4B228469421772201F07EF92043C4B2C7
:104284002846FFF7EBFE2043C4B2284690210AAA31
:1042940001F0E6F92043C4B20A9B5A0E8DF80820B7
:1042A400C3F386428DF80920C3F3C6228DF80A2091
:1042B400C3F306128DF80B2003F00F03DB008DF817
:1042C4002F3028469421782201F056F92043C4B2B5
:1042D4002846FFF7C3FE2043C4B2284690210AAA09
:1042E40001F0BEF92043C4B20A9B9DF82F2002EBD3
:1042F40053728DF80C20C3F386528DF80D20C3F34E
:10430400C6328DF80E20C3F306228DF80F20C3F3B6
:1043140046028DF8102003F001039B018DF82F3025
:1043240028469421792201F027F92043C4B2284673
:10433400FFF794FE2043C4B2284690210AAA01F054
:104344008FF92043C4B20A9B9DF82F2002EB93629D
:104354008DF81120C3F3C6428DF81220C3F3063240
:104364008DF81320C3F346128DF8142003F01F03B5
:104374009B008DF82F30284694217A2201F0FCF816
:104384002043C4B22846FFF769FE2043C4B228463E
:1043940090210AAA01F064F92043C4B20A9B9DF853
:1043A4002F2002EB93728DF81520C3F3C6528DF8BB
:1043B4001620C3F306428DF81720C3F346228DF866
:1043C4001820C3F386038DF8193000238DF81A30B2
:1043D40016F0040F00F0898017F0040F40F0898074
:1043E400284694217B2201F0C7F82043C4B2284612
:1043F400FFF734FE2043C4B22846902108AA01F0F6
:104404002FF92043C4B2284694217C2201F0B4F849
:104414002043C4B22846FFF721FE2043C4B22846F5
:10442400902107AA01F01CF92043C4B22846942124
:10443400732201F0A1F82043C4B22846FFF70EFE10
:104444002043C4B2284690210AAA01F009F9204366
:10445400C4B20A9B4FEA03281FFA88F8284694211D
:10446400742201F089F82043C4B22846FFF7F6FD10
:104474002043C4B2284690210AAA01F0F1F820434F
:10448400C4B29DF82B3043EA0808284694217522CB
:1044940001F072F82043C4B22846FFF7DFFD204341
:1044A400C4B2284690210AAA01F0DAF82043C4B223
:1044B4000A9B4FEA032A1FFA8AFA28469421762295
:1044C40001F05AF82043C4B22846FFF7C7FD204341
:1044D400C4B2284690210AAA01F0C2F82043C4B20B
:1044E4009DF82B3043EA0A0A06E04FF00008C24662
:1044F40002E04FF00008C24628468121002201F064
:104504003BF82043C4B22846FF21062201F034F8C8
:104514002043C4B2284683210DF12F0201F04AF84A
:104524002043C4B29DF82F202846832102F0FB02C9
:1045340001F022F82043C4B22846FF21012201F0F1
:104544001BF82043C4B228460021012201F014F8CC
:104554002043C4B22846FF21002201F00DF8204375
:10456400C4B228468021002201F006F82043C4B2D8
:1045740005E04FF00008C246C146C3464446002C3D
:104584004DD1072F4BD016F0010F12D017F0010FA9
:104594000FD185F813B185F81491002307E00CAA14
:1045A4001A4412F8301CEA1882F82A110133052B38
:1045B400F5DD16F0020F0FD017F0020F0CD19DF8A5
:1045C400273085F8F1309DF8263085F8F23005F172
:1045D400F30002A901F01BFF16F0040F1CD017F022
:1045E400040F19D1089BC5F81831079BC5F81C3175
:1045F4004FEA4823C5F82031BAF1000F09D0AAF5D3
:10460400C85A4FF47A7303FB0AF31B095B429BB24B
:1046140000E000231BB2EB603E4385F8F06060B21B
:104624000DB0BDE8F08F00BF01EBC101090240F2FB
:10463400776000FB01F0704768B1431E002002E080
:104644005B08013080B233F0FF02F9D1DBB203EB37
:10465400002080B270470020704700BFC2B2030A36
:1046640002FA03F00130704710B50C461146FFF70B
:10467400DBFF00F5FA70064BA3FB00239809DB0966
:104684004FF47A7202FB0433B3FBF0F010BD00BFA9
:10469400D34D621010B50C461146FFF7C5FF00F567
:1046A400FA710648A0FB0131890901FB04F101F507
:1046B400FA71A0FB0130800910BD00BFD34D621018
:1046C400F0B585B00546164600238DF80E30ADF8DA
:1046D4000C30022918D819460DF10F02FEF7E8F93B
:1046E400044630B9284646210DF10E0200F062FF5F
:1046F40004469DF80E00FFF7B1FF81B228469DF8ED
:104704000F20FFF7C7FF65E0032920D100210DF139
:104714000F02FEF7CDF90446002857D128460021A0
:104724000DF10F02FEF7C4F9044628B928465121B9
:1047340003AA00F073FF0446BDF80C00FFF78EFFD8
:1047440081B228469DF80F20FFF7A4FF42E0042918
:104754003ED101A9FEF72EFA9DF807309BB12846F9
:1047640000210DF10F02FEF7A3F9044670B92846A3
:10477400512103AA00F052FF0446BDF80C00FFF7D4
:104784006DFF87B203E000273C4600E0002734B900
:10479400284601210DF10F02FEF78AF9044664B997
:1047A400284671210DF10A0200F038FF0446BDF8D5
:1047B4000A00FFF753FF80B200E00020C11B284627
:1047C40089B29DF80F20FFF765FF03E0002001E0A8
:1047D40000200446306060B205B0F0BDF0B585B08D
:1047E40005461646022920D800210DF10F02FEF7D6
:1047F4005FF9044680B9284631469DF80F20FFF73B
:1048040033FF83B2B3F5807F03D8013800F0FF078C
:1048140000E0FF27A5F8D870002C65D12846462172
:104824003A4600F0A9FE04465EE003291ED10021A9
:104834000DF10F02FEF73CF90446284631469DF877
:104844000F20FFF711FF80B2FFF7F6FE0246ADF826
:104854000C00A5F8D80024B92846512100F09AFE8E
:104864000446002C40D1C5F8E4603DE004293AD167
:1048740001A9FEF79FF99DF807309BB12846002156
:104884000DF10F02FEF714F9044670B928465121C0
:1048940003AA00F0C3FE0446BDF80C00FFF7DEFED9
:1048A40087B203E000273C4600E0002734B92846DD
:1048B40001210DF10F02FEF7FBF80446A4B92846C6
:1048C40031469DF80F20FFF7CFFE3844FFF7B4FEC2
:1048D400024624B92846712100F05CFE04461CB946
:1048E400C5F8DC6000E0FC2460B205B0F0BD00BF98
:1048F400F0B585B007460E46154600238DF8033003
:1049040012F0010F0CD119B90B2A0BD9122A0BD8AA
:10491400012E0BD1072D0BD90E2D0BD800230AE045
:10492400FC2308E0FC2306E0FC2304E0002302E06F
:10493400FC2300E0FC23002B40F05681C6BB0C2D69
:104944000BD138465721182200F016FE384656215E
:10495400082200F011FE0346F0E00E2D0BD138467C
:104964005721302200F008FE38465621082200F074
:1049740003FE0346E2E0102D0BD1384657214022B6
:1049840000F0FAFD38465621082200F0F5FD0346F2
:10499400D4E0122D40F0D28038465721502200F046
:1049A400EBFD38465621082200F0E6FD0346C5E03B
:1049B400012E40F0C380082D2ED138464821102204
:1049C40000F0DAFD38464721082200F0D5FD044600
:1049D40038463221022200F0CFFD2043C4B23846CB
:1049E40030210C2200F0C8FD2043C4B23846FF2118
:1049F400012200F0C1FD2043C4B2384630210A46EA
:104A040000F0BAFD2043C4B23846FF21002200F072
:104A1400B3FD2043C3B291E00A2D2ED1384648217C
:104A2400282200F0A9FD38464721082200F0A4FD01
:104A3400044638463221032200F09EFD2043C4B2CE
:104A440038463021092200F097FD2043C4B238468D
:104A5400FF21012200F090FD2043C4B238463021EA
:104A6400202200F089FD2043C4B23846FF210022F1
:104A740000F082FD2043C3B260E00C2D2ED13846F5
:104A84004821382200F078FD38464721082200F0FA
:104A940073FD044638463221032200F06DFD2043A5
:104AA400C4B238463021082200F066FD2043C4B267
:104AB4003846FF21012200F05FFD2043C4B238468E
:104AC4003021202200F058FD2043C4B23846FF2193
:104AD400002200F051FD2043C3B22FE00E2D2DD152
:104AE400384648210A4600F047FD38464721082247
:104AF40000F042FD044638463221032200F03CFD1A
:104B04002043C4B238463021072200F035FD20434B
:104B1400C4B23846FF21012200F02EFD2043C4B266
:104B240038463021202200F027FD2043C4B2384605
:104B3400FF21002200F020FD2043C3B2002B44D10A
:104B44002846FFF771FA044616B1012E25D03BE042
:104B54003846032102AAFFF7B3FD034628B93846B5
:104B6400022101AAFFF7ACFD03462BB938465021B8
:104B7400224600F001FD03462BB938460321029A70
:104B8400FFF72CFE03462BB938460221019AFFF7A2
:104B940025FE034687F8E85017E03846042103AAA7
:104BA400FFF78EFD034628B938467021224600F0EF
:104BB400E3FC03462BB938460421039AFFF70EFEA3
:104BC400034687F8E05000E0FC2323B938467969AE
:104BD400FDF762FF03463BB938460DF1030100229D
:104BE4000123FFF749F8034658B205B0F0BD00BFF2
:104BF40030B583B0154611B1012907D00DE050211D
:104C04000DF1070200F0D6FC044607E070210DF117
:104C1400070200F0CFFC044600E0FC2424B99DF810
:104C24000700FFF7FBF9287060B203B030BD00BF86
:104C340070B584B04FF4FA6301930023009344F6F3
:104C44001F6399425DD90D460446A1F6363602A982
:104C5400FDF7B0FF0346A0BB9DF808202AB99DF8D4
:104C6400092012B99DF80A205AB32046022101AA4C
:104C7400FFF726FD0346002845D19DF808203AB1E8
:104C8400019A02F24E22B24201D2B61A00E0FC238B
:104C9400D3BB9DF80A203AB1019A02F2B222520023
:104CA400B2420BD2B61A0CE09DF809204AB1019A1F
:104CB40002F52572B24203D2B61A02E0FC2300E0E8
:104CC400FC231BBB9DF80B206AB1204603216A46D6
:104CD400FFF7F6FC0346009A02F52572B24201D2B0
:104CE400B61A00E0FC2353B99DF80C203AB12046D3
:104CF4000421A6F22622FFF771FD034665611846DA
:104D040005E0FC2003E002E0184600E0184640B24B
:104D140004B070BD30B587B005460C464FF4FA6355
:104D240002930023019340F636330B6004A9FDF788
:104D340041FF034600284FD19DF810202AB99DF861
:104D4400112012B99DF812201AB32846022102AA92
:104D5400FFF7B6FC0346E0B99DF810202AB1029A89
:104D640002F24E2221680A4422609DF812203AB1D0
:104D7400029A02F2B221226802EB4102226008E0A8
:104D84009DF811202AB1029A02F5257221680A447D
:104D9400226073B99DF813205AB12846032101AA51
:104DA400FFF78EFC0346019A02F5257221680A4436
:104DB400226073B99DF814205AB12846042103AA2D
:104DC400FFF77EFC0346039A02F2262221680A4476
:104DD40022600BB922686A6158B207B030BD00BFC7
:104DE400F0B583B007460D460024204647E0621C18
:104DF400FF2B2BD1AB5CA21C032B3BD8DFE803F0C9
:104E0400020B141DA95CE21CAB5C043403EB01230C
:104E1400A7F8343133E0A95CE21CAB5C043403EB47
:104E24000123A7F836312AE0A95CE21CAB5C043408
:104E340003EB0123A7F8383121E0A95CE21CAB5C49
:104E4400043403EB0123A7F83C3118E0042B14D8F5
:104E5400A95C0234002206E02E5D02A8104400F88A
:104E6400046C013401329342F6DC384601AA00F0A6
:104E74004FFB04E01446FC2001E01446FC202B5DAB
:104E84000BB10028B3D040B203B0F0BD70B582B00E
:104E940006460D461446002313600DF10701FDF785
:104EA400E3FE024648B99DF8073033B1336AA98A54
:104EB40003FB01F380331B0A2360104602B070BD6C
:104EC40010B582B01446CB68136001AAFFF7DEFF69
:104ED400024618B92168019B0B442360104602B0B6
:104EE40010BD00BFF8B5079C089F099EB0F8545147
:104EF400D0F8580100FB05F08030000A05FB00F5EE
:104F04006AB11046520802EB8121B1FBF0F000EBCC
:104F1400400000FB00F000F50040000C00E0002021
:104F2400069A02FB03F202F50042120C02FB02F2A3
:104F340004F50041090C0331224BA3FB013189081C
:104F4400C1EBC101B1F5803F0CD203341D49A1FB73
:104F540004318908C1EBC10101F50041090C01FBD1
:104F640001F100E018490A4402EB5702B2FBF7F3DF
:104F74009B037F335A08154BA3FB02239B0900FBB9
:104F840003F404F5FA741248A0FB0434A4092401C0
:104F940004F5FA74A0FB0434A40905F12000800987
:104FA400FFF746F8074624B105EB5400B0FBF4F0D4
:104FB40000E00020FFF73CF83760874200D93060FA
:104FC4000020F8BDABAAAAAA0000F0FF09040281E0
:104FD400D34D62102DE9F04F8DB0064689460492F8
:104FE4000593036A0B930D694FF47A7404FB05F57A
:104FF4002D0CCB6806930AAAFFF762FF3046494698
:105004000BAAFFF743FF8246DDF8288004FB08F76C
:1050140007F500473F0C0B9B04FB03F4B4F5481F52
:1050240001D94FF44814BAF1000F3BD1D6F8DC3063
:10503400089396F8E0B0304619465A46FFF714FB39
:105044000790D6F8E43009933046194696F8E820DC
:10505400FFF70AFBBBF1080F01D0032200E0022294
:10506400079B034402FB03F3DB0203F5FA736F4A65
:10507400A2FB03139B0940F2776101FB03F303F5E1
:10508400FA73A2FB03239B09079308F180084FEAF4
:10509400182808FB03FB0BF1800B4FEA1B2B4FEA8C
:1050A40008230A93BAF1000F40F0BA8047B9604B65
:1050B400049A1360C6F840310023059A1360AFE0E8
:1050C400BBF1000F01D14FF0010B2D04B5FBF7F537
:1050D400584B9D4200D91D464FF4167303FB05F54A
:1050E4000BEB4B008000FEF7A3FF4FEA4008B9F832
:1050F4000830514A02FB03F33A04A2EB440404F5DA
:10510400FA744A49A1FB0404A40902F5FA72A1FB4A
:10511400021292092402B4FBF2F2120299F8181056
:10512400A1B94649A1FB03139B0AC2F5803903FBCD
:1051340009F909F500494FEA194909F580394FEA97
:10514400590909FB09F94FEA993901E04FF480390B
:105154004FF4487000FB09F000F50040000C05F521
:1051640000431B0C03FB03F300FB0030FEF760FF5E
:1051740000043230324BA3FB00235B09B3FBF8F38A
:1051840041F2883240F6B53404FB03282D4CA4FBCD
:105194000834640BB4F5704F01D94FF47044089B84
:1051A400099A134403F5FA73DFF88080A8FB0323FC
:1051B4009809DB0903F5C813B3FBF0F0FEF738FFD9
:1051C400000200F5FA70A8FB0030800900FB00F033
:1051D40004FB0400FEF72CFF4FF47A7303FB00F08A
:1051E40037B1BBF1000F05D0114B984204D804E04D
:1051F4000F4802E00E4800E00D48049B1860C6F812
:1052040040014FF4487300930195079B0293059B5B
:10521400039330460A99069A4B46FFF763FE82468B
:105224004FFA8AF00DB0BDE8F08F00BFD34D621085
:10523400AE878F02666666009A990600517BC63770
:105244001F85EB515917B7D12DE9F04F89B00446AA
:1052540017469946139E00238DF81F308DF81E3093
:105264008DF81D308DF81C30ADF80A300193C1F370
:10527400C30575B1052D0FD0072D10D00C2D11D0FD
:105284000D2D12D00E2D13D00F2D14D14FF0010877
:1052940013E04FF0010810E04FF001080DE04FF06B
:1052A40001080AE04FF0010807E04FF0010804E0AC
:1052B4004FF0010801E04FF00008204600210DF1F5
:1052C4001F02FDF739FD03469DF81F20D2B1E0B956
:1052D4002046129906AA01ABFFF77CFE034610B9DB
:1052E400019A12994A819BB92046002105AAFDF72B
:1052F40063FD0346059A72B106998A420ED34FF0B4
:10530400000B0DE04FF0000B0AE04FF0000B07E03C
:105314004FF0000B04E04FF0000B01E04FF0010BE5
:1053240033B9204602210DF11D02FDF705FD0346A8
:105334009DF81D2042B353BB2046022104AAFDF769
:105344003BFD034628B92046FF21012200F014F951
:10535400034633B92046B6210DF10A0200F05EF986
:1053640003462BB92046FF21002200F005F903462D
:10537400BDF80A205202C4F84821049951B18A4266
:105384000BD84FF0000A0AE04FF0000A07E04FF094
:10539400000A04E04FF0000A01E04FF0010A2BB9C3
:1053A4002046032107AAFDF7C7FC03469DF81C20ED
:1053B400AAB1B3B9B9F1000F03D03F02B7FBF9F9B1
:1053C40001E04FF000092046032103AAFDF7F4FC95
:1053D4000346039A3AB1914507D3002706E0002714
:1053E40004E0002702E0002700E001275BBBB8F1DE
:1053F400000F02D0FF23337025E06B1EDBB2022BBB
:1054040002D8052333701EE0062D01D0092D02D1E8
:105414000423337017E0082D04D00A2D02D0BAF10A
:10542400000F02D0032333700DE0042D00D017B118
:105434000223337007E0BBF1000F02D00123337065
:1054440001E00023337033780BB9129A538120465C
:1054540001210DF11E02FDF76FFC034680BB9DF890
:105464001F2022B1BBF1000F03D0012202E0012270
:1054740000E0002284F82E20042D04D09DF81E2084
:105484001AB9012202E0012200E0002284F82F2050
:105494009DF81D2022B1BAF1000F03D0012202E0D1
:1054A400012200E0002284F830209DF81C2012B173
:1054B4001FB1012202E0012200E0002284F8312021
:1054C400184609B0BDE8F08F30B583B00C461346DA
:1054D40002F10A05D0F85C2190F86011009510469D
:1054E40022469BB2FBF78CFC03B030BD10B582B0F2
:1054F4000C4613460A3290F86011D0F85C01009211
:1055040041F0010122469BB2FBF7FCFC02B010BD46
:1055140070B51C463F2B10D80646094D284600F8A6
:10552400011B11461A4600F02BFF30462946621C27
:10553400FFF7CAFF10B1EC2000E0FC2040B270BDC0
:10554400200A002070B582B0064615461C4602AB00
:1055540003F8011D19460122FFF7B6FF30B93046A2
:1055640029462246FFF7C2FF10B902E0EC2000E012
:10557400EC2040B202B070BD08B5054B19705A70EA
:1055840019460222FFF7A0FF00B1EC2040B208BD8B
:10559400200A002008B5064B1970110A59709A7038
:1055A40019460322FFF790FF00B1EC2040B208BD7A
:1055B400200A002030B583B00546144602AB03F838
:1055C400011D19460122FFF77FFF30B92846214605
:1055D4000122FFF78BFF10B902E0EC2000E0EC2081
:1055E40040B203B030BD00BFF0B583B005460C46F1
:1055F40017461E460DF10702FFF7DCFF034650B9BC
:105604009DF807203A4032438DF80720284621466A
:10561400FFF7B2FF034658B203B0F0BD30B583B014
:105624000446154602AB03F8011D19460122FFF793
:105634004BFF60B9204609490222FFF757FF40B9E2
:10564400064A1178537803EB01232B8002E0EC2007
:1056540000E0EC2040B203B030BD00BF200A0020BF
:1056640030B583B00546144602AB03F8011D194654
:105674000122FFF729FF90B928460C490422FFF7BD
:1056840035FF70B9094A117853781B0403EB0163A1
:10569400917803EB0123D2781344236002E0EC20D9
:1056A40000E0EC2040B203B030BD00BF200A00206F
:1056B40008B50220FCF770FA002008BD10B4036A94
:1056C400046A24F001040462846924F0F00444EAC6
:1056D400021223F00A031943826101625DF8044B4C
:1056E400704700BF10B4036A23F010030362846997
:1056F400036A24F4704444EA023223F0A00343EA28
:105704000111826101625DF8044B7047836823F0E4
:10571400700341F007010B438360704710B4846841
:1057240024F47F4442EA032319430C4384605DF864
:10573400044B7047022380F839300268136843F041
:1057440001031360012380F839300020704700BF43
:105754000268D36843F00103D3600268136843F01E
:1057640001031360002070470268D36823F001032B
:10577400D3600368196A41F21112114208D1196AFF
:1057840040F24442114203D11A6822F001021A6025
:105794000020704738B590F83830012B00F0838032
:1057A4000D460446012380F83830022380F839304E
:1057B4000268936823F47F4323F0770393600B68B4
:1057C400402B4CD00AD8102B58D002D8002B50D0E4
:1057D40062E0202B57D0302B5AD05DE0702B12D0D2
:1057E40004D8502B27D0602B2FD055E0B3F5805F21
:1057F40003D0B3F5005F12D04EE00268936823F043
:105804000703936048E0006889686A68EB68FFF7FB
:1058140085FF2268936843F0770393603CE0006857
:1058240089686A68EB68FFF779FF2268936843F434
:105834008043936030E000684968EA68FFF73EFF00
:1058440020685021FFF762FF26E000684968EA6893
:10585400FFF748FF20686021FFF758FF1CE000684D
:105864004968EA68FFF72AFF20684021FFF74EFFE6
:1058740012E000680021FFF749FF0DE000681021E5
:10588400FFF744FF08E000682021FFF73FFF03E033
:1058940000683021FFF73AFF012384F839300020F3
:1058A40084F8380038BD022038BD00BF704700BFFF
:1058B400704700BF704700BF704700BF10B5044673
:1058C40003681A6912F0020F17D0DA6812F0020F97
:1058D40013D06FF002021A610123037603689B69F7
:1058E40013F0030F02D0FFF7E3FF04E0FFF7DEFF3E
:1058F4002046FFF7DFFF0023237623681A6912F09E
:10590400040F19D0DA6812F0040F15D06FF00402F6
:105914001A610223237623689B6913F4407F03D022
:105924002046FFF7C5FF05E02046FFF7BFFF2046EE
:10593400FFF7C0FF0023237623681A6912F0080FCB
:1059440019D0DA6812F0080F15D06FF008021A6146
:10595400042323762368DB6913F0030F03D0204666
:10596400FFF7A6FF05E02046FFF7A0FF2046FFF75C
:10597400A1FF0023237623681A6912F0100F19D0AF
:10598400DA6812F0100F15D06FF010021A610823B4
:1059940023762368DB6913F4407F03D02046FFF7A6
:1059A40087FF05E02046FFF781FF2046FFF782FFCF
:1059B4000023237623681A6912F0010F09D0DA68EC
:1059C40012F0010F05D06FF001021A612046FCF7B6
:1059D40097F823681A6912F0800F09D0DA6812F078
:1059E400800F05D06FF080021A61204600F0CCF8D9
:1059F40023681A6912F0400F09D0DA6812F0400FD8
:105A040005D06FF040021A612046FFF755FF236866
:105A14001A6912F0200F09D0DA6812F0200F05D0AD
:105A24006FF020021A61204600F0ACF810BD00BFF0
:105A34000368314A904210D0B0F1804F0FD0A2F5E4
:105A44007C4290420DD002F5806290420BD002F568
:105A54008062904209D1012208E0012206E001227D
:105A640004E0012202E0012200E000221AB123F046
:105A740070034A681343204A90421CD0B0F1804F0F
:105A84001BD0A2F57C42904219D002F5806290426C
:105A940017D002F58062904215D002F59A329042F6
:105AA40013D002F58062904211D002F580629042D8
:105AB4000FD101220EE001220CE001220AE00122B2
:105AC40008E0012206E0012204E0012202E00122B2
