:020000040800F2
:100000000080012099720008E9720008E972000876
:10001000E9720008E9720008E972000800000000B7
:10002000000000000000000000000000E97200086D
:10003000E972000800000000E9720008252B0008A2
:10004000E9720008E9720008E9720008E972000824
:10005000E9720008E9720008E9720008E972000814
:10006000E9720008E9720008E9720008E972000804
:10007000E9720008E9720008E9720008E9720008F4
:10008000E9720008E9720008E97200080000000047
:10009000000000000000000000000000E9720008FD
:1000A000E9720008E9720008E9720008E9720008C4
:1000B000E9720008312B0008E9720008E9720008B3
:1000C000E9720008E9720008E9720008E9720008A4
:1000D000E9720008452B0008592B000800000000B9
:1000E000E9720008E9720008E972000800000000E7
:1000F000000000000000000000000000E97200089D
:1001000000000000E9720008E9720008E9720008C6
:1001100000000000000000000000000000000000DF
:10012000E9720008E9720008E9720008E972000843
:10013000E97200080000000000000000000000005C
:10014000000000000000000000000000E97200084C
:10015000E9720008E9720008E9720008E972000813
:10016000E9720008E97200080000000000000000C9
:10017000000000000000000000000000000000007F
:1001800000000000E972000800000000000000000C
:04019000E972000808
:1001C000044B05481B1A062B02D9044B03B11847F0
:1001D000704700BFF7070020F40700200000000070
:1001E00005490648091A891001EBD171491002D05E
:1001F000034B03B118477047F4070020F4070020B1
:100200000000000010B5064C237843B9FFF7D8FF73
:10021000044B13B10448AFF300800123237010BDD9
:10022000F407002000000000EC72000808B5084B3D
:100230001BB108490848AFF300800848036813B9A8
:10024000BDE80840CCE7064B002BF9D09847F7E70C
:1002500000000000F8070020EC720008F4070020FE
:100260000000000070B50F4E0F4D761BB61018BF82
:10027000002405D0013455F8043B9847A642F9D133
:100280000A4E0B4D761B07F031F8B61018BF00244C
:1002900006D0013455F8043B9847A642F9D170BD09
:1002A00070BD00BFF8760008F8760008FC760008FC
:1002B000F8760008844641EA000313F003036DD189
:1002C000403A41D351F8043B40F8043B51F8043B19
:1002D00040F8043B51F8043B40F8043B51F8043B20
:1002E00040F8043B51F8043B40F8043B51F8043B10
:1002F00040F8043B51F8043B40F8043B51F8043B00
:1003000040F8043B51F8043B40F8043B51F8043BEF
:1003100040F8043B51F8043B40F8043B51F8043BDF
:1003200040F8043B51F8043B40F8043B51F8043BCF
:1003300040F8043B51F8043B40F8043B51F8043BBF
:1003400040F8043B403ABDD2303211D351F8043B5F
:1003500040F8043B51F8043B40F8043B51F8043B9F
:1003600040F8043B51F8043B40F8043B103AEDD20E
:100370000C3205D351F8043B40F8043B043AF9D25F
:10038000043208D0D2071CBF11F8013B00F8013B32
:1003900001D30B8803806046704700BF082A13D33F
:1003A0008B078DD010F003038AD0C3F10403D21A57
:1003B000DB071CBF11F8013B00F8013B80D331F88B
:1003C000023B20F8023B7BE7043AD9D3013A11F80B
:1003D000013B00F8013BF9D20B7803704B78437076
:1003E0008B7883706046704770B4840746D0541E83
:1003F000002A41D0CDB2034602E0621EE4B31446A7
:1004000003F8015B9A07F8D1032C2ED9CDB245EA47
:1004100005250F2C45EA054519D903F1100226469A
:10042000103E0F2E42F8105C42F80C5C42F8085C5B
:1004300042F8045C02F11002F2D8A4F1100222F09A
:100440000F0204F00F041032032C13440DD91E4682
:100450002246043A032A46F8045BFAD8221F22F007
:1004600003020432134404F003042CB1C9B21C4447
:1004700003F8011BA342FBD170BC7047144603462E
:10048000C2E700BF0CB4F0B59DB022AC029154F8A5
:10049000042B069123466FF000454FF402774FF688
:1004A000FF7602A90194ADF8147004950795ADF894
:1004B000166000F019FA029B00221A701DB0BDE808
:1004C000F04002B0704700BF0EB4F0B59CB021AB55
:1004D0000F4953F8042B019305466FF00044086858
:1004E00002954FF402774FF6FF7602A90695ADF814
:1004F000147004940794ADF8166000F0F5F9029BAF
:1005000000221A701CB0BDE8F04003B0704700BF75
:1005100000000020830710B5044610D10268A2F144
:10052000013323EA020313F0803F08D150F8042F6F
:10053000A2F1013323EA020313F0803FF6D00378DF
:100540001BB110F8013F002BFBD100F003F820464F
:1005500010BD00BF80EA0102844612F0030F4FD1A4
:1005600011F0030F32D14DF8044D11F0040F51F882
:10057000043B0BD0A3F101329A4312F0803F04BF39
:100580004CF8043B51F8043B16D100BF51F8044B22
:10059000A3F101329A4312F0803FA4F101320BD152
:1005A0004CF8043BA24312F0803F04BF51F8043BD7
:1005B0004CF8044BEAD023460CF8013B13F0FF0F34
:1005C0004FEA3323F8D15DF8044B704711F0010F67
:1005D00006D011F8012B0CF8012B002A08BF704738
:1005E00011F0020FBFD031F8022B12F0FF0F16BF2F
:1005F0002CF8022B8CF8002012F47F4FB3D17047F7
:1006000011F8012B0CF8012B002AF9D1704700BF1B
:1006100000000000000000000000000000000000DA
:1006200000000000000000000000000000000000CA
:1006300000000000000000000000000000000000BA
:1006400090F800F06DE9024520F007016FF0000C12
:1006500010F0070491F820F040F049804FF00004BA
:100660006FF00700D1E9002391F840F000F1080095
:1006700082FA4CF2A4FA8CF283FA4CF3A2FA8CF3CD
:100680004BBBD1E9022382FA4CF200F10800A4FA34
:100690008CF283FA4CF3A2FA8CF3E3B9D1E9042388
:1006A00082FA4CF200F10800A4FA8CF283FA4CF3BF
:1006B000A2FA8CF37BB9D1E9062301F1200182FA79
:1006C0004CF200F10800A4FA8CF283FA4CF3A2FA7F
:1006D0008CF3002BC6D0002A04BF04301A4612BA8D
:1006E000B2FA82F2FDE8024500EBD2007047D1E990
:1006F000002304F00305C4F100004FEAC50514F01F
:10070000040F91F840F00CFA05F562EA05021CBFEF
:1007100063EA050362464FF00004A9E72DE9F84FAC
:100720008E689E420C461F46904629D88B8913F44A
:10073000906F35D04D692268096905EB4505C1EB1D
:10074000020A814605EBD5750AF101006D103844A7
:10075000A8422A4684BF05462A465B0523D5114692
:10076000484600F0BFFC834690B352462169FFF72C
:10077000A1FDA38923F4906343F08003A38117E0D4
:1007800008681E461D462A46414600F001FCA36843
:1007900022689E1B1544A66025600020BDE8F88FE6
:1007A00035460868EFE7484600F0FAFC834658B142
:1007B000CAEB05030BEB0A0065613E46C4F810B0B6
:1007C0002060A3603D46DEE72169484600F044FC16
:1007D0000C23C9F80030A38943F04003A3814FF0F4
:1007E000FF30BDE8F88F00BF2DE9F04F936883B06C
:1007F0009046002B72D083464FF0000916680868B7
:100800008B680D464C46002C45D09C421F469A46AC
:1008100046D3AB8913F4906F2DD06F69296907EB2C
:100820004707C1EB000A07EBD777601C7F105044E5
:10083000B8423A4684BF07463A465B0533D511466F
:10084000584600F04FFC002837D0524629690190E5
:10085000FFF730FDAA89019B22F4906242F08002EA
:10086000AA81CAEB070203EB0A006F612B612860C3
:10087000AA602746A2465246494600F089FBD8F8AE
:100880000820AB682868DB1B5044141BAB60286051
:10089000C8F8084014B3D6F8009074680836B2E778
:1008A0002746A246E7E7584600F07AFC03460028B0
:1008B000D7D12969584600F0CFFB0C23CBF8003084
:1008C000AB89002243F040034FF0FF30AB81C8F802
:1008D0000820C8F8042003B0BDE8F08F0020C8F855
:1008E000040003B0BDE8F08F2DE9F04F14468A896B
:1008F0009DB0150688460393814603D50B69002BEE
:1009000000F0EC8030238DF82A3023787C4DDFF81E
:10091000F4A10021202209918DF82920002B00F05C
:100920008580252B264603D117E0252B00F08880F3
:1009300016F8013F002BF8D1B6EB040B76D0224617
:100940005B4641464846FFF7E9FE01306ED0099B01
:1009500032785B440993002A68D000234FF0FF31BE
:10096000721C0493079306938DF853301A930591E4
:10097000012604E0049906FA03F30B43049314469A
:100980005F482178052200F0B3FA621C431B00285F
:10099000F0D1049BD80644BF20228DF853201907BC
:1009A000217844BF2B228DF853202A296AD0A1F147
:1009B0003002092A0BD8079B14F8011F03EB8303AD
:1009C00002EB4303A1F13002092AF5D907932E293E
:1009D00041D003224B4800F08BFA48B10499CAEB8E
:1009E0000000402202FA00F041EA000301340493BF
:1009F000217845488DF828100622013400F078FA55
:100A0000002861D0414BFBB103AB00934246404B01
:100A100004A94846AFF3008007467A1C06D0099B1C
:100A20003B4409932378002B7FF47BAFB8F80C305C
:100A30005B0654BF09984FF0FF301DB0BDE8F08F42
:100A4000B6EB040B89D07AE7039B073323F0070347
:100A500008330393E3E761782A291DD0A1F130021E
:100A60000023092A04F101040593B2D814F8011FE8
:100A700003EB830302EB4303A1F13002092AF5D90A
:100A80000593A6E7039A116804320029039215DB47
:100A90000791617801349AE7039B1A680592002A4E
:100AA00003F104030393B8BF4FF0FF3204F10203D4
:100AB000AEBFA178A17805921C468AE7494243F06F
:100AC000020307910493E4E703AB00934246104B03
:100AD00004A9484600F0B6F807469EE7402100F01A
:100AE00001FBC8F80000C8F8100018B14023C8F88E
:100AF000143007E70C23C9F800304FF0FF309CE7B3
:100B0000BC760008C4760008C87600080000000023
:100B10001D0700082DE9F0470C4691460969A268B7
:100B2000DDF820808A42B8BF0A46C9F8002094F850
:100B3000431006461F4611B10132C9F80020236850
:100B400099065DD5D9F800200232C9F80020236843
:100B500013F0060F19461DD1E1688A1A002AD8BF82
:100B6000194617DD04F1190A002505E0E368D9F8F4
:100B700000209B1AAB420CDD012352463946304619
:100B8000C047013005F10105F0D14FF0FF30BDE85D
:100B9000F087216894F84330003318BF01238A0698
:100BA0000AD5E1185A1C302081F84300224494F8F9
:100BB000451082F84310023304F1430239463046AF
:100BC000C0470130E1D0236803F00603042B29D08D
:100BD000A36822699342C8BF4FF000092FDD9B1A1A
:100BE00099441A34002501E04D4528D001232246BE
:100BF00039463046C047013005F10105F4D1C4E75C
:100C000013F0060F08D1E168D9F800208A1A002AEB
:100C1000D8BF1946A6DCBDE794F84330003318BFAF
:100C20000123C9E7D9F80000E168A3682269091A1D
:100C3000934221EAE179D2DCB9F1000FD1D1002051
:100C4000BDE8F0872DE9F0430C46097E85B06E299A
:100C5000064617460C98984604F1430C5AD01AD809
:100C6000632900F0128100F2D68000295CD0582957
:100C700040F0F58084F8451022680368DFF864E2EC
:100C8000150603F104011ED4550653BF1B6801600D
:100C90001B88016019E0732900F0CF807ED86F298E
:100CA00000F0E480702940F0DA80226842F02002EF
:100CB0002260782384F845300368DFF82CE21506BB
:100CC00003F10401E0D51B680160D00744BF42F086
:100CD00020022260002B40F09080226822F0200247
:100CE00022601021002284F843206068A060002860
:100CF000C0F28880226822F004022260002B62D1B8
:100D0000002840F08180654608296AD0C5EB0C03B5
:100D100023610CE023681A0640F1D58003686269FC
:100D2000191D01601B681A60002365462361CDF818
:100D300000803B4603AA21463046FFF7EBFE013018
:100D400021D02A46236939463046C04701301AD09F
:100D50002368039813F0020FE36819D01A1A002AC7
:100D600016DD04F11909002504E0E36803981A1A56
:100D7000AA420DDD01234A4639463046C0470130BC
:100D800005F10105F1D14FF0FF3005B0BDE8F0836A
:100D90009842B8BF184605B0BDE8F083752965D004
:100DA00078295CD1226884E76168A1602D20002940
:100DB000C3F1000384F8430021DB22F00402DFF8D2
:100DC00024E122600A216546B3FBF1F201FB1230F7
:100DD00013461EF8002005F8012D002BF4D1082938
:100DE00094D12368D90791D5626823699A428DDC32
:100DF000302305F8013C013D88E7102172E7DFF858
:100E0000E4E00A21002BDED19EF8003084F8423065
:100E100004F1420578E7642901D069291FD12268CD
:100E20000368150603F104013AD51B680160002B25
:100E3000BADBDFF8B0E00A2157E703686268191DE2
:100E400001601D680021284600F052F8002846D0B5
:100E5000401B60602061002384F8433067E7012372
:100E600084F84210236104F14205F4E723681A066E
:100E70001ED503681A1D1B680260227EDFF864E03D
:100E80006F2A14BF0A2108212CE703681A68191D6C
:100E90000123016004F1420584F842202361DAE76E
:100EA000550653BF1B680160B3F900300160BEE70F
:100EB00013F0400F036803F1040215BF02601B68C2
:100EC0001B880260D9E713F0400F0368626903F1E1
:100ED000040101601B6814BF1A801A6024E760686F
:100EE000B8E700BFD0760008E476000800000000F4
:100EF00001F0FF01102A2BDB10F0070F08D010F8CB
:100F0000013B013A8B422DD010F0070F42B3F6D1CE
:100F1000F0B441EA012141EA014122F007047FF0E7
:100F200000070023F0E80256083C85EA010586EA3E
:100F3000010685FA47F5A3FA87F586FA47F6A5FA7A
:100F400087F68EB9EED1F0BC01F0FF0102F0070286
:100F500032B110F8013B013A83EA010313B1F8D131
:100F60000020704701387047002D06BF3546033812
:100F7000073815F0010F07D1013015F4807F02BF4B
:100F8000013015F4C03F0130F0BC0138704700BF9C
:100F90008842F0B50DD98B1898420AD28118002AE0
:100FA00051D09A1A13F8014D01F8014D9342F9D12D
:100FB000F0BD0F2A48D941EA00039B0746D100F152
:100FC000100401F11003154653F8106C44F8106C2E
:100FD00053F80C6C44F80C6C53F8086C44F8086C2B
:100FE000103D53F8046C44F8046C0F2D03F110030A
:100FF00004F11004E8D8A2F1100323F00F0302F06B
:101000000F0E1033BEF1030F1944034421D91E1FE4
:101010000D467446043C55F8047B46F8047F032CC7
:10102000F8D8AEF1040424F003040434234421442A
:1010300002F0030262B1013B0A4411F8014B03F8CC
:10104000014F8A42F9D1F0BD0346F3E70346F2E7C8
:10105000F0BD7246EEE700BF30B481B151F8043CF8
:101060000439002BB8BFC9181D4B1A682AB18A422F
:101070000AD908680C18A24225D04A60196030BC11
:1010800070478B4203D81A465368002BF9D1146875
:1010900015198D420CD007D808680C189C4218D03E
:1010A0004B6030BC516070470C23036030BC70470C
:1010B00009680C44111999421460E0D10ACB0C4420
:1010C00053601460DBE7146852684A60204408608B
:1010D000D4E71C685B684B60204408605160CEE731
:1010E0001008002070B5CD1C25F0030508350C2D27
:1010F00038BF0C25002D06463BDBA94239D82749CD
:101100000A6852B113685B1B04D436E023685B1B8A
:101110001AD522465468002CF8D149681F4C002982
:1011200036D02946304600F05FF8431C21D0C41C5D
:1011300024F00304A04205D0211A304600F054F8F0
:10114000013016D0256004E00B2B0DD923601C4420
:10115000256004F10B0020F00700231DC31A02D004
:101160005A42E25070BD70BD94420ED06368536025
:10117000EFE70C233360002070BD0B2B03D85368BE
:1011800014460B60E5E71446E0E713461446F8E71B
:10119000304600F029F86060C3E700BF1008002067
:1011A000F9B1F8B506461546B2B10C4600F02EF876
:1011B000854201D82046F8BD29463046FFF792FF08
:1011C000074668B12A462146FFF774F830462146A3
:1011D000FFF742FF3846F8BDFFF73EFF2846F8BD4F
:1011E000F8BD1146FFF77EBF38B5074C0023054612
:1011F0000846236000F014F8431C00D038BD236873
:10120000002BFBD02B6038BD600A002051F8040C85
:101210000028BEBF091851F8043CC01804387047B4
:10122000044A05491368002B08BF0B461844106098
:101230001846704718080020680A0020C3681A780A
:10124000FF2A03D10133C360014B0360704700BF25
:1012500055120008C3681A78FF2A04D10133C3600D
:10126000034B03607047034B03608368C3607047A0
:10127000791200083D120008C3681A78FD2A04D1CB
:101280000133C360034B03607047034B0360836803
:10129000C36070479D1200083D120008C3681A78A9
:1012A000FD2A04D00133C360034B03607047034B36
:1012B00003608368C3607047C11200083D120008D4
:1012C000C3681A78FF2A06D0FD2A04D00133C36010
:1012D000034B03607047034B03608368C360704730
:1012E000E91200083D120008C36813F8012B828040
:1012F000C360014B03607047FD120008C26811789B
:10130000838843EA01239BB28380032B07D90733E9
:10131000202B04DC0132C260034B03607047034B97
:1013200003608368C3607047311300083D120008F2
:10133000C3681A78552A07D18288013A828001331E
:10134000C360044B03607047034B03608368C36052
:10135000704700BF5D1300083D120008C3680133E9
:10136000C3608388013B9BB283800BB90123037464
:10137000704700BF70B5ADF5007D04460E461546BA
:101380004FF400720A496846FEF794FF002309E013
:10139000F25C82EA14223DF8122082EA0424A4B20C
:1013A00001339BB2AB42F3D320460DF5007D70BDF7
:1013B00004730008F8B505460C468B1813F8017C39
:1013C000023A8E188B5C43EA072792B20020FFF79F
:1013D000D1FF874205D04FF48072194B1A8001204B
:1013E000F8BD23792B70237A6B70E71D04F1090295
:1013F0000023AB7020E0AB78591CA970511C107809
:101400002B44D870CB1B032B15D13B78FF2B11D16C
:101410007B78FF2B0ED1BB78FD2B0BD15378FD2BA6
:1014200005D04FF48072064B1A800120F8BD971C3E
:10143000394600E001370A46B242DCD10020F8BD4F
:101440001C080020F8B5202903D90120224B188060
:10145000F8BD17460D4604468368012098471F4B88
:1014600023610023A38204F12406A661E66184F8C7
:10147000203063683A4629463046984728B140F202
:101480000112154B1A800120F8BD204650F8103F7C
:101490009847E369A269934203D094F82010012988
:1014A000F3D194F8201029B94FF480720A4B1A80B6
:1014B0000120F8BD9B1A9BB29D4205D04FF480726B
:1014C000054B1A800120F8BD2A46314604F144003C
:1014D000FFF770FFF8BD00BF1C0800203D12000898
:1014E00028B1024643680BB9837803B919B90020C3
:1014F0002C4B188070471378FD2B01D0FF2B03D1A4
:101500000020284B1880704770B5937803F10A00CB
:10151000254CA4FB034300EB5303202B04DD0122E5
:10152000204B1A80002070BDFF230B704B70FD23F1
:101530008B700023CB7010780871CD1D01F1080469
:101540005078C87117E0601C5668F65C2670461B20
:10155000032E0ED12E78FF2E0AD16E78FF2E07D1E2
:10156000AE78FD2E04D1A01CFD256570054600E077
:1015700001350133044690788342E4DB0D46621A5C
:1015800092B2531F9BB24B711B0A8B710020FFF765
:10159000F1FE214601F8020B000A6070481BC0B240
:1015A00070BD00BF1C080020ABAAAAAAF8B504466B
:1015B0000846174604F124052946FFF791FF78B144
:1015C0000646A3680020984723683A46B1B22846E9
:1015D0009847012806D140F20112034B1A80F8BD4A
:1015E0000120F8BD0020F8BD1C080020436893F8D6
:1015F000450010F03F0004D040F40070014B18800B
:10160000012070471C08002020B90022114B1A80CD
:101610000120704710B582B0044603788DF8003081
:1016200001228DF8012000238DF8023001936946D4
:101630004068FFF7BBFF012809D001220E21606836
:10164000FFF700FF012802D02046FFF7CFFF02B0CE
:1016500010BD00BF1C08002070B582B00E461546B4
:101660001C460190002323808DF8003012E068466C
:10167000FFF7CAFF48B923885A1C228006EBC30330
:1016800002AA12E9030083E803009DF80030013349
:101690008DF800309DF80030FC2B03D82288ABB2C7
:1016A0009A42E4D32088B0FA80F0400902B070BDBD
:1016B0001E2904D90022224B1A800120704770B5E0
:1016C00084B01546044603788DF8083002238DF85F
:1016D000093004238DF80A301A4B5B5C8DF8043016
:1016E00000238DF80530184A565C8DF806608DF899
:1016F000073001AB0393012202A94068FFF756FFB0
:1017000001281BD0012206F10B016068FFF79AFE49
:10171000012813D02046FFF769FF01280ED0636827
:1017200093F847302B80022E07D1626892F8482048
:1017300043EA02232B80002000E0002004B070BDAB
:101740001C0800200C7500082C75000808B50A4616
:101750001E21FFF7ADFF08BD10B582B0436893F8B6
:101760004530DC090CD00DF10601FFF7EFFF012831
:1017700007D0BDF8063043F48063034A138000E0CD
:101780000024204602B010BD1C08002038B59DF88A
:10179000105080B304461E292FD81A48405C1A49BD
:1017A0000870002048708A70120ACA702178174A9F
:1017B00011700DB1032200E0042214494A70023373
:1017C0008B70114B4B6001226068FFF7EFFE012820
:1017D00016D001220B216068FFF734FE01280FD0DC
:1017E0002046FFF7B9FF01280AD02046FFF7FEFE8A
:1017F000012804D138BD012038BD012038BD0020AA
:1018000038BD00BF0C750008200800202408002007
:1018100000B583B0009101231A460E21FFF7B6FFF1
:1018200003B05DF804FB00BF072904D90022084B70
:101830001A800120704700B583B013460A46009312
:1018400001230F21FFF7A2FF03B05DF804FB00BFE7
:101850001C08002070B50446FFF7D6FE012822D0F0
:10186000636893F845300BB9022600E00126002595
:1018700015E0012231462046FFF7D6FF6368DB689A
:101880004FF4FA709847012200212046FFF7CCFF61
:101890006368DB684FF4FA7098470135EDB223783E
:1018A0009D42E6D3002070BD074AD36823F4E0636D
:1018B0001B041B0C000200F4E060184340F0BF6002
:1018C00040F40030D060704700ED00E030B4164BBB
:1018D000DB68C3F30223C3F10704042C28BF0424EC
:1018E0001D1D062D01D9033B00E00023012505FA4B
:1018F00004F4013C2140994005FA03F3013B1A40EE
:101900000A43002806DA00F00F001201D2B2074B9A
:101910001A5407E01201D2B200F1604000F56140B4
:1019200080F8002330BC704700ED00E014ED00E0CB
:10193000420900F01F00012303FA00F0014B43F8B5
:101940002200704700E100E00138B0F1807F0AD248
:10195000064B5860F021064A82F823100020986058
:1019600007221A6070470120704700BF10E000E0B6
:1019700000ED00E0430900F01F00012202FA00F030
:101980006033024A42F82300704700BF00E100E0E4
:10199000704700BF08B5FFF7FBFF08BD0F49D1F83E
:1019A000883043F47003C1F888300D4B1A6842F058
:1019B00001021A60002098601A6822F0847222F4F2
:1019C00080321A60074A5A601A6822F480221A602C
:1019D000D8604FF000638B60704700BF00ED00E0FF
:1019E0000038024010300024F8B504460D46164673
:1019F00001F084F8074627E023685A6912F4806FE3
:101A000011D01A6842F400721A6023686FF4806281
:101A10005A61042384F83630012084F8350000230D
:101A200084F83430F8BDB6F1FF3F0DD026B101F097
:101A300065F8C01B864207D2012384F835300023A5
:101A400084F834300320F8BDC5F30743012B08D1D7
:101A500023685B6925EA03039BB2003318BF0123A7
:101A600007E023689B6925EA03039BB2003318BF94
:101A70000123002BC0D10020F8BD00BF2DE9F041AB
:101A800006460C4690461D4601F038F80746B8F168
:101A9000000F12D03DE0B5F1FF3F0ED025B101F0AF
:101AA0002DF8C01B854208D2012386F8353000236B
:101AB00086F834300320BDE8F081C4F30743012BDE
:101AC00008D133685B6924EA03039BB2003318BF73
:101AD000012307E033689B6924EA03039BB20033C8
:101AE00018BF0123002BD6D10020BDE8F081B5F14D
:101AF000FF3F0ED025B101F001F8C01B854208D28E
:101B0000012386F83530002386F834300320BDE801
:101B1000F081C4F30743012B08D133685B6924EAE1
:101B200003039BB2B3FA83F35B0907E033689B6955
:101B300024EA03039BB2B3FA83F35B09002BD6D1EB
:101B40000020BDE8F08100BF70B504460E46154682
:101B50000268136843F4807313602B4600224FF031
:101B60000111FFF78BFF68BB2369B3F5804F04D1E8
:101B7000236806F0FE061E6116E02268F31103F0EA
:101B8000060343F0F00313612A4612492046FFF78B
:101B90002BFF30B194F83630DBB2042B14D1012383
:101BA00015E02368F6B21E612A460B492046FFF76E
:101BB0001BFF034658B194F83630DBB2042B05D135
:101BC000012304E0032302E0032300E0032318467B
:101BD00070BD00BF0800010002000100F8B5044616
:101BE0000E4615460268136843F48063136002686A
:101BF000136843F4807313602B4600224FF00111E9
:101C0000FFF73CFF00284ED12369B3F5804F05D183
:101C1000236846F00106F6B21E6136E02368F7112C
:101C200007F0060747F0F0021A612A4623492046CA
:101C3000FFF7DAFE30B194F83630DBB2042B34D142
:101C4000012339E02368F6B21E612A461C4920466A
:101C5000FFF7CAFE30B194F83630DBB2042B26D140
:101C6000012329E023685A699A691A6842F480724C
:101C70001A602B4600224FF001112046FFF7FEFEAE
:101C8000B8B9236847F0F1071F612A460C4920467E
:101C9000FFF7AAFE034678B194F83630DBB2042B86
:101CA00009D1012308E0032306E0032304E0032312
:101CB00002E0032300E003231846F8BD08000100FA
:101CC0000200010000287DD038B5044690F8353078
:101CD00013F0FF0F01D100F067FF022384F83530C5
:101CE0002268136823F00103136001F059FC364B9E
:101CF000A3FB00239B0C2268536021686568334A6C
:101D0000954201D8013308E04FF4967202FB03F3C9
:101D10002F4AA2FB03239B0901330B6221686368EE
:101D20002A4A934208D85B00B0FBF3F0C0F30B03E0
:101D3000032B2BD8042029E0A5684DB903EB4302FF
:101D4000B0FBF2F2C2F30B02B2FA82F252090AE0DD
:101D500003EB830202EB8202B0FBF2F2C2F30B024E
:101D6000B2FA82F2520982B935B903EB4303B0FBF0
:101D7000F3F040F4004009E003EB830303EB83033B
:101D8000B0FBF3F040F4404000E00120C86122685D
:101D9000E169236A0B43136022682169E3680B43FE
:101DA000936022686169A3690B43D360226813685A
:101DB00043F001031360002084F83600012384F807
:101DC000353038BD0120704783DE1B43A0860100FB
:101DD000D34D621070B51E4690F83530DBB2012B42
:101DE00066D104461546002A64D0002E64D00368EC
:101DF0009B6913F0020F61D190F83430012B5FD052
:101E0000012380F83430122380F83530002380F825
:101E10003630049AFFF798FE70B194F83630DBB292
:101E2000042B04D1002384F8343001234FE0002335
:101E300084F8343003234AE023685A699B691AE026
:101E4000049B002223492046FFF718FE002839D1C1
:101E500023686A1C29781961731E9BB2216848693E
:101E600010F0040F05D023B1AA1C6B780B61B31ED0
:101E70009BB21E461546002EE2D1049B0022154956
:101E80002046FFF7FBFDF8B92268136843F400739E
:101E90001360049B012210492046FFF7EFFD034623
:101EA000A0B9012284F83520002284F834200EE005
:101EB00002230CE001230AE0012308E0022306E0EC
:101EC000022304E0032302E0032300E00323184677
:101ED00070BD00BF800001000200100070B51D46FB
:101EE00090F83530DBB2012B40F0DE800446164618
:101EF000002A00F0DB80002D00F0DA8003689B6987
:101F000013F0020F40F0D68090F83430012B00F02F
:101F1000D380012380F83430222380F83530002329
:101F200080F83630049AFFF759FE70B194F83630D5
:101F3000DBB2042B04D1002384F834300123C8E041
:101F4000002384F834300323C3E0012D0CD1226830
:101F5000136823F48063136023685A699A691A68C6
:101F600042F400721A6089E0022D0DD122681368D4
:101F700023F4806313602268136843F400631360E2
:101F800023685A699B6979E02268136843F4806387
:101F9000136023685A699B6970E0032D53D8012DA3
:101FA0000FD1049B00224C492046FFF767FD002813
:101FB00040F0848023681B693370013DADB2013667
:101FC0005CE0022D18D1049B002244492046FFF713
:101FD00055FD002874D12268136843F40073136020
:101FE00023681A69334603F8022B2268126972705B
:101FF000023DADB21E4641E0049B00223749204617
:10200000FFF73CFD00285DD12268136823F480634C
:10201000136023681B693370049B00222F492046FC
:10202000FFF72CFD00284FD12268136843F400739A
:10203000136023681B69737023681B69B370033DC9
:10204000ADB203361AE0049B002223492046FFF775
:1020500015FD00283AD1701C23681B6933706B1E74
:102060009BB22268516911F0040F05D01369737097
:10207000023DADB2023601E01D460646002D8CD170
:102080002268136823F400631360049B012214493F
:102090002046FFF7F3FC0346D0B9012284F835202F
:1020A000002284F8342014E0022312E0012310E01F
:1020B00001230EE002230CE002230AE0032308E0E0
:1020C000032306E0032304E0032302E0032300E0EC
:1020D0000323184670BD00BF40000100040001004A
:1020E0000200100008B500F00FFD08BD08B513464A
:1020F0000A460146034804F0C5FE003018BF01201F
:1021000008BD00BF5409002008B5B0FA80F252099A
:102110004FF40071014800F0BDFE08BD0008024008
:1021200008B513460A460146034804F021FF003073
:1021300018BF012008BD00BF540900202DE9F0415F
:1021400086B0324B1A6B42F004021A631A6B42F0EB
:1021500080021A631A6B42F001021A631A6B42F092
:1021600002021A631A6B42F008021A634FF400531A
:102170000193002402940394254E01A9304600F0F7
:102180009DFD41F6FF53019303250295039401A998
:10219000304600F093FD22464FF40071304600F0C7
:1021A00079FE49F6D313019302950394DFF86C800E
:1021B00001A9404600F082FD2023019301270297E8
:1021C0000394049401A9404600F078FD4FF2F743D0
:1021D00001930295039401A90E4800F06FFD4FF49E
:1021E0000073019302970394049401A9304600F010
:1021F00065FD04230193029503940DEB030106484A
:1022000000F05CFD06B0BDE8F08100BF0038024080
:102210000008024000040240000C0240000002409E
:1022200030B593B0174A136C43F080531364A2F592
:10223000E432136823F4404343F400431360022460
:1022400006940123099306230A930C9400250D9507
:1022500010230E934FF4A8730F93042310930723B6
:10226000119306A800F020FE052301930294039524
:102270004FF4805304930595214601A801F000F81E
:1022800013B030BD0038024008B50948094B03605F
:10229000094B436000238360C3604FF480420261B6
:1022A00043618361C3610362FFF70CFD08BD00BF9A
:1022B0003C08002000540040801A060030B587B06A
:1022C0000F4C104B23604AF20F4363600025A5605A
:1022D00040F2E733E3602561204604F0EDFB06A9F8
:1022E0004FF4805341F8103D204604F033FA009536
:1022F00001956946204604F0F7FB07B030BD00BFEA
:10230000B00800200004004008B50848084B0360EE
:102310004FF4E133436000238360C36003610C2208
:1023200042618361C36104F07FFD08BD9009002014
:102330000044004008B50848084B0360084B436060
:1023400000238360C36003610C2242618361C36127
:1023500004F06AFD08BD00BF5409002000100140D0
:1023600040420F0010B5044C204604F0C3F9236826
:1023700000225A6210BD00BF7408002008B54FF457
:102380000051024800F07EFD08BD00BF0008024079
:1023900010B500F0B3FB044608E000F0AFFB001BF3
:1023A000B0F57A7F02D9084801F0CCFAFFF7E6FFD2
:1023B0000028F2D000F0A2FB001BB0F57A7F94BF9A
:1023C0000020012010BD00BF4C75000800B585B08D
:1023D000024604496846FEF777F8684601F0B2FA0B
:1023E000FEE700BF547500082DE9F04182B00746B2
:1023F0004F4B93E8030000908DF8041000244D4BE0
:102400001C6004E00021204601F054FA0134022C43
:10241000F8DD002560E04FF4C874474B04FB053439
:10242000522384F860310023C4F868310121D4F8C4
:10243000640101F03FFA0646022000F065FB05F159
:102440002A034FEA430826B900228821204604F0D7
:1024500071F80DF10602C021204604F0BDF80346D4
:10246000A0BBBDF806204EF6AA639A422DD15FFAB2
:1024700088F84146204601F09BFA034630BB4FF4F2
:10248000C8732D4A03FB052383F860810DF1060212
:10249000C021204604F0A0F80346B8B9204601F058
:1024A0000DFD034690B94FF4C872234902FB051194
:1024B0000122C1F868211F48016811440160AA4047
:1024C0001E49086802430A6000E001231BB1002195
:1024D000284601F0EFF90135022D9CDDB7B922E065
:1024E0004FF4C872144902FB0312D2F868215AB1A2
:1024F0005A1C4FF4C871104801FB030191F8611197
:1025000002A8024402F8081C013300E00023022B59
:10251000E6DD02A8202300F8083D01F013FA4FF48D
:102520007A7000F0F1FA034B186802B0BDE8F08150
:102530005C7500082C080020680000203808002086
:102540002DE9F04F85B006464FF00A0B4FF00E0A0A
:1025500048F2E8094FF490184FF48047002477E0E0
:102560004FF4C8733D4A03FB0423D3F86831002BB2
:102570006DD04FF4C87303FB0425284602F026F8FB
:102580000DF10E020DF10F01284601F06FFD0DF166
:10259000070202A9284602F029F90021284601F085
:1025A0000DFA01220021284601F03AFB01221146D2
:1025B000284601F035FB012E0DD0BEB1022E1FD1F1
:1025C0004FF00A0B4FF00E0ADFF894904FF490187A
:1025D0004FF4804714E04FF00A0B4FF00E0A44F618
:1025E00020694FF400184FF4804709E04FF00E0BBC
:1025F0004FF0120A48F2E8094FF4701841F69917A3
:102600003A460121284601F065FB42460021284652
:1026100001F060FB4946284601F0F8F952460021D6
:10262000284601F0FBF95A460121284601F0F6F947
:102630000DF10E020DF10F01284601F017FD4FF4C8
:10264000C873064A03FB04230122C3F87C2101342A
:10265000022C85DD05B0BDE8F08F00BF68000020CA
:10266000400D03000B7E5BB9D0F87831074A126841
:10267000934207DB064A1268934205DA3D20704711
:102680002D2070475F2070477E207047280500206E
:102690002C0500200B7ECBB9D0F87C3133B1002360
:1026A000C0F87C310B89C0F87831704710B4D0F88D
:1026B00078310A4A1468C4F58072098902FB01F274
:1026C00004FB03231B12C0F8783103E00123C0F898
:1026D0007C3170475DF8044B704700BF180500203F
:1026E0000B68062B12D170B50D460446084E3046D5
:1026F00004F01AF8336860001330D862304604F0F2
:1027000007F83268002353622B6070BD704700BF2A
:10271000B008002070B584B004460D460368262B2F
:1027200004DC194901A8FDF7CFFE05E0272B03D1F2
:10273000164901A8FDF7C8FE01A92846FDF7EAFEE3
:102740002368272B1DD12846FDF77AFF104E4FF442
:102750007A7382B22946304604F094FB04A90A2316
:1027600021F8103D4FF47A730122304604F08AFBC1
:102770004FF0FF33236000232B704FF47A7000F08A
:10278000C3F904B070BD00BF647500086875000827
:10279000900900202DE9F043ADB0054600242994AE
:1027A00028948DF800400846FFF7CAFE27462646C3
:1027B000234611E045FA03F212F0010F0BD04FF45B
:1027C000C872524902FB0312D2F868211AB10136CD
:1027D000012E00D11F460133022BEBDD002E00F04D
:1027E0009080012E33DD4A4B93E803002A908DF848
:1027F000AC10002428E04FF4C873444A03FB0423C0
:10280000D3F86831FBB145FA04F313F0010F1AD085
:102810004FF4C87303FB04283E49404601F00AFE0A
:1028200010B10220FFF7D2FDDFF8E890494640469C
:10283000FFF730FF49464046FFF714FF631C2CAA00
:10284000134403F8080C0134022CD4DD4AE04FF4A1
:10285000C8732E4C03FB07442E49204601F0EAFDC5
:1028600000283CD1DFF8AC8041462046FFF712FF3C
:1028700098F818301BBB299B01332993A046D4F844
:102880007831254C84FB0312DB17C3EBA2022349EA
:102890002AA8FDF719FED8F8783184FB0324DB174A
:1028A000C3EBA40429A92046FFF71AFF2246694674
:1028B00028A8FFF72FFF289B0133289312E0184B1D
:1028C00093E803002A908DF8AC104FF4C8730F4AB8
:1028D00003FB072393F861318DF8A83002E0012053
:1028E000FFF774FD2AA801F02DF8FFF747FD002837
:1028F0007FF477AFFFF74CFD0A4B1B6800225A624A
:1029000001E04FF0FF302DB0BDE8F08368000020FB
:102910005C750008CC090020676666666C75000867
:1029200074750008B008002008B5FFF75DFD0028A9
:1029300005DD012807D1044BD3F8F8321BB94FF05D
:10294000FF30FFF743FD08BD6800002070B586B07A
:1029500000F0B2F8FFF764FCFFF7F0FBFFF760FC54
:10296000FFF792FCFFF7AAFCFFF7CEFCFFF7E2FCB3
:1029700000F052FF334800F0E5FF4FF4257000F0FF
:10298000C3F80120FFF7D0FF2F4803F0C1FE2F4D01
:102990002F4B2B602F4BAB602F4B6B602F4BEB60A3
:1029A0004FF47A7000F0B0F82D4B04AE93E80300BA
:1029B00086E80300002406AB23F8124D012202A989
:1029C0002846FEF749FE02A8FEF744FF4FF47A704E
:1029D00000F09AF801213046FEF71AFF022625463C
:1029E00004E0022602E0012400E000241D4B53F81D
:1029F000250000F0A7FF4FF4FA7000F085F81A4B9D
:102A000053F8240000F09EFF4FF4FA7000F07CF8B9
:102A10000020FFF789FFFFF7A5FC21463046FFF7AE
:102A2000B9FE40B1114B1B68012BDFDD95F00105AC
:102A3000D7D00726DAE7002CD5D0012CD5D1022437
:102A4000D4E700BF7C750008B0080020EC08002027
:102A5000ED2000080921000821210008E5200008D8
:102A600004750008300500201C0500202C080020FB
:102A700008B50268044B1B689A4203D12021034821
:102A800000F00EFA08BD00BFB008002000000240B0
:102A900010B5044600F068FD064BA3FB003080092A
:102AA000FEF752FF002221464FF0FF30FEF70EFFE7
:102AB000002010BDD34D621008B50B4B1A6842F4CC
:102AC00000721A601A6842F480621A601A6842F44E
:102AD00080721A600320FEF7E7FE0020FFF7D8FFA0
:102AE00000F044F8002008BD003C0240024A136890
:102AF00001331360704700BF30080020014B186895
:102B0000704700BF3008002010B582B00190FFF779
:102B1000F5FF0446FFF7F2FF001B019B9842F9D333
:102B200002B010BD08B5FFF7E1FFFEF733FF08BDA7
:102B300008B51D20FEF71EFF014803F09DFE08BDED
:102B4000B008002008B52520FEF714FF014804F066
:102B50003DFB08BD5409002008B52620FEF70AFFFA
:102B6000014804F033FB08BD9009002008B5072098
:102B7000FEF79AFE002211466FF00B00FEF7A6FE4C
:102B8000002211466FF00900FEF7A0FE0022114658
:102B90006FF00300FEF79AFE002211464FF0FF305F
:102BA000FEF794FE08BD00BF02680F4B9A4219D190
:102BB00000B587B00D4A136C43F4001313644FF44F
:102BC000407301931223029300230393032304937E
:102BD000042305930DEB0301054800F06FF807B0DF
:102BE0005DF804FB704700BF00540040003802400D
:102BF0000004024008B50268084B9A420CD1084A0A
:102C0000136C43F002031364002211461D20FEF7EB
:102C10005DFE1D20FEF78CFE08BD00BF00040040D5
:102C20000038024000B587B00368214A93421DD1A5
:102C300002F59432536C43F0100353644FF4C063B5
:102C40000193022302930123039303230493072395
:102C5000059301A9174800F031F8002211462520FC
:102C6000FEF734FE2520FEF763FE1EE0124A934273
:102C70001BD102F5FA32136C43F4003313640C23B6
:102C80000193022302930123039303230493072355
:102C9000059301A9074800F011F8002211462620EB
:102CA000FEF714FE2620FEF743FE07B05DF804FB96
:102CB000001001400000024000440040F0B5002434
:102CC000D3E00123A3400A6803EA0205AB4240F0C7
:102CD000CB804A68022A01D0122A10D1E6080836B1
:102CE00050F826C004F0070297000F22BA402CEAE1
:102CF000020E0A69BA404EEA020240F82620026833
:102D000067000326BE40F64302EA060E4A6802F058
:102D10000302BA404EEA020202604A6802F1FF3E34
:102D2000BEF1010F03D9112A01D0122A10D18268F5
:102D300006EA020ECA68BA404EEA0202826042689F
:102D400022EA03034A68C2F30012A2401A43426017
:102D5000C3681E408B68BB403343C3604B6813F0AD
:102D6000805F00F08180434A536C43F48043536496
:102D7000A608B21C404B53F8227004F003039B00DA
:102D80000F229A4027EA02073C4A904225D002F5DA
:102D90008062904223D002F58062904221D002F5F9
:102DA000806290421FD002F5806290421DD002F5F1
:102DB000806290421BD002F58062904219D002F5E9
:102DC0008062904217D002F58062904215D002F5E1
:102DD0008062904213D1092212E0002210E0012209
:102DE0000EE002220CE003220AE0042208E00522A1
:102DF00006E0062204E0072202E0082200E00A22A0
:102E000002FA03F33B4302361B4A42F826301C4BBE
:102E10001A68EB4302EA03064F6817F4803F01D0BB
:102E200045EA0206164A1660526803EA02064F682F
:102E300017F4003F01D045EA0206114A5660926835
:102E400003EA02064F6817F4801F01D045EA020624
:102E50000B4A9660D26813404E6816F4001F01D0EA
:102E600045EA0203064AD36001340F2C7FF629AFEE
:102E7000F0BD00BF003802400038014000000240B1
:102E8000003C01400369194201D001207047002035
:102E9000704700BF0AB1018370474183704700BF8C
:102EA000436959404161704738B50446036813F0DF
:102EB000010F57D0AA4B9B6803F00C03042B0AD0D8
:102EC000A74B9B6803F00C03082B0ED1A44B5B6847
:102ED00013F4800F09D0A24B1B6813F4003F41D0BC
:102EE0006368012B40F0A3813CE000229D4B1A70E7
:102EF000FFF704FE054607E0FFF700FE401B41F226
:102F00008833984200F29581954B1B6813F4003F7B
:102F1000F2D12279934B1A706368012B11D1FFF71C
:102F2000EDFD054607E0FFF7E9FD401B41F2883360
:102F3000984200F280818A4B1B6813F4003FF2D064
:102F400010E0FFF7DBFD054607E0FFF7D7FD401B6C
:102F500041F28833984200F27081814B1B6813F470
:102F6000003FF2D1236813F0020F5ED07C4B9B68C8
:102F700013F00C0F0AD07A4B9B6803F00C03082B5C
:102F80001DD1774B5B6813F4800F18D1744B1B680D
:102F900013F0020F03D0E368012B40F0508170481A
:102FA000036823F0F8012269F82393FAA3F3B3FA34
:102FB00083F3DBB202FA03F30B43036035E0E3680B
:102FC0000BB30122684B1A60FFF798FD054605E038
:102FD000FFF794FD401B642800F23381604B1B68AF
:102FE00013F0020FF4D05E48036823F0F801226961
:102FF000F82393FAA3F3B3FA83F3DBB202FA03F3F1
:103000000B43036011E00022574B1A60FFF776FD77
:10301000054605E0FFF772FD401B642800F21381AE
:103020004F4B1B6813F0020FF4D1236813F0080F05
:1030300026D0636993B101224C4B1A60FFF75EFD05
:10304000054605E0FFF75AFD401B642800F2FD80AD
:10305000434B5B6F13F0020FF4D011E00022434B9F
:103060001A60FFF74BFD054605E0FFF747FD401BE3
:10307000642800F2EC803A4B5B6F13F0020FF4D13E
:10308000236813F0040F56D0354A136C43F0805375
:103090001364A2F5E432136843F480731360FFF7FE
:1030A0002DFD054605E0FFF729FD401B642800F2D1
:1030B000D0802F4B1B6813F4807FF4D000222D4B5F
:1030C0001A70FFF71BFD054607E0FFF717FD401BD1
:1030D00041F28833984200F2BE80214B1B6F13F0FF
:1030E000020FF2D1227A234B1A70A368012B11D15F
:1030F000FFF704FD054607E0FFF700FD401B41F226
:103100008833984200F2A980154B1B6F13F0020F11
:10311000F2D010E0FFF7F2FC054607E0FFF7EEFC07
:10312000401B41F28833984200F299800C4B1B6F90
:1031300013F0020FF2D1A369002B00F09280084A2D
:10314000926802F00C02082A00F08D80022B5BD1FD
:103150000022094B1A60FFF7D1FC054613E000BFBF
:10316000003802400238024000004742800E4742C9
:10317000007000407038024060004742FFF7BEFC1C
:10318000401B642871D83C4B1B6813F0007FF5D1BD
:10319000216A626A47F6C07393FAA3F3B3FA83F322
:1031A000DBB202FA03F31943A36A5B085A1E4FF419
:1031B000403393FAA3F3B3FA83F3DBB202FA03F3D7
:1031C0000B43E2691343E26A4FF0706191FAA1F197
:1031D000B1FA81F1C9B28A40134343F00053264A41
:1031E00053600122254B1A60FFF788FC044604E077
:1031F000FFF784FC001B642839D81F4B1B6813F0B1
:10320000007FF5D0002038BD00221C4B1A60FFF76C
:1032100075FC044604E0FFF771FC001B642828D805
:10322000154B1B6813F0007FF5D1002038BD01203D
:1032300038BD032038BD032038BD032038BD012030
:1032400038BD032038BD032038BD032038BD03201E
:1032500038BD032038BD032038BD032038BD03200E
:1032600038BD002038BD012038BD032038BD032003
:1032700038BD032038BD00BF00380240600047421F
:1032800070B504460D46874B1B6803F00F038B4255
:103290006BD2CAB2834B1A701B6803F00F039942BA
:1032A00040F0E480036813F0020F06D07E498B687B
:1032B00023F0F002836813438B60236813F0010F3F
:1032C00000F0B8806268012A05D1774B1B6813F4BF
:1032D000003F0ED1CCE0022A05D1734B1B6813F0DE
:1032E000007F06D1C6E0704B1B6813F0020F00F0A0
:1032F000C3806D498B6823F0030313438B60FFF792
:10330000FDFB05466368012B0FD107E0FFF7F6FBD5
:10331000401B41F28833984200F2B080624B9B68B8
:1033200003F00C03042BF1D184E0022B17D107E04A
:10333000FFF7E4FB401B41F28833984200F2A08083
:10334000594B9B6803F00C03082BF1D172E0FFF797
:10335000D5FB401B41F28833984200F29380524BD8
:103360009B6813F00C0FF2D164E0036813F0020FB6
:1033700006D04D498B6823F0F002836813438B60BD
:10338000236813F0010F4DD06268012A05D1464B26
:103390001B6813F4003F0DD176E0022A05D1424BA1
:1033A0001B6813F0007F05D170E03F4B1B6813F0E2
:1033B000020F6DD03C498B6823F0030313438B60ED
:1033C000FFF79CFB06466368012B0ED106E0FFF772
:1033D00095FB801B41F2883398425BD8324B9B6847
:1033E00003F00C03042BF2D11CE0022B15D106E0F4
:1033F000FFF784FB801B41F2883398424CD82A4B5C
:103400009B6803F00C03082BF2D10BE0FFF776FB6F
:10341000801B41F28833984240D8234B9B6813F0BD
:103420000C0FF3D1EAB21F4B1A701B6803F00F03A5
:103430009D4235D1236813F0040F06D01A498B68DA
:1034400023F4E052E36813438B60236813F0080F02
:1034500007D0154A936823F46043216943EAC10306
:1034600093600020FFF714FB002070BD012070BDA9
:10347000012070BD012070BD012070BD032070BD12
:10348000032070BD032070BD012070BD012070BD00
:10349000012070BD032070BD032070BD032070BDEE
:1034A000012070BD003C0240003802402B4B9B685D
:1034B00003F00C03042B4BD0082B01D02848704795
:1034C00010B4264B586800F03F00596801F48001A1
:1034D0004FF4800292FAA2F2B2FA82F2D2B231FA38
:1034E00002F311D01F4BB3FBF0F01C4B5A6847F6A8
:1034F000C0710A4091FAA1F3B3FA83F3DBB222FA66
:1035000003F303FB00F311E0154BB3FBF0F0134B97
:103510005A6847F6C07402EA040194FAA4F2B2FAB7
:1035200082F2D2B221FA02F202FB00F30B4A506897
:1035300000F440324FF4403090FAA0F0B0FA80F03E
:10354000C0B222FA00F001304000B3FBF0F001E01D
:10355000044870475DF8044B704700BF00380240D4
:103560000024F40000127A0008B5FFF79FFF094B12
:103570009B6803F0F002F02393FAA3F3B3FA83F30A
:10358000DBB222FA03F3044AD35CD840034B186041
:1035900008BD00BF00380240987500086400002094
:1035A00008B5FFF7E1FF084B9B6803F4E0524FF4C6
:1035B000E05393FAA3F3B3FA83F3DBB222FA03F3F3
:1035C000024AD35CD84008BD003802409875000814
:1035D00008B5FFF7C9FF084B9B6803F460424FF43E
:1035E000604393FAA3F3B3FA83F3DBB222FA03F353
:1035F000024AD35CD84008BD0038024098750008E4
:1036000070B586B03D4A136B43F0020313633C4C24
:1036100001224FF480712046FFF73CFC01224FF459
:1036200000712046FFF736FC4FF4407301931123DD
:1036300002930123039301A92046FFF73FFB0026D5
:1036400000E01E46002413E02D4D00224FF480714F
:103650002846FFF71FFC0120FFF756FA01224FF41E
:1036600080712846FFF716FC0120FFF74DFA013460
:10367000092CE9DD4FF400712148FFF703FC10B974
:10368000731C062EDDDD4FF400711D48FFF7FAFBB9
:1036900088BB1A4A136B43F0010313632023019381
:1036A000012302930023039301A91648FFF706FBA9
:1036B000144C012220212046FFF7ECFB2120FFF7CC
:1036C00023FA002220212046FFF7E4FB2120FFF708
:1036D0001BFA012220212046FFF7DCFB2120FFF707
:1036E00013FA002220212046FFF7D4FB4FF4257067
:1036F000FFF70AFADCE706B070BD00BF00380240F1
:10370000000402400000024070B584B016461D4619
:1037100004AA02F8011D84B2642300930123214608
:103720000748FEF757FB48B9642303FB05F30093F2
:10373000ABB2324621460248FEF7D0FB04B070BD62
:10374000E809002070B586B0064610461C4606AD56
:1037500005F8101D1A4601460DF10900FCF7AAFDF7
:10376000631C642200929BB22A46B1B20248FEF763
:1037700031FB06B070BD00BFE809002008B5022388
:10378000074A12218620FFF7DDFF034630B90223E6
:10379000044A12218420FFF7D5FF0346184608BDCE
:1037A000340800203608002010B586B0FFF728FF47
:1037B000144B1A6B42F002021A631A6C42F40012A4
:1037C0001A644FF44073019312230293002403946C
:1037D0000494042305930DEB03010B48FFF76EFAE5
:1037E0000A480B4B03600B4B43608460C4604FF48A
:1037F0008043036144618461C4610462FEF762FA3C
:1038000006B010BD0038024000040240E809002064
:1038100000540040801A060000B583B0FFF7C4FFD3
:10382000022301AA00218620FFF76EFF034600282D
:103830003AD19DF80420BABB9DF80520162A33D151
:10384000022301AA00218420FFF75EFF034658BB34
:103850009DF8042042BB9DF80520162A24D10022A1
:10386000134B1A60FF238DF804308DF805300223C6
:1038700001AA14218620FFF765FF0346A0B9FF23A4
:103880008DF80430BF238DF80530022301AA1421DE
:103890008420FFF757FF034630B96FF0C022044B76
:1038A0001A60FFF76BFF0346184603B05DF804FB90
:1038B0003408002008B502282AD003DCC0B1012852
:1038C00006D035E06C2813D0722821D063282FD180
:1038D000194AD37803F07F03D37011B163F07F03EB
:1038E000D3700123154A13218420FFF72BFF08BD55
:1038F000114A537803F0BF03537011B143F04003F2
:10390000537001230E4A13218620FFF71BFF08BDC9
:10391000094A537803F07F03537011B163F07F03BA
:1039200053700123064A13218620FFF70BFF08BDC1
:103930004FF0FF3008BD00BF3408002037080020DA
:103940003508002070B5002313E014498A5CD24387
:1039500002F07F01124A52F823207F2404FA02F574
:10396000104E346824EA050401FA02F22243326060
:103970000133032B0DDCC25C002AE6D109E0084AC2
:1039800052F823107F228A400649086802430A60E1
:103990000133032BF3DDFFF7F1FE70BDA8750008BE
:1039A000A87600083408002008B500F023FF08BD01
:1039B00008B54A088A2102F0BDFD08BD15290FD8B7
:1039C000DFE801F00B0B0E0B0E0E0E0E0E0E0E0EA0
:1039D0000E0E0E0E0E0E0E0E0B0B01740020704715
:1039E0006FF00700704700BF037C0B70002070472A
:1039F00010B50C460A46092102F0BAFD024618B974
:103A0000237803F001032370104610BD08B502F0BF
:103A1000DDF808BD08B502F053F908BD08B501F09E
:103A200037FF08BD08B502F0B1F808BDF0B583B0A6
:103A300006460D46174602AA002302F8013D012161
:103A400002F096FD9DF80730044668BB012F15D1A2
:103A5000042D2BD8DFE805F00306090C0F0043F016
:103A600010052AE043F0280527E043F0040524E090
:103A700043F0400521E043F080051EE0042D19D8F5
:103A8000DFE805F00306090C0F0003F0EF0514E072
:103A900003F0D70511E003F0FB050EE003F0BF05CE
:103AA0000BE003F07F0508E01D4606E01D466FF0C1
:103AB000030402E01D466FF003049D420ED02CB9B2
:103AC0002A460121304602F035FD04460CB986F83D
:103AD00030511CB971693046FFF798FF204603B09A
:103AE000F0BD00BF0020187004291CD8DFE801F0E9
:103AF00003080D121700C2F300121A70002070475D
:103B0000C2F3C0021A7000207047C2F380021A701C
:103B100000207047C2F380121A7000207047D2094B
:103B20001A70002070476FF00300704730B583B003
:103B300004460D4602AA002302F8013D012102F0CD
:103B400017FD034638B92B469DF807200021204673
:103B5000FFF7C8FF03463BB9AB1C9DF807200121C6
:103B60002046FFF7BFFF03463BB96B1C9DF80720BB
:103B700002212046FFF7B6FF03463BB9EB1C9DF838
:103B8000072003212046FFF7ADFF03463BB92B1D5D
:103B90009DF8072004212046FFF7A4FF034618469E
:103BA00003B030BD30B583B005460C460DF10602BA
:103BB000F82102F011FD034628B96A46042128467F
:103BC00002F02CFD034643B9BDF806201AB1009956
:103BD000B1FBF2F222602268AA61184603B030BD40
:103BE000037F0B700020704730B583B004460D464C
:103BF0000DF10602202102F0EFFC024660B9BDF88B
:103C0000063023B9236A2B600023237704E0DB000E
:103C10002B60236201232377104603B030BD00BF21
:103C200070B505460C461646052933D83AB101F160
:103C30000C0300EB83035A680023012102E00123F7
:103C400000210A46052C28D8DFE804F003070E12ED
:103C5000161D85F82810002021E0C2F34F224421D0
:103C6000284602F075FC1AE085F82A10002016E0BC
:103C700085F82B10002012E05B00FE226021284610
:103C800002F090FC0BE01B01EF226021284602F0BD
:103C900089FC04E06FF0030001E06FF0030048B915
:103CA00026B92C44002384F8283070BD2C4401230D
:103CB00084F8283070BD00BF052904D90023137093
:103CC0006FF003007047014491F828301370002012
:103CD000704700BF431893F828302BB90C3100EB24
:103CE00081014A600020704770B516460C460546B3
:103CF000052919D8DFE801F003060C0F12126A63D8
:103D0000002013E0C2F34F22442102F021FC0DE019
:103D1000EA6300200AE02A64002007E0C2F34F2291
:103D2000642102F015FC01E06FF0030020B904F1FA
:103D30000C0105EB81014E6070BD00BFF0B583B092
:103D400005460C461746052928D8DFE801F0030789
:103D500013171B1B466B0022134626E00DF10602CB
:103D6000442102F039FC0346E0B9BDF80660760252
:103D700001221AE0C66B0022134616E0066C0022F0
:103D8000134612E00DF10602642102F025FC034601
:103D900050B9BDF806607602002206E000226FF0FE
:103DA000030302E0012200E00022C3B9B2B156B918
:103DB00004F10C0205EB820252683A602C440022A6
:103DC00084F828200BE03E6004F10C0205EB82022F
:103DD00056602C44012284F8282000E03E601846FA
:103DE00003B0F0BD30B583B004460D460DF10702B7
:103DF000012102F0BDFB034658B99DF8072084F865
:103E0000302112F0800F02D001222A7001E000223E
:103E10002A7013B92A7884F84C20184603B030BDB4
:103E20002DE9F04107460E46FFF7DEFD044628B9AE
:103E300006F108013846FFF7B5FE04460CB9002329
:103E400033732CB906F110013846FFF7CDFE044656
:103E50002CB906F114013846FFF7A6FD0446D4B18B
:103E60001CE0DCB91FFA85F805F1080206EB8202B6
:103E7000043241463846FFF761FF204344B26CB933
:103E800005F11802324441463846FFF715FF20433A
:103E900044B2013500E00025052DE2DD2CB906F124
:103EA0003C013846FFF79EFF044624B9311D3846D1
:103EB000FFF7B0FD04462046BDE8F081F0B593B0B1
:103EC00005460022882102F035FB002385F8F030FA
:103ED0004FF47A72A5F852214FF4C872A5F8542114
:103EE000604AC5F85821604AC5F8D4202B6202A95F
:103EF0002846FFF795FF044688B900238DF808305F
:103F00008DF8093005F1100602AF0FCF0FC60FCFA5
:103F10000FC60FCF0FC697E80F0086E80F00642387
:103F2000A5F834314FF46173A5F836314FF4FA73C4
:103F3000A5F838314FF42063A5F83C31012685F807
:103F4000506132468021284602F0F4FA204344B200
:103F50003246FF21284602F0EDFA204344B2002207
:103F60001146284602F0E6FA204344B20DF107025A
:103F70009121284602F0FCFA204344B29DF8073014
:103F800085F83A3132460021284602F0D3FA204320
:103F900044B20022FF21284602F0CCFA204344B26A
:103FA00000228021284602F0C5FA204344B20026B0
:103FB00008E04CB90122B1B22846FFF731FE204398
:103FC00044B20136052EF4DD2CB900220221284628
:103FD000FFF726FE04462CB9002203212846FFF7EE
:103FE0001FFE04462CB9002204212846FFF718FEC4
:103FF00004462CB9002205212846FFF711FE04468D
:1040000034B94FF4901200212846FFF763FE0446AE
:1040100034B94FF4804201212846FFF75BFE044685
:1040200034B94FF40C1202212846FFF753FE044620
:104030002CB9002203212846FFF74CFE044654B950
:10404000FF2285F830210121284602F073FA044648
:10405000012385F8323114B9002385F81531204643
:1040600013B0F0BD856B0100A470090008B50123F1
:1040700000F00EFE08BD00BF2DE9F0418EB00546F0
:104080000C460C230AAA142102F038FA80460028B4
:1040900072D10023A37523609DF832609DF8332010
:1040A00002EB06261FFA86FE63609DF82E209DF81F
:1040B0002F3003EB022292B25202E2609DF83010E0
:1040C0009DF8313003EB01239BB25B0223619DF825
:1040D0002A109DF82B3003EB01239BB2A3829DF89D
:1040E0002810B5F8526195F83171B6F57A7F26D06F
:1040F0000EFB06F606F5FA76364880FB06E0F61764
:10410000C6EBA0101FFA80FE2E6A95F81CC0BCF109
:10411000000F14D0B6B203FB06F63612B24203D13A
:104120005FB142F2B82E0AE080B202FB00F0961BAB
:10413000B0FBF6F61FFA86FE01E048F6E02E37B136
:104140004FEA9E0020814FEA8E16E67503E0A4F840
:1041500008E00020E0750DF137000190009428463A
:1041600002F04CF848EA00004FFA80F8B8F1000F6E
:1041700002D19DF837302376B8F1000F26D103AE77
:1041800005F150070FCF0FC697E8070086E8070034
:104190002389ADF81430E37D8DF823306389ADF8C1
:1041A000163063680493E368069323690793A38A30
:1041B000ADF82030237E8DF8243005F1500403AD96
:1041C0000FCD0FC495E8070084E8070040460EB005
:1041D000BDE8F081D34D621070B582B0064614463A
:1041E0001D460DF106020E2102F0F6F9BDF806207B
:1041F0000A4B03EA42432360034660B90DF106020D
:104200000C21304602F0E8F90346BDF80610034AD7
:1042100002EA41422A60184602B070BD0000FE1F4B
:1042200070B582B090F8DA30013BDBB2022B34D8A3
:104230000E4605466B4601AA0121FFF7CDFF044655
:10424000019BB3F57F0F03D8009BB3F57F0F25D9F2
:1042500024BB2EB11349284601F098FD04461DE009
:104260000422FF21284602F065F9204344B20022CF
:104270007021284602F05EF9204344B20022FF215B
:10428000284602F057F9204344B2002280212846F4
:1042900002F050F9204344B200E00024204602B06E
:1042A00070BD00BF2C06002030B583B004460DF170
:1042B0000701FFF799FB01228021204602F03AF91D
:1042C0000122FF21204602F035F900221146204646
:1042D00002F030F994F83A219121204602F02AF9AF
:1042E00001220021204602F025F90022FF2120466C
:1042F00002F020F900228021204602F01BF99DF8EF
:104300000730012B24D013B1032B31D040E0012220
:104310000021204602F00EF901238DF806300346F5
:10432000D8BB002535B10DF106020021204602F070
:104330001FF9034601359DF8062012F0010F03D046
:1043400013B9B5F5FA6FEDD3B5F5FA6F25D322E0C1
:1043500018B901212046FFF763FF02220021204601
:1043600002F0E8F80346C0B9042284F8322114E0D0
:1043700018B901212046FFF753FF042200212046EF
:1043800002F0D8F8034640B9042284F8322104E050
:104390006FF0070301E06FF00603184603B030BD6D
:1043A00010B582B004460DF10701FFF71DFB03466F
:1043B00030B99DF807201AB92046FFF775FF03466C
:1043C0001BB9204600F0DCFD03462BB99DF8072001
:1043D00012B9032284F83221184602B010BD00BF82
:1043E00070B582B00646002501220B21304602F04E
:1043F000A1F8044600220B21304602F09BF820432E
:1044000044B20DF107021321304602F0B1F8204307
:1044100040B20135EDB29DF8073013F0070F03D01D
:10442000022D01D80028DFD0022D01D96FF00B003A
:1044300002B070BD38B504460D460021FFF7BEFA44
:10444000034618B92046FFF7ABFF034623B92946B8
:104450002046FFF711FE034623B900212046FFF74F
:10446000BFFF0346184638BDF8B59DF8186000290F
:1044700040F0A8801C460546142A08D10EB9102227
:1044800000E001228421284602F054F8F8BD152AE4
:1044900067D10122FF2102F04DF8044600221146A7
:1044A000284602F047F8204344B20022FF21284664
:1044B00002F040F8204344B201228021284602F055
:1044C00039F8204344B202228521284602F032F80E
:1044D000204344B20422FF21284602F02BF8204357
:1044E00044B20022CD21284602F024F8204344B2F1
:1044F0001122CC21284602F01DF8204344B20722A5
:10450000FF21284602F016F8204344B20022BE21C3
:10451000284602F00FF8204344B20622FF21284625
:1045200002F008F8204344B20922CC21284602F0C8
:1045300001F8204344B20022FF21284601F0FAFF8F
:10454000204344B20122FF21284601F0F3FF20431B
:1045500044B200221146284601F0ECFF204340B24D
:10456000F8BD042C10D8DFE804F0031206090C0093
:10457000002738460DE0022700200AE0032700202C
:1045800007E00427002004E06FF00A0001E00127A3
:10459000002020B93A460A21284601F0CBFF40B955
:1045A0000EB9002300E01023EF228421284601F0F9
:1045B000F9FF08B985F8DA4030B900212846FFF73D
:1045C0000FFFF8BD6FF00900F8BD00BFF0B597B060
:1045D00007464022002106A8FBF706FF0023ADF89E
:1045E00016308DF815308DF81430049301213846BB
:1045F00000F02CFD97F8131197F81421012A05D823
:1046000001D1202902D842B90C2906D905AA04A94A
:10461000384600F05DFB044603E0384600F0E4F95C
:1046200004462CB997F8503123B9D7F84C1102E061
:104630004F4900E04E491CB9384601F0A7FB04463B
:104640003CB90021009104230A463846FFF70CFFCD
:104650000446A4B90122FF21384601F06BFF04464D
:104660000DF116028421384601F0B6FF204344B212
:104670000022FF21384601F05DFF204344B224B9F7
:10468000BDF816301B01C7F8D43024B906A9384646
:10469000FFF7C6FB044654B90DF115013846FFF784
:1046A000A7F9044618B99DF8153087F8313164B977
:1046B00007F1100506AE0FCE0FC50FCE0FC50FCEFA
:1046C0000FC596E80F0085E80F005CB90DF11502E3
:1046D0000121384601F04CFF044618B99DF8153009
:1046E00087F830312CB9002211463846FFF79EF981
:1046F00004462CB9002202213846FFF797F90446F8
:1047000014B9032387F8323134B90DF10F020021B7
:104710003846FFF787F904461CB99DF80F3087F833
:10472000E83034B90DF10F0201213846FFF77AF96C
:1047300004461CB99DF80F3087F8E0302CB902AA66
:104740000321384600F08CFF044614B9029BC7F8D9
:10475000E4302CB902AA0421384600F081FF044657
:1047600014B9029BC7F8DC30204617B0F0BD00BF7B
:104770003805002010B582B00C460DF10702132158
:1047800001F0F6FE9DF8073003F00702226013F0F7
:10479000180F01D06FF0050002B010BD10B582B047
:1047A0000C4690F8DA30042B0CD16946FFF7E2FF93
:1047B0000346009A042A02D10122227013E000224B
:1047C000227010E00DF10702142101F0D1FE034622
:1047D00048B99DF8072012F0010F02D00122227083
:1047E00001E000222270184602B010BD08B500F0AA
:1047F0006FFA08BD10B582B00C460DF106022821F3
:1048000001F0EAFE024688B9BDF80630C3F30B0397
:10481000B3F5006F06DBA3F58053FA2103FB01F328
:10482000236003E0FA2103FB01F32360104602B08A
:1048300010BD00BFF0B54FF0FF341C60D70802F088
:10484000070E3D46002616E0445DBD4204D144FA01
:104850000EF4E4B272460BE0002209E014F0010FFE
:1048600004D002EBC5021A60012603E0640801329D
:10487000072AF3D901358D4201D2002EE4D0F0BDD4
:104880008009044B53F820300BB101207047002001
:10489000704700BFE407002010B4D4088C4209D24E
:1048A00002F00702012303FA02F2035D1A430255E4
:1048B000002001E06FF031005DF8044B704700BF4D
:1048C00008B506230A46B02101F0FAFD08BD00BF75
:1048D00008B506230A46B02101F010FE08BD00BF4E
:1048E0002DE9F04F87B001908B4600929846109EBC
:1048F000DDF844A0129FDDF84C900597002516E0E6
:1049000005AB3A4631460098FFF794FF059CB4F199
:10491000FF3F10D004EB0A00FFF7B2FF58450DD15E
:10492000224631464046FFF7B7FF671C01354D452B
:10493000E6D3002004E06FF0310001E06FF03100B9
:10494000149B1F6018B941460198FFF7B9FF98B949
:1049500003A90198FFF7BCFF002308E018F8031033
:1049600006AA1A4412F80C2C914203D10133B34227
:10497000F4D301E06FF0310007B0BDE8F08F00BF65
:1049800070B588B004460E4690F83051C02201211F
:1049900001F0D0FD034620B901A92046FFF74AFDEA
:1049A00003462BB90122FF21204601F0C3FD034637
:1049B0002BB93246B621204601F00EFE03462BB934
:1049C0000022FF21204601F0B5FD034643B92A46E7
:1049D0000121204601F0AEFD034608B984F83051AC
:1049E000184608B070BD00BFF0B589B005460F4647
:1049F00016460122FF2101F09DFD034628B9002241
:104A00004F21284601F096FD03462BB92C224E215A
:104A1000284601F08FFD03462BB90022FF212846CE
:104A200001F088FD034623B9B422B621284601F0DF
:104A300081FD002304E0EA18002182F824110133EB
:104A4000052BF8D91EB9002409E0013400E0002448
:104A500004F1B400FFF714FF08B92B2CF5D907AB0C
:104A6000049303970294B42301930623009305F55E
:104A7000927305F5957231462846FFF731FF0346DC
:104A800030B9012285F8152185F8137185F8146174
:104A9000184609B0F0BD00BF10B5044641F0010250
:104AA000002101F047FD034618B9204600F068FADE
:104AB000034623B900212046FFF792FC03462BB999
:104AC00000221146204601F035FD0346184610BD70
:104AD0002DE9F04F83B005468846924699469DF8E9
:104AE00038709DF83C604FF0000B8DF807B0012244
:104AF000FF2101F01FFD04465A465946284601F0A1
:104B000019FD204344B25A46FF21284601F012FD08
:104B1000204344B2B8F1000F11D037B10C9ACB2129
:104B2000284601F025FD204344B2CEB10DF1070225
:104B3000EE21284601F01CFD204344B210E037B1BD
:104B40005246CB21284601F0F5FC204344B23EB149
:104B50004B468022EE21284601F024FD204344B23A
:104B60000122FF21284601F0E5FC204344B2012246
:104B70000021284601F0DEFC204344B20022FF2140
:104B8000284601F0D7FC20439DF8073003F0EF03DF
:104B90000D9A137040B203B0BDE8F08F2DE9F041DB
:104BA00086B004460D46174600228DF817201E4693
:104BB00013B190F8308101E04FF000080122114656
:104BC000204601F0B7FC034620B940212046FFF7FC
:104BD00063FF03467BB9012F0DD10022039201210F
:104BE00002910DF117030193009513462046FFF73C
:104BF0006FFF034601E000222A704BB946B14246DE
:104C00000121204601F096FC034608B984F8308162
:104C1000184606B0BDE8F0812DE9F04186B00446A3
:104C20000D4617461E4613B190F8308101E04FF053
:104C3000000802220121204601F07CFC034620B935
:104C400000212046FFF728FF03467BB9012F0DD135
:104C5000012103910022029201950DF117030093A7
:104C600013462046FFF734FF034601E000222A7076
:104C70004BB946B142460121204601F05BFC034698
:104C800008B984F83081184606B0BDE8F08100BF4D
:104C9000F8B5044617461D4690F8306100232A46B1
:104CA000FFF77CFF034630B900232A4639462046E9
:104CB000FFF7B2FF034643B932460121204601F017
:104CC00039FC034608B984F830611846F8BD00BFC6
:104CD0002DE9F04F95B004460C910D9200231193ED
:104CE00010938DF83D308DF83C30B0F83CA104E0D5
:104CF000E218002182F824110133052BF8D9012292
:104D0000FF21204601F016FC054628B900224F215C
:104D1000204601F00FFC05462DB92C224E212046DD
:104D200001F008FC05462DB90022FF21204601F0C4
:104D300001FC05462DB9B422B621204601F0FAFB4C
:104D400005462DB900228021204601F0F3FB0546DF
:104D50003DB900230FAA0DF13D012046FFF798FF52
:104D600005469DB9002114AB43F80C1D04930323A1
:104D700003930291B42301930623009304F59273E5
:104D800004F595722046FFF7ABFD0546002D48D18E
:104D9000119F0DF13E012046FFF7F2FD0546002868
:104DA00045D1BDF83E309A450AD300230B9398466F
:104DB000089352E0E218002182F82411013300E048
:104DC0000023052BF6D900E0013707F1B400FFF707
:104DD00057FD08B92B2FF7D911AB04930323039385
:104DE0000297B42301930623009304F5927304F50C
:104DF000957201212046FFF773FD0546E0B9119F2A
:104E00000DF13E012046FFF7BBFD0546D0B9BDF8C8
:104E10003E309A451CD300230B93984601230893F8
:104E20001BE000230B93984608931F4615E00023D0
:104E30000B939846089310E000230B9398460123A8
:104E400008930AE000230B9398460123089304E09B
:104E500001230B934FF003080893002D7BD1BDF87D
:104E60003E309A4577D99DF820200B92D4F8240142
:104E70001290B4F82821ADF84C20CDF828A0CAEB48
:104E80000303002BB8BF5B4209934FF003084FF0B8
:104E9000000B0797574654E010AB079A062104F51C
:104EA0009570FFF7C7FC109EB6F1FF3F4DD00796F7
:104EB00006F1B400FFF7E4FC089B83424BD108F1F4
:104EC000010A04F59279324606214846FFF7E4FCD0
:104ED000054630B9731C079349462046FFF7F0FC9E
:104EE0000546ADBB0DF13E012046FFF749FD0546E5
:104EF00080BBBDF83E200A9BD31A002BB8BF5B4293
:104F0000974212D2099A9A4218D212A92046FFF764
:104F1000D7FC05461298C4F82401BDF84C30A4F81B
:104F20002831C2464FF0010B0AE0D4F82401129058
:104F3000B4F82821ADF84C20099301E04FF0010BA3
:104F4000D046BBF1000FA7D005E06FF0310502E0BD
:104F5000D04600E0D0467DB90C9AC2F800800D9989
:104F60009DF82C000870012384F81531137884F81B
:104F700013310B7884F81431284615B0BDE8F08F52
:104F800030B583B0054600248DF807400DF10701C8
:104F90002846FFF703FC024668B99DF80730012B4D
:104FA00009D00134B4F5FA6F03D2284601F05EFB54
:104FB000ECE76FF00602104603B030BD0130400050
:104FC00000F0FE00704700BF40080138C0B27047D3
:104FD0004FF0804300E09B088342FCD8002208E0A9
:104FE000D118884203D3401A03EB520200E0520862
:104FF0009B08002BF4D11046704700BF70B582B0FB
:1050000006460022832101F095FA0546A0B9002446
:105010000DF107028321304601F0AAFA05469DF8FA
:10502000073023B918B90134B4F5FA6FF0D3B4F5E9
:10503000FA6F01D36FF0060501228321304601F09B
:1050400079FA284340B202B070BD00BF2DE9F04F9D
:105050008DB005460E4600230893079390F8F07034
:10506000072F00F058820122802101F063FA0446E4
:105070000122FF21284601F05DFA204344B20022BC
:105080001146284601F056FA204344B20622FF2179
:10509000284601F04FFA204344B20DF12F0283213C
:1050A000284601F065FA204344B29DF82F2042F0D3
:1050B00004028321284601F03DFA204344B207222E
:1050C000FF21284601F036FA204344B20122812113
:1050D000284601F02FFA204344B2284601F0C6FAD0
:1050E000204344B201228021284601F023FA2043C4
:1050F00044B216F0010F57D017F0010F58D16B22B0
:105100009421284601F016FA204344B22846FFF7BE
:1051100075FF204344B20AAA9021284601F07EFA86
:10512000204344B20A9BC3F3062BC3F3C0392422A5
:105130009421284601F0FEF9204344B22846FFF7A7
:105140005DFF204344B20AAA9021284601F066FA86
:10515000204344B20A9B1A0E8DF80020C3F3074285
:105160008DF80120C3F307228DF802208DF803305B
:1051700025229421284601F0DDF9204344B2284637
:10518000FFF73CFF204344B20AAA9021284601F0D1
:1051900045FA204344B20A9B1A0E8DF80420C3F34B
:1051A00007438DF8053006E04FF00009CB4602E0DA
:1051B0004FF00009CB4616F0020F00F0DB8017F02D
:1051C000020F40F0D78002229421284601F0B2F964
:1051D000204344B22846FFF711FF204344B20DF1AB
:1051E00027029021284601F0C3F9204344B27B22D4
:1051F0009421284601F09EF9204344B22846FFF747
:10520000FDFE204344B20DF126029021284601F014
:10521000AFF9204344B277229421284601F08AF95D
:10522000204344B22846FFF7E9FE204344B20AAACD
:105230009021284601F0F2F9204344B20A9B5A0E0D
:105240008DF80820C3F386428DF80920C3F3C622E7
:105250008DF80A20C3F306128DF80B20DB0003F053
:1052600078038DF82F3078229421284601F062F9D6
:10527000204344B22846FFF7C1FE204344B20AAAA5
:105280009021284601F0CAF9204344B20A9B9DF8B8
:105290002F2002EB53728DF80C20C3F386528DF849
:1052A0000D20C3F3C6328DF80E20C3F306228DF80D
:1052B0000F20C3F346028DF810209B0103F040033A
:1052C0008DF82F3079229421284601F033F92043BC
:1052D00044B22846FFF792FE204344B20AAA902126
:1052E000284601F09BF9204344B20A9B9DF82F20E9
:1052F00002EB93628DF81120C3F3C6428DF81220A1
:10530000C3F306328DF81320C3F346128DF8142030
:105310009B0003F07C038DF82F307A2294212846DD
:1053200001F008F9204344B22846FFF767FE204306
:1053300044B20AAA9021284601F070F9204344B2F1
:105340000A9B9DF82F2002EB93728DF81520C3F372
:10535000C6528DF81620C3F306428DF81720C3F30A
:1053600046228DF81820C3F386038DF819300023E8
:105370008DF81A3016F0040F00F0898017F0040F32
:1053800040F089807B229421284601F0D3F8204305
:1053900044B22846FFF732FE204344B208AA9021C7
:1053A000284601F03BF9204344B27C229421284650
:1053B00001F0C0F8204344B22846FFF71FFE204307
:1053C00044B207AA9021284601F028F9204344B2AC
:1053D00073229421284601F0ADF8204344B22846B8
:1053E000FFF70CFE204344B20AAA9021284601F0A0
:1053F00015F9204344B20A9B4FEA03281FFA88F8A4
:1054000074229421284601F095F8204344B228469E
:10541000FFF7F4FD204344B20AAA9021284601F088
:10542000FDF8204344B29DF82B3048EA030875226A
:105430009421284601F07EF8204344B22846FFF725
:10544000DDFD204344B20AAA9021284601F0E6F887
:10545000204344B20A9B4FEA032A1FFA8AFA7622B3
:105460009421284601F066F8204344B22846FFF70D
:10547000C5FD204344B20AAA9021284601F0CEF887
:10548000204344B29DF82B304AEA030A06E04FF06D
:105490000008C24602E04FF00008C2460022812107
:1054A000284601F047F8204344B20622FF2128464F
:1054B00001F040F8204344B20DF12F028321284629
:1054C00001F056F8204344B29DF82F2002F0FB0271
:1054D0008321284601F02EF8204344B20122FF2107
:1054E000284601F027F8204344B201220021284633
:1054F00001F020F8204344B20022FF21284601F0A9
:1055000019F8204344B200228021284601F012F805
:10551000204344B205E04FF00008C246C146C346EE
:105520004446002C4CD1072F4AD016F0010F12D060
:1055300017F0010F0FD185F813B185F814910023EE
:1055400007E00CAA1A4412F8301CEA1882F82A1153
:105550000133052BF5DD16F0020F0FD017F0020F07
:105560000CD19DF8273085F8F1309DF8263085F86C
:10557000F23002A905F1F300FAF7ECFF16F0040F80
:105580001BD017F0040F18D1089BC5F81831079BE2
:10559000C5F81C314FEA4823C5F82031BAF1000F95
:1055A00009D0AAF5C85A4FF47A7303FB0AF31B0912
:1055B0005B421BB200E00023EB603E4385F8F060E5
:1055C00020460DB0BDE8F08F01EBC1010B0240F2A7
:1055D000776000FB03F0704768B1431E002002E0D3
:1055E0005B08013080B233F0FF02F9D1DBB203EB8C
:1055F000002080B270470020704700BFC3B2000A8D
:1056000003FA00F00130704710B50C461146FFF761
:10561000DBFF00F5FA70064BA3FB00239809DB09BA
:105620004FF47A7202FB0433B3FBF0F010BD00BFFD
:10563000D34D621010B50C461146FFF7C5FF00F5BB
:10564000FA710648A0FB0131890901FB04F101F55B
:10565000FA71A0FB0130800910BD00BFD34D62106C
:10566000F0B585B00546164600238DF80E30ADF82E
:105670000C30022918D80DF10F021946FEF7D2F9A5
:10568000044630B90DF10E024621284600F070FFA5
:1056900004469DF80E00FFF7B1FF9DF80F2081B280
:1056A0002846FFF7C7FF65E0032920D10DF10F025F
:1056B0000021FEF7B7F90446002857D10DF10F027B
:1056C00000212846FEF7AEF9044628B903AA512165
:1056D000284600F081FF0446BDF80C00FFF78EFF5E
:1056E0009DF80F2081B22846FFF7A4FF42E004296D
:1056F0003ED101A9FEF71AFA9DF807309BB10DF1D2
:105700000F0200212846FEF78DF9044670B903AA5E
:105710005121284600F060FF0446BDF80C00FFF759
:105720006DFF87B203E000273C4600E0002734B954
:105730000DF10F0201212846FEF774F9044664B901
:105740000DF10A027121284600F046FF0446BDF81B
:105750000A00FFF753FF80B200E00020C11B9DF854
:105760000F2089B22846FFF765FF03E0002001E023
:10577000002004463060204605B0F0BDF0B585B08D
:1057800005461646022920D80DF10F020021FEF72A
:1057900049F9044680B99DF80F2031462846FFF7A5
:1057A00033FF83B2B3F5807F03D8C7B2013FFFB2A6
:1057B00000E0FF27A5F8D870002C66D13A464621B4
:1057C000284600F0B7FE04465FE003291ED10DF124
:1057D0000F020021FEF726F904469DF80F203146FE
:1057E0002846FFF711FF80B2FFF7F6FEADF80C0078
:1057F000A5F8D8002CB902465121284600F0A8FE91
:105800000446002C41D1C5F8E4603EE004293AD1B9
:1058100001A9FEF78BF99DF807309BB10DF10F023E
:1058200000212846FEF7FEF8044670B903AA51216C
:10583000284600F0D1FE0446BDF80C00FFF7DEFE5E
:1058400087B203E000273C4600E0002734B90DF1A1
:105850000F0201212846FEF7E5F80446ACB99DF891
:105860000F2031462846FFF7CFFE3844FFF7B4FE3D
:105870002CB902467121284600F06AFE044624B97C
:10588000C5F8DC6001E06FF00304204605B0F0BD10
:10589000F0B585B000238DF8033012F0010F0CD164
:1058A00019B90B2A0CD9122A0DD801290ED1072AB1
:1058B0000ED90E2A0FD800230FE06FF003030CE07F
:1058C0006FF0030309E06FF0030306E0002304E038
:1058D0006FF0030301E06FF00303002B40F05281EF
:1058E00015460E460746A1BB0C2A0AD1182257219D
:1058F00000F020FE08225621384600F01BFE034629
:10590000E9E00E2A0AD13022572100F013FE0822C6
:105910005621384600F00EFE0346DCE0102A0AD17C
:105920004022572100F006FE08225621384600F09A
:1059300001FE0346CFE0122A40F0CD8050225721CD
:1059400000F0F8FD08225621384600F0F3FD03462A
:10595000C1E0012940F0BF80082A2DD11022482142
:1059600000F0E8FD08224721384600F0E3FD044638
:1059700002223221384600F0DDFD204344B20C22E1
:105980003021384600F0D6FD204344B20122FF21E9
:10599000384600F0CFFD204344B23022114638464D
:1059A00000F0C8FD204344B20022FF21384600F039
:1059B000C1FD204343B28EE00A2A2DD1282248217E
:1059C00000F0B8FD08224721384600F0B3FD044638
:1059D00003223221384600F0ADFD204344B20922B3
:1059E0003021384600F0A6FD204344B20122FF21B9
:1059F000384600F09FFD204344B220223021384633
:105A000000F098FD204344B20022FF21384600F008
:105A100091FD204343B25EE00C2A2DD1382248216B
:105A200000F088FD08224721384600F083FD044637
:105A300003223221384600F07DFD204344B2082283
:105A40003021384600F076FD204344B20122FF2188
:105A5000384600F06FFD204344B220223021384602
:105A600000F068FD204344B20022FF21384600F0D8
:105A700061FD204343B22EE00E2A2CD1482211466C
:105A800000F058FD08224721384600F053FD044637
:105A900003223221384600F04DFD204344B2072254
:105AA0003021384600F046FD204344B20122FF2158
:105AB000384600F03FFD204344B2202230213846D2
:105AC00000F038FD204344B20022FF21384600F0A8
:105AD00031FD204343B2002B45D12846FFF774FA2D
:105AE000044616B1012E25D03BE002AA0321384618
:105AF000FFF7B6FD034628B901AA02213846FFF791
