:020000040800F2
:1000000000800120D92300082924000829240008A1
:1000100029240008292400082924000800000000E1
:10002000000000000000000000000000292400087B
:10003000292400080000000029240008D506000833
:10004000292400082924000829240008292400085C
:10005000292400082924000829240008292400084C
:10006000292400082924000829240008292400083C
:10007000292400082924000829240008292400082C
:100080002924000829240008292400080000000071
:10009000000000000000000000000000292400080B
:1000A00029240008292400082924000829240008FC
:1000B00029240008292400082924000829240008EC
:1000C00029240008292400082924000829240008DC
:1000D00029240008E1060008292400080000000087
:1000E0002924000829240008292400080000000011
:1000F00000000000000000000000000029240008AB
:1001000000000000292400082924000829240008F0
:1001100000000000000000000000000000000000DF
:10012000292400082924000829240008292400087B
:10013000292400080000000000000000000000006A
:10014000000000000000000000000000292400085A
:10015000292400082924000829240008292400084B
:1001600029240008292400080000000000000000E5
:10017000000000000000000000000000000000007F
:10018000000000002924000800000000000000001A
:040190002924000816
:10019400044B05481B1A062B02D9044B03B118471C
:1001A400704700BF0700002004000020000000008A
:1001B40005490648091A891001EBD171491002D08A
:1001C400034B03B1184770470400002004000020CB
:1001D4000000000010B5064C237843B9FFF7D8FFA0
:1001E400044B13B10448AFF300800123237010BD06
:1001F40004000020000000002C24000808B5084B6F
:100204001BB108490848AFF300800848036813B9D4
:10021400BDE80840CCE7064B002BF9D09847F7E738
:1002240000000000080000202C2400080400002026
:100234000000000070B50F4E0F4D761BB61018BFAE
:10024400002405D0013455F8043B9847A642F9D15F
:100254000A4E0B4D761B02F0E7F8B61018BF0024C7
:1002640006D0013455F8043B9847A642F9D170BD35
:1002740070BD00BFB8260008B8260008BC260008D8
:10028400B8260008844641EA000313F003036DD145
:10029400403A41D351F8043B40F8043B51F8043B45
:1002A40040F8043B51F8043B40F8043B51F8043B4C
:1002B40040F8043B51F8043B40F8043B51F8043B3C
:1002C40040F8043B51F8043B40F8043B51F8043B2C
:1002D40040F8043B51F8043B40F8043B51F8043B1C
:1002E40040F8043B51F8043B40F8043B51F8043B0C
:1002F40040F8043B51F8043B40F8043B51F8043BFC
:1003040040F8043B51F8043B40F8043B51F8043BEB
:1003140040F8043B403ABDD2303211D351F8043B8B
:1003240040F8043B51F8043B40F8043B51F8043BCB
:1003340040F8043B51F8043B40F8043B103AEDD23A
:100344000C3205D351F8043B40F8043B043AF9D28B
:10035400043208D0D2071CBF11F8013B00F8013B5E
:1003640001D30B8803806046704700BF082A13D36B
:100374008B078DD010F003038AD0C3F10403D21A83
:10038400DB071CBF11F8013B00F8013B80D331F8B7
:10039400023B20F8023B7BE7043AD9D3013A11F837
:1003A400013B00F8013BF9D20B7803704B784370A2
:1003B4008B7883706046704753B94AB9002908BFE7
:1003C40000281CBF4FF0FF314FF0FF3000F07EB922
:1003D400ADF1080C6DE904CE00F006F8DDF804E098
:1003E400DDE9022304B070472DE9F0478C460E4640
:1003F4000446089D002B50D18A4217466CD9B2FAA4
:1004040082FEBEF1000F0BD0CEF1200420FA04F4DA
:1004140001FA0EF644EA060C02FA0EF700FA0EF49C
:100424004FEA1749220CBCFBF9F01FFA87F809FBC5
:1004340010C642EA064600FB08F3B34209D9F6198E
:1004440000F1FF3280F02281B34240F21F81023872
:100454003E44F61AA2B2B6FBF9F309FB136642EA6C
:10046400064403FB08F8A04509D9E41903F1FF3257
:1004740080F00A81A04540F20781023B3C44C8EB6E
:10048400040443EA00400021002D62D024FA0EF453
:1004940000232C606B60BDE8F0878B4207D9002DE8
:1004A40055D0002185E841000846BDE8F087B3FA3D
:1004B40083F1002940F09080B34202D3824200F2DB
:1004C400F880841A66EB03060120B446002D40D060
:1004D40085E81010BDE8F08712B90127B7FBF2F7E1
:1004E400B7FA87FEBEF1000F35D1F31B4FEA174868
:1004F4001FFA87FC0121B3FBF8F0220C08FB10362D
:1005040042EA06460CFB00F3B34207D9F61900F1A0
:10051400FF3202D2B34200F2CE801046F61AA2B2E3
:10052400B6FBF8F308FB136642EA06440CFB03FC33
:10053400A44507D9E41903F1FF3202D2A44500F21D
:10054400B5801346CCEB040443EA00409CE72946FB
:100554002846BDE8F087CEF1200106FA0EF307FA2B
:100564000EF720FA01F94FEA1748CE4049EA030989
:10057400B6FBF8FA4FEA194408FB1A661FFA87FC1F
:1005840044EA06430AFB0CF29A4200FA0EF40AD932
:10059400DB190AF1FF3180F087809A4240F28480AF
:1005A400AAF1020A3B449B1A1FFA89F9B3FBF8F13A
:1005B40008FB113349EA034301FB0CF69E4207D9B9
:1005C400DB1901F1FF326BD29E4269D902393B44F7
:1005D4009B1B41EA0A418EE7C1F1200E22FA0EF478
:1005E4008B40234320FA0EF706FA01F44FEA134C2A
:1005F40026FA0EF63C43B6FBFCF9270C0CFB1966F5
:100604001FFA83F847EA064609FB08F7B74202FADD
:1006140001F200FA01FA08D9F61809F1FF3041D2C3
:10062400B7423FD9A9F102091E44F61BA0B2B6FB9A
:10063400FCF40CFB146640EA064704FB08F8B845D2
:1006440007D9FF1804F1FF3028D2B84526D9023C57
:100654001F4444EA0940C8EB0707A0FB02894F4541
:1006640044464E4614D329D065B3BAEB040367EB72
:10067400060707FA0EFECB40CF404EEA030385E897
:1006840088000021BDE8F0871346F8E61046E0E64E
:10069400B8EB020469EB03060138E5E70446D8E742
:1006A400114695E78146C0E78A467CE7023B3C4415
:1006B40048E708460AE702383E442FE7C245E7D335
:1006C4003E46D1E72946BDE8F08700BF704700BF2A
:1006D40008B500F00FF900F0DDFE08BD08B50248CA
:1006E40001F0E2FD08BD00BF9C000020F0B583B01E
:1006F4000024BBE00123A3400A6803EA0205AB42DD
:1007040040F0B3804A68022A01D0122A10D1E608C8
:10071400083650F826C004F0070297000F22BA40AA
:100724002CEA020E0A69BA404EEA020240F8262078
:10073400026867000326BE40F64302EA060E4A68D2
:1007440002F00302BA404EEA020202604A6802F171
:10075400FF3EBEF1010F03D9112A01D0122A10D194
:10076400826806EA020ECA68BA404EEA0202826051
:10077400426822EA03034A68C2F30012A2401A4301
:100784004260C3681E408B68BB403343C3604B6800
:1007940013F0805F69D000230193374B5A6C42F405
:1007A40080425A645B6C03F480430193019BA60866
:1007B400B21C324B53F8222004F003039B000F2792
:1007C4009F4022EA07072E4A904211D002F5806228
:1007D40090420FD002F5806290420DD002F5806203
:1007E40090420BD002F58062904209D1042208E0C5
:1007F400002206E0012204E0022202E0032200E0DB
:10080400072202FA03F33B4302361C4A42F826301D
:100814001C4B1A68EB4302EA03064F6817F4803F47
:1008240001D045EA0206174A1660526803EA020636
:100834004F6817F4003F01D045EA0206114A56609A
:10084400926803EA02064F6817F4801F01D045EA54
:1008540002060C4A9660D26813404E6816F4001FD4
:1008640001D045EA0203074AD36001340F2C7FF616
:1008740041AF03B0F0BD00BF003802400038014072
:1008840000000240003C01400AB181617047090444
:100894008161704710B50446074B1B680748A0FBED
:1008A4000330800900F0CEFD002221464FF0FF30D6
:1008B40000F08AFD002010BD00000020D34D62101E
:1008C40008B50B4B1A6842F400721A601A6842F4B5
:1008D40080621A601A6842F480721A60032000F081
:1008E40061FD0020FFF7D6FF00F0D8FD002008BD11
:1008F400003C0240024A136801331360704700BF92
:1009040030000020014B1868704700BF3000002001
:1009140030B583B00190FFF7F5FF0546019CB4F1B3
:10092400FF3F00D00134FFF7EDFF401BA042FAD394
:1009340003B030BD0F49D1F8883043F47003C1F8D7
:1009440088300D4B1A6842F001021A60002098604A
:100954001A6822F0847222F480321A60074A5A60BC
:100964001A6822F480221A60D8604FF000638B600A
:10097400704700BF00ED00E0003802401030002452
:1009840008B513460A460146034801F049FB003006
:1009940018BF012008BD00BF9C00002008B5B0FAB4
:1009A40080F252094FF400710148FFF76DFF08BD52
:1009B4000008024008B513460A460146034801F000
:1009C400A1FB003018BF012008BD00BF9C0000201F
:1009D40008B5FFF79DFF08BD2DE9F0418AB000245A
:1009E4000094494B1A6B42F004021A631A6B02F02A
:1009F40004020092009A01941A6B42F080021A6376
:100A04001A6B02F080020192019A02941A6B42F06E
:100A140001021A631A6B02F001020292029A039411
:100A24001A6B42F002021A631A6B02F0020203927A
:100A3400039A04941A6B42F008021A631B6B03F0C6
:100A440008030493049B314F224620213846FFF7C4
:100A54001BFF2F4E22464FF400713046FFF714FF60
:100A64004FF4005305932B4B0693079405A9304686
:100A7400FFF73CFE41F6FF530593032506950794C3
:100A840005A93046FFF732FE49F6D31305930695C0
:100A9400079405A93846FFF729FE0C230593022382
:100AA4000693079408940723099305A93846FFF78A
:100AB4001DFE202305934FF00108CDF818800794FC
:100AC400089405A93846FFF711FE4FF2F773059312
:100AD4000695079405A91048FFF708FE4FF4007324
:100AE4000593CDF818800794089405A93046FFF7BC
:100AF400FDFD042305930695079405A90748FFF710
:100B0400F5FD0AB0BDE8F081003802400000024063
:100B1400000802400000211000040240000C0240C2
:100B2400FEE700BF08B50A480A4B03600A4B43605E
:100B340000238360C36003610C2242618361C3614B
:100B440001F03CFA18B1EE210448FFF7E9FF08BDB3
:100B54009C0000200010014040420F006426000861
:100B640000B595B0002201922A4B196C41F08051D6
:100B740019641B6C03F080530193019B0292264974
:100B84000B6823F4404343F400430B600B6803F405
:100B940040430293029B0221089101230B931023EB
:100BA4000C930E910F9210934FF4A8731193042396
:100BB40012930723139308A800F0D2FC18B1C321A1
:100BC4001648FFF7ADFF0F2303930221049100237E
:100BD40005934FF480520692079303A800F0F6FEA3
:100BE40018B1D1210D48FFF79BFF00F09FFF0C4B7C
:100BF400A3FB0030800900F025FC042000F038FC41
:100C0400002211464FF0FF3000F0DEFB15B05DF816
:100C140004FB00BF00380240007000406426000856
:100C2400D34D621030B589B0FFF74AFEFFF798FF45
:100C3400FFF7D2FEFFF776FF2D4C2E4B23602E4B91
:100C4400A3602E4B63602E4BE3604FF47A70FFF782
:100C54005FFE2C4B93E8030008AB03E9030000227A
:100C640023F81A2D022202A9204600F05DFA01247D
:100C740013E0254D012220212846FFF705FE4FF4FD
:100C84007A70FFF745FE002220212846FFF7FCFD7D
:100C94004FF47A70FFF73CFE0134BDF806309C42F5
:100CA400E7DD02A800F03EFB4FF47A70FFF730FE58
:100CB40004A800F037FB4FF47A70FFF729FE0121F6
:100CC40006A800F00DFB4FF47A70FFF721FE012215
:100CD4004FF4167102A800F04FFB4FF47A70FFF73F
:100CE40017FE01224FF4C87102A800F045FBEAE7A1
:100CF4003400002085090008A1090008B90900088A
:100D0400D50900084424000800000240C3681A788A
:100D1400FF2A03D10133C360014B0360704700BF56
:100D2400290D0008C3681A78FF2A04D10133C3606F
:100D3400034B03607047034B03608368C3607047D1
:100D44004D0D0008110D0008C3681A78FD2A04D15E
:100D54000133C360034B03607047034B0360836834
:100D6400C3607047710D0008110D0008C3681A783C
:100D7400FD2A04D00133C360034B03607047034B67
:100D840003608368C3607047950D0008110D000867
:100D9400C3681A78FF2A06D0FD2A04D00133C36041
:100DA400034B03607047034B03608368C360704761
:100DB400BD0D0008110D0008C36813F8012B8280D3
:100DC400C360014B03607047D10D0008C2681178FD
:100DD400838843EA01239BB28380032B07D907331B
:100DE400202B04DC0132C260034B03607047034BC9
:100DF40003608368C3607047050E0008110D000886
:100E0400C3681A78552A07D18288013A828001334F
:100E1400C360044B03607047034B03608368C36083
:100E2400704700BF310E0008110D0008C36801337C
:100E3400C3608388013B9BB283800BB90123037495
:100E4400704700BF70B5ADF5007D04460E461546EB
:100E54004FF400720A496846FFF714FA002309E0C8
:100E6400F25C82EA14223DF8122082EA0424A4B23D
:100E740001339BB2AB42F3D320460DF5007D70BD28
:100E84004C240008F8B505460C468B1813F8017C71
:100E9400023A8E188B5C43EA072792B20020FFF7D0
:100EA400D1FF874205D04FF48072194B1A8001207C
:100EB400F8BD23792B70237A6B70E71D04F10902C6
:100EC4000023AB7020E0AB78591CA970511C10783A
:100ED4002B44D870CB1B032B15D13B78FF2B11D19E
:100EE4007B78FF2B0ED1BB78FD2B0BD15378FD2BD8
:100EF40005D04FF48072064B1A800120F8BD971C70
:100F0400394600E001370A46B242DCD10020F8BD80
:100F140020000020F8B5202903D90120224B188095
:100F2400F8BD17460D4604468368012098471F4BB9
:100F340023610023A38204F12406A661E66184F8F8
:100F4400203063683A4629463046984728B140F233
:100F54000112154B1A800120F8BD204650F8103FAD
:100F64009847E369A269934203D094F820100129B9
:100F7400F3D194F8201029B94FF480720A4B1A80E7
:100F84000120F8BD9B1A9BB29D4205D04FF480729C
:100F9400054B1A800120F8BD2A46314604F144006D
:100FA400FFF770FFF8BD00BF20000020110D0008FE
:100FB40028B1024643680BB9837803B919B90020F4
:100FC4002C4B188070471378FD2B01D0FF2B03D1D5
:100FD4000020284B1880704770B5937803F10A00FD
:100FE400254CA4FB034300EB5303202B04DD012217
:100FF400204B1A80002070BDFF230B704B70FD2323
:101004008B700023CB7010780871CD1D01F108049A
:101014005078C87117E0601C5668F65C2670461B51
:10102400032E0ED12E78FF2E0AD16E78FF2E07D113
:10103400AE78FD2E04D1A01CFD256570054600E0A8
:1010440001350133044690788342E4DB0D46621A8D
:1010540092B2531F9BB24B711B0A8B710020FFF796
:10106400F1FE214601F8020B000A6070481BC0B271
:1010740070BD00BF20000020ABAAAAAAF8B50446A0
:101084000846174604F124052946FFF791FF78B175
:101094000646A3680020984723683A46B1B228461A
:1010A4009847012806D140F20112034B1A80F8BD7B
:1010B4000120F8BD0020F8BD20000020436893F80B
:1010C400450010F03F0004D040F40070014B18803C
:1010D400012070472000002020B90022114B1A8003
:1010E4000120704710B582B0044603788DF80030B3
:1010F40001228DF8012000238DF802300193694606
:101104004068FFF7BBFF012809D001220E21606867
:10111400FFF700FF012802D02046FFF7CFFF02B0FF
:1011240010BD00BF2000002070B582B00E461546E9
:101134001C460190002323808DF8003012E068469D
:10114400FFF7CAFF48B923885A1C228006EBC30361
:1011540002AA12E9030083E803009DF8003001337A
:101164008DF800309DF80030FC2B03D82288ABB2F8
:101174009A42E4D32088B0FA80F0400902B070BDEE
:101184001E2904D90022224B1A800120704770B511
:1011940084B01546044603788DF8083002238DF890
:1011A400093004238DF80A301A4B5B5C8DF8043047
:1011B40000238DF80530184A565C8DF806608DF8CA
:1011C400073001AB0393012202A94068FFF756FFE1
:1011D40001281BD0012206F10B016068FFF79AFE7B
:1011E400012813D02046FFF769FF01280ED0636859
:1011F40093F847302B80022E07D1626892F848207A
:1012040043EA02232B80002000E0002004B070BDDC
:1012140020000020702600089026000808B50A4621
:101224001E21FFF7ADFF08BD10B582B0436893F8E7
:101234004530DC090CD00DF10601FFF7EFFF012862
:1012440007D0BDF8063043F48063034A138000E0FE
:101254000024204602B010BD2000002038B59DF8BF
:10126400105080B304461E292FD81A48405C1A49EE
:101274000870002048708A70120ACA702178174AD0
:1012840011700DB1032200E0042214494A700233A4
:101294008B70114B4B6001226068FFF7EFFE012851
:1012A40016D001220B216068FFF734FE01280FD00D
:1012B4002046FFF7B9FF01280AD02046FFF7FEFEBB
:1012C400012804D138BD012038BD012038BD0020DB
:1012D40038BD00BF7026000824000020280000202C
:1012E40000B583B0009101231A460E21FFF7B6FF23
:1012F40003B05DF804FB00BF072904D90022084BA2
:101304001A800120704700B583B013460A46009343
:1013140001230F21FFF7A2FF03B05DF804FB00BF18
:101324002000002070B50446FFF7D6FE012822D025
:10133400636893F845300BB9022600E001260025C6
:1013440015E0012231462046FFF7D6FF6368DB68CB
:101354004FF4FA709847012200212046FFF7CCFF92
:101364006368DB684FF4FA7098470135EDB223786F
:101374009D42E6D3002070BDB1F5806F04D30022F6
:10138400074B1A800120704700B583B013460A4604
:10139400009302231321FFF761FF03B05DF804FB00
:1013A40020000020074AD36823F4E0631B041B0CCD
:1013B400000200F4E060184340F0BF6040F40030E5
:1013C400D060704700ED00E030B4164BDB68C3F327
:1013D4000223C3F10704042C28BF04241D1D062D79
:1013E40001D9DD1E00E00025012303FA04F4013CC9
:1013F4002140A940AB40013B1A400A43002806DAC9
:1014040000F00F001201D2B2074B1A5407E0120188
:10141400D2B200F1604000F5614080F8002330BC96
:10142400704700BF00ED00E014ED00E0420900F059
:101434001F00012303FA00F0014B43F82200704718
:1014440000E100E00138B0F1807F0AD2064B586019
:10145400F021064A82F823100020986007221A60BF
:1014640070470120704700BF10E000E000ED00E08D
:10147400042805D1054A136843F004031360704738
:10148400024A136823F004031360704710E000E07D
:10149400704700BF08B5FFF7FBFF08BD08B507207C
:1014A400FFF780FF002211466FF00B00FFF78CFF5F
:1014B400002211466FF00A00FFF786FF0022114652
:1014C4006FF00900FFF780FF002211466FF004005F
:1014D400FFF77AFF002211466FF00300FFF774FF55
:1014E400002211466FF00100FFF76EFF0022114643
:1014F4004FF0FF30FFF768FF08BD00BF0268164BCE
:101504009A4227D110B586B00024009403F5943391
:101514005A6C42F010025A645B6C03F0100300939F
:10152400009B4FF4C06301930223029301230393AE
:10153400032304930723059301A90848FFF7D6F86A
:10154400224621462520FFF73FFF2520FFF76EFFA7
:1015540006B010BD704700BF0010014000000240FB
:10156400002800F0A58130B583B00446036813F069
:10157400010F5AD0A94B9B6803F00C03042B0AD02B
:10158400A64B9B6803F00C03082B0DD1A34B5B689F
:1015940013F4800F08D0A14B1B6813F4003F44D010
:1015A4006368002B41D185E16368B3F5803F05D1C1
:1015B4009A4A136843F48033136015E0B3F5A02FFF
:1015C40009D1964B1A6842F480221A601A6842F4D0
:1015D40080321A6008E0914B1A6822F480321A6053
:1015E4001A6822F480221A6063687BB1FFF78AF9D3
:1015F400054605E0FFF786F9401B642800F25C818C
:10160400864B1B6813F4003FF4D00EE0FFF77AF921
:10161400054605E0FFF776F9401B642800F24E8189
:101624007E4B1B6813F4003FF4D1236813F0020FC0
:1016340050D07A4B9B6813F00C0F0AD0774B9B6801
:1016440003F00C03082B16D1744B5B6813F4800F62
:1016540011D1724B1B6813F0020F03D0E368012B06
:1016640040F02E816D4A136823F0F803216943EAA0
:10167400C10313602EE0E368D3B10122684B1A6002
:10168400FFF740F9054605E0FFF73CF9401B022847
:1016940000F21881614B1B6813F0020FF4D05F4A0B
:1016A400136823F0F803216943EAC103136011E0CE
:1016B40000225B4B1A60FFF725F9054605E0FFF7AA
:1016C40021F9401B022800F2FF80544B1B6813F0E1
:1016D400020FF4D1236813F0080F26D0636993B185
:1016E4000122504B1A60FFF70DF9054605E0FFF79C
:1016F40009F9401B022800F2E980484B5B6F13F0A4
:10170400020FF4D011E00022464B1A60FFF7FAF8FA
:10171400054605E0FFF7F6F8401B022800F2D880E2
:101724003E4B5B6F13F0020FF4D1236813F0040FE8
:1017340061D000230193394B1A6C42F080521A6431
:101744001B6C03F080530193019B374A136843F4E5
:1017540080731360FFF7D6F8054605E0FFF7D2F86B
:10176400401B022800F2B6802F4B1B6813F4807FC5
:10177400F4D0A368012B05D1284A136F43F0010369
:10178400136714E0052B09D1244B1A6F42F00402AD
:101794001A671A6F42F001021A6708E01F4B1A6FAA
:1017A40022F001021A671A6F22F004021A67A36872
:1017B4008BB1FFF7A7F8054607E0FFF7A3F8401B36
:1017C40041F28833984200F28780144B1B6F13F068
:1017D400020FF2D00FE0FFF795F8054606E0FFF799
:1017E40091F8401B41F28833984277D80B4B1B6F1A
:1017F40013F0020FF3D1A369002B71D0074A92684A
:1018040002F00C02082A6DD0022B3ED10022074BB5
:101814001A60FFF777F805460FE000BF0038024072
:1018240000004742800E474200700040600047427B
:10183400FFF768F8401B022856D82F4B1B6813F09B
:10184400007FF5D1E269236A1343626A43EA821393
:10185400A26A5208013A43EA0243E26A43EA026393
:10186400254A53600122254B1A60FFF74BF80446C2
:1018740004E0FFF747F8001B022837D81E4B1B680B
:1018840013F0007FF5D0002033E000221B4B1A60D8
:10189400FFF738F8044604E0FFF734F8001B022889
:1018A40026D8154B1B6813F0007FF5D1002020E0EB
:1018B4000120704701201CE003201AE0032018E0F7
:1018C400012016E0032014E0032012E0032010E0BE
:1018D40003200EE003200CE003200AE0032008E0CC
:1018E400002006E0012004E0032002E0032000E0E1
:1018F400032003B030BD00BF0038024060004742FF
:1019040038B52F4B9B6803F00C03042B55D0082BE0
:1019140001D02C4838BD2A4B5A6802F03F025B685C
:1019240013F4800F20D0264B5B68C3F38813DC00CC
:101934000025690141EAD4616001041B61EB0505DE
:10194400A90141EA9461A001001B61EB0501C018E3
:1019540041F100014B0243EAD053440220461946A8
:101964000023FEF729FD1FE0154B5B68C3F38813C2
:10197400DC000025690141EAD4616001041B61EBCC
:101984000505A90141EA9461A001001B61EB050171
:10199400C01841F100018B0243EA905384022046AF
:1019A40019460023FEF708FD054B5B68C3F30143AA
:1019B40001335B00B0FBF3F038BD034838BD00BF12
:1019C400003802400024F40000127A00002800F0DD
:1019D400978070B50446514B1B6803F00F038B428C
:1019E40008D2CBB24D4A1370136803F00F03994227
:1019F40040F08880236813F0020F17D013F0040F0F
:101A040004D0474A936843F4E0539360236813F087
:101A1400080F04D0424A936843F4604393604048FB
:101A2400836823F0F002A368134383600D462368A0
:101A340013F0010F2FD06268012A05D1384B1B68BF
:101A440013F4003F0ED15FE0931E012B05D8344BF5
:101A54001B6813F0007F05D158E0314B1B6813F06D
:101A6400020F55D02E498B6823F0030313438B6078
:101A7400FEF748FF064606E0FEF744FF801B41F2EE
:101A84008833984246D8264B9B6803F00C0362685F
:101A9400B3EB820FF0D1214B1B6803F00F039D427F
:101AA40007D2EAB21D4B1A701B6803F00F039D4264
:101AB40032D1236813F0040F06D019498B6823F43C
:101AC400E052E36813438B60236813F0080F07D0D8
:101AD400134A936823F46043216943EAC103936082
:101AE400FFF70EFF0E4B9B68C3F303130D4AD35C41
:101AF400D8400D4B18600020FEF7CCFE002070BDCE
:101B040001207047012070BD012070BD012070BD0F
:101B1400012070BD032070BD012070BD003C024057
:101B2400003802404C26000800000020014B1868D1
:101B3400704700BF0000002008B5FFF7F7FF044B13
:101B44009B68C3F38223034AD35CD84008BD00BF1B
:101B5400003802405C26000808B5FFF7E7FF044B95
:101B64009B68C3F34233034AD35CD84008BD00BF2B
:101B7400003802405C26000890F83530DBB2022BB6
:101B840003D08023436501207047052380F8353056
:101B94000268136823F0010313600020704700BF3C
:101BA4000268D36823F49073D3600268536923F006
:101BB40001035361202380F83A30704790F839309C
:101BC400DBB2212B2BD18368B3F5805F0FD1036A7D
:101BD40002681B88C3F30803536003691BB9036AD3
:101BE4000233036209E0036A0133036205E0026819
:101BF400036A591C01621B785360C38C9BB2013B7E
:101C04009BB2C3846BB90268D36823F08003D360AA
:101C14000268D36843F04003D36000207047022079
:101C240070470020704700BF2DE9F843044601685F
:101C34000B6923F44052C36813430B610068C36803
:101C440023F4164222F00C02A16823691943636944
:101C54001943E3690B431343C36021684B6923F4BD
:101C64004072A36913434B61E369B3F5004F40F03D
:101C7400BB80276803F1804303F510439F4203D0E0
:101C840003F580639F4257D1FFF766FF00EB8000A6
:101C940000EB800065686D00B0FBF5F5AB4EA6FB6C
:101CA40005356D092D01FFF757FF00EB800000EBB0
:101CB400800063685B00B0FBF3F9FFF74DFF00EBB6
:101CC400800000EB800063685B00B0FBF3F3A6FBCD
:101CD40003235B094FF0640808FB1393DB003233E2
:101CE400A6FB03235B095B0003F4F8731D44FFF7B1
:101CF40033FF00EB800000EB800063685B00B0FB07
:101D0400F3F9FFF729FF00EB800000EB8000636824
:101D14005B00B0FBF3F3A6FB03235B0908FB1398FA
:101D24004FEAC80808F13208A6FB0836C6F3421683
:101D34003544BD60BDE8F883FFF7FEFE00EB80008C
:101D440000EB800065686D00B0FBF5F57F4EA6FBE7
:101D540005356D092D01FFF7EFFE00EB800000EB68
:101D6400800063685B00B0FBF3F9FFF7E5FE00EB6E
:101D7400800000EB800063685B00B0FBF3F3A6FB1C
:101D840003235B094FF0640808FB1393DB00323331
:101D9400A6FB03235B095B0003F4F8731D44FFF700
:101DA400CBFE00EB800000EB800063685B00B0FBBF
:101DB400F3F9FFF7C1FE00EB800000EB80006368DD
:101DC4005B00B0FBF3F3A6FB03235B0908FB13984A
:101DD4004FEAC80808F13208A6FB0836C6F34216D3
:101DE4003544BD60BDE8F8832668594B9E4203D054
:101DF40003F580639E4254D1FFF7AEFE00EB8000F2
:101E040000EB80006568AD00B0FBF5F54F4FA7FB14
:101E140005356D092D01FFF79FFE00EB800000EBF7
:101E2400800063689B00B0FBF3F8FFF795FE00EBBE
:101E3400800000EB800063689B00B0FBF3F3A7FB1A
:101E440003235B094FF0640909FB13831B0132333D
:101E5400A7FB03235B0903F0F0031D44FFF77CFE9B
:101E640000EB800000EB800063689B00B0FBF3F89C
:101E7400FFF772FE00EB800000EB800063689B00BC
:101E8400B0FBF3F3A7FB03235B0909FB13831B01DB
:101E94003233A7FB0323C3F343131D44B560BDE8EA
:101EA400F883FFF749FE00EB800000EB80006568D3
:101EB400AD00B0FBF5F5254FA7FB05356D092D01E8
:101EC400FFF73AFE00EB800000EB800063689B00A4
:101ED400B0FBF3F8FFF730FE00EB800000EB80006E
:101EE40063689B00B0FBF3F3A7FB03235B094FF08C
:101EF400640909FB13831B013233A7FB03235B092A
:101F040003F0F0031D44FFF717FE00EB800000EB25
:101F1400800063689B00B0FBF3F8FFF70DFE00EB55
:101F2400800000EB800063689B00B0FBF3F3A7FB29
:101F340003235B0909FB13831B013233A7FB032330
:101F4400C3F343131D44B560BDE8F8831F85EB510B
:101F5400001001402DE9F04105460F46164698460B
:101F6400069C1EE0B4F1FF3F1BD02CB1FEF7CAFC67
:101F7400C8EB0000844214D22A68D36823F4D073D7
:101F8400D3602A68536923F001035361202385F841
:101F9400393085F83A30002385F838300320BDE81D
:101FA400F0812B681B6837EA03030CBF012300236D
:101FB400B342D7D00020BDE8F08100BF68B310B5AC
:101FC400044690F8393013F0FF0F04D1002380F851
:101FD4003830FFF793FA242384F839302268D36821
:101FE40023F40053D3602046FFF71EFE22681369D2
:101FF40023F4904313612268536923F02A03536145
:102004002268D36843F40053D3600020E0632023A4
:1020140084F8393084F83A3010BD0120704700BF8D
:102024002DE9F04182B01E4690F83930DBB2202B06
:1020340056D104460D469046002953D0002A53D069
:1020440090F83830012B51D0012380F83830002328
:10205400C363212380F83930FEF754FC0746A4F803
:102064002480A4F8268027E0E38C9BB2013B9BB23A
:10207400E384A368B3F5805F12D100963B46002247
:1020840080212046FFF766FF90BB22682B88C3F3AC
:102094000803536023690BB902350DE001350BE0E9
:1020A40000963B46002280212046FFF753FF08BBE1
:1020B40023682A785A600135E38C9BB2002BD3D174
:1020C40000963B46002240212046FFF743FF03468B
:1020D40090B9202284F83920002284F838200CE0BA
:1020E40002230AE0012308E0012306E0022304E0BE
:1020F400032302E0032300E00323184602B0BDE8F3
:10210400F08100BF2DE9F04182B01E4690F83A30CC
:10211400DBB2202B5BD104460D469046002958D0F3
:10212400002A58D090F83830012B56D0012380F87B
:1021340038300023C363222380F83A30FEF7E2FBF1
:102144000746A4F82C80A4F82E8035E0E38D9BB2DA
:10215400013B9BB2E385A368B3F5805F17D100967A
:102164003B46002220212046FFF7F4FE002836D10A
:10217400236933B923685B68C3F3080325F8023B7A
:102184001AE023685B68DBB225F8013B14E0009693
:102194003B46002220212046FFF7DCFE08BB2369D2
:1021A40023B923685B682B70013505E023685B68FD
:1021B40003F07F032B700135E38D9BB2002BC5D157
:1021C400202384F83A30002084F838000AE0022002
:1021D40008E0012006E0012004E0022002E00320E0
:1021E40000E0032002B0BDE8F08100BF704700BFEB
:1021F40008B50168CB6823F04003CB60202380F846
:102204003930FFF7F3FF002008BD00BF704700BF5F
:1022140008B590F83A30DBB2222B3FD18368B3F58E
:10222400805F13D1826A036943B903685B68C3F3AF
:1022340008031380836A0233836218E003685B68CF
:10224400DBB21380836A0133836210E0036933B91C
:10225400836A5A1C8262026852681A7007E0826AB2
:10226400531C836203685B6803F07F031370C38DA0
:102274009BB2013B9BB2C38593B90268D36823F434
:102284009073D3600268536923F0010353612023E0
:1022940080F83A30FFF7BAFF002008BD022008BDDD
:1022A400002008BD704700BF10B5044602681368DB
:1022B400D168526913F00F0009D113F0200F06D032
:1022C40011F0200F03D02046FFF7A2FF10BD002815
:1022D40062D012F0010202D111F4907F5CD013F0AD
:1022E400010F06D011F4807F03D0E06B40F00100B1
:1022F400E06313F0040F04D01AB1E06B40F0020065
:10230400E06313F0020F04D01AB1E06B40F0040054
:10231400E06313F0080F04D01AB1E26B42F0080234
:10232400E263E26B002A4AD013F0200F05D011F0CB
:10233400200F02D02046FFF76BFF23685B6903F090
:102344004003E26B12F0080F00D1FBB12046FFF707
:1023540027FC23685A6912F0400F13D05A6922F0FF
:1023640040025A61636B4BB1154A1A65606BFFF703
:1023740003FC20B3606B036D984710BD2046FFF744
:1023840091FF10BD2046FFF78DFF10BD2046FFF7DB
:1023940089FF0023E36310BD13F0800F06D011F012
:1023A400800F03D02046FFF709FC10BD13F0400F47
:1023B40005D011F0400F02D02046FFF719FF10BDE1
:1023C400C923000808B5806B0023C385C384FFF7C5
:1023D40069FF08BDDFF834D0002103E00C4B5B58E3
:1023E400435004310B480C4B42189A42F6D30B4A23
:1023F40002E0002342F8043B094B9A42F9D3FEF76A
:1024040099FAFDF717FFFEF70DFC704700800120D5
:10241400C026000800000020040000200400002062
:10242400DC000020FEE70000F8B500BFF8BC08BCE3
:102434009E467047F8B500BFF8BC08BC9E4670477E
:10244400FE00000034000020000005800F800A0018
:102454001B801E0014001180338036003C0039803C
:1024640028002D8027802200638066006C0069802C
:1024740078007D8077807200500055805F805A001C
:102484004B804E0044004180C380C600CC00C9800C
:10249400D800DD80D780D200F000F580FF80FA00FC
:1024A400EB80EE00E400E180A000A580AF80AA00EC
:1024B400BB80BE00B400B180938096009C009980DC
:1024C40088008D8087808200838186018C018981C8
:1024D40098019D8197819201B001B581BF81BA01B4
:1024E400AB81AE01A401A181E001E581EF81EA01A4
:1024F400FB81FE01F401F181D381D601DC01D98194
:10250400C801CD81C781C201400145814F814A0183
:102514005B815E0154015181738176017C01798173
:1025240068016D8167816201238126012C01298163
:1025340038013D8137813201100115811F811A0153
:102544000B810E0104010181038306030C0309833B
:1025540018031D8317831203300335833F833A0323
:102564002B832E0324032183600365836F836A0313
:102574007B837E0374037183538356035C03598303
:1025840048034D8347834203C003C583CF83CA03F3
:10259400DB83DE03D403D183F383F603FC03F983E3
:1025A400E803ED83E783E203A383A603AC03A983D3
:1025B400B803BD83B783B203900395839F839A03C3
:1025C4008B838E0384038183800285828F828A02B7
:1025D4009B829E0294029182B382B602BC02B982AB
:1025E400A802AD82A782A202E382E602EC02E9829B
:1025F400F802FD82F782F202D002D582DF82DA028B
:10260400CB82CE02C402C182438246024C0249827A
:1026140058025D8257825202700275827F827A026A
:102624006B826E0264026182200225822F822A025A
:102634003B823E0234023182138216021C0219824A
:1026440008020D8207820202000000000000000060
:102654000102030406070809000000000102030444
:102664005372632F6D61696E2E63000003040506C7
:10267400080B0C0D0E0F1112000218191B1C1D1E45
:102684002023332527292D2E2F3132000101010269
:102694000201010101020101020101010101010222
:0C26A40002020202020201010101010019
:0826B0003CDDFF7F010000008A
:0426B8000102000813
:0426BC00D901000838
:0426C0000024F400FE
:04000005080023D9F3
:00000001FF
