:020000040800F2
:10000000400D0020A9010008B1010008B30100085B
:10001000B5010008B7010008B901000800000000A0
:10002000000000000000000000000000BB0100080C
:10003000BD01000800000000BF010008911E00087B
:10004000C3010008C3010008C3010008C301000880
:10005000C3010008C3010008C3010008C301000870
:10006000C3010008C30100089D040008C301000883
:10007000C3010008C3010008C3010008C301000850
:10008000C3010008E1020008C301000800000000ED
:10009000000000000000000000000000A3040008B1
:1000A000C3010008C3010008C3010008C301000820
:1000B000C3010008C3010008C3010008C301000810
:1000C000C3010008C3010008C3010008C301000800
:1000D000C3010008C301000821250008000000003A
:1000E00095040008C3010008C301000800000000D7
:1000F000000000000000000000000000C301000834
:1001000000000000C3010008C3010008C30100088B
:1001100000000000000000000000000000000000DF
:10012000C3010008C3010008C3010008C30100089F
:10013000C3010008000000000000000000000000F3
:10014000000000000000000000000000C3010008E3
:10015000C3010008C3010008C3010008C30100086F
:10016000C3010008C30100080000000000000000F7
:10017000000000000000000000000000000000007F
:1001800000000000C30100080000000000000000A3
:10019000C3010008DFF80CD000F05CF8004800470D
:1001A000BD510008400D0020064880470648004722
:1001B000FEE7FEE7FEE7FEE7FEE7FEE7FEE7FEE717
:1001C000FEE7FEE7191F00089501000840EA010359
:1001D0009B0703D009E008C9121F08C0042AFAD2FD
:1001E00003E011F8013B00F8013B521EF9D27047C1
:1001F000D2B201E000F8012B491EFBD27047002269
:10020000F6E710B513460A4604461946FFF7F0FF15
:10021000204610BD034611F8012B00F8012B002ADF
:10022000F9D11846704730B50B4601460020202210
:10023000012409E021FA02F59D4205D303FA02F5F3
:10024000491B04FA02F52844151EA2F10102F1DC53
:1002500030BD0000064C074D06E0E06840F00103A9
:1002600094E8070098471034AC42F6D3FFF796FFA6
:10027000345500085455000870B58C1810F8015B0F
:1002800015F0070301D110F8013B2A1106D110F82F
:10029000012B03E010F8016B01F8016B5B1EF9D133
:1002A0002B0705D40023521E0DD401F8013BFAE7B9
:1002B00010F8013BCB1A921C03E013F8015B01F824
:1002C000015B521EF9D5A142D8D3002070BD0000B9
:1002D0004FF40051014800F023BB00000008024029
:1002E000014800F0F3B80000480800200168182316
:1002F000CAB2103AB2FBF3F2054B6FF30901032ABD
:100300009B5CC36500D9091D8165084670470000E4
:100310001854000810B5014600208B698A6A4FF016
:10032000C07453B1B3F5005F15D072B1012A0CD07F
:10033000022A0AD0032A09D104E01AB1012A06D000
:10034000022A03D1C96AC90100D5012010BDC96ABA
:10035000A142FAD010BD002AF7D0012AF2D0022A19
:10036000F3D0032AF3D010BD2DE9F14F46A084B09D
:10037000D0E90010DFF81891CDE9011000252C46D6
:10038000C9F804500021204604F0AAFA641C032C8A
:10039000F8DB3F4E0024AA464FF0540B16F1280616
:1003A00004EBC40000EB041006EB0015522085F8A6
:1003B0006001C5F868A10121D5F8640104F090FA44
:1003C0008046022000F0BEF90BEB4407B8F1000FA5
:1003D00004D100228821284602F026FF6A46C02167
:1003E000284602F03BFCB0B9BDF80000A0F56E4114
:1003F000AA3910D1F9B2284602F066FC58B985F83E
:1004000060716A46C021284602F028FC18B92846C7
:1004100002F0F2F848B30021204604F061FA641CAF
:10042000032CBDDB0498D8B1002001AA00EBC00169
:1004300001EB001106EB0111D1F868311BB191F805
:10044000613111184B70401C0328EFDB20208DF820
:100450000400104604F07AFA4FF47A7000F072F952
:10046000D9F8040005B0BDE8F08F0121C5F8681186
:10047000D9F80420521CC9F80420D9F81020A14052
:100480001143C9F81010CAE7202020200000000006
:10049000000000204FF4806000F072B9102000F0DE
:1004A0006FB9802000F06CB990F83510022903D0A4
:1004B0008021416501207047052180F835100068D2
:1004C000016821F001010160002070472DE9F84327
:1004D00004464FF00008CDF8008064484FF41651F0
:1004E000A56D0068B0FBF1F72E6894F85C10082049
:1004F00000FA01F131420FD021680A6852070BD58A
:100500000A6822F004020A6094F85C108840A8602F
:10051000606D40F00100606594F85C1054488840BC
:10052000304208D021684969090604D5A860606D89
:1005300040F0020060654E4894F85C10C01C884092
:10054000304208D021680968890704D5A860606D29
:1005500040F00400606594F85C1010208840304240
:1005600018D021680968090714D5A86020680168B7
:10057000490304D50068000308D5A16C07E00168B1
:10058000C90503D4016821F008010160216C09B19B
:100590002046884794F85C102020884030424FF075
:1005A000010631D021680968C9062DD5A86094F8E4
:1005B000350005282068016806D0490347D5006842
:1005C00000031DD4616C1CE021F01601016020685D
:1005D000416921F080014161206C08B9A06C20B113
:1005E0002068016821F00801016094F85C103F2048
:1005F0008840A86084F8348084F83560216D1FE05D
:10060000E16B09B120468847606D00282BD0606DF2
:10061000C00714D0052084F835002068016821F057
:10062000010101600098401C0090B84203D8206886
:100630000068C007F6D184F8348084F83560E16C36
:10064000002910D001B02046BDE8F04308470168FA
:10065000C905D5D4016821F01001016084F8348007
:1006600084F83560CCE7BDE8F8830000D8040020AA
:10067000010080002DE9F041044600F05BF90646D8
:100680005CB1002584F83450022084F835002068DD
:10069000016821F0010101600DE00120BDE8F08159
:1006A00000F048F9801B052805D92020606503204B
:1006B00084F83500F2E720680068C007F0D12268AE
:1006C00011681F480140D4E901031843D4E90336F7
:1006D0003343184363691843A3691843E369184314
:1006E000236A18430843616A042903D1D4E90B1330
:1006F00019430843106020684069666A20F00701CA
:1007000030460E43012704280AD1A06A064320463A
:10071000FFF700FE20B14020606584F83570BCE72B
:10072000206846612046FFF7E1FD94F85C203F21F8
:1007300091408160656584F835700020AEE7000067
:100740003F8010F031B500F0F5F8044600F0F2F803
:100750000099001B8842F9D338BD10B5102809D084
:1007600080280AD0B0F5806F03D10146022001F045
:10077000DDFE10BD01460120F9E701460020F6E745
:10078000044910B50A68024202D00860FFF7E5FF8D
:1007900010BD0000143C01402DE9F84FDFF860B1B6
:1007A00000224FF001084FF0030A4FF00F090BF140
:1007B000040E00BF0B6808FA02F42340A3426ED176
:1007C0004D68022D01D0122D0ED1D50800EB850CFD
:1007D000DCF820505607F70E09FA07F6B5430E6904
:1007E000BE402E43CCF82060066855000F790AFA07
:1007F00005FC07F0030726EA0C06AF403743076005
:100800004E68012E05D0022E03D0112E01D0122EDB
:100810000ED18668CF6826EA0C06AF403743876062
:100820004668A6430C79C4F30014944034434460F2
:10083000C6688C6826EA0C06AC403443C4604C6839
:10084000E40056D52F4C256845F480452560246882
:1008500022F0030504F4804400942B4C2E19D6F8A2
:10086000084895072F0F09FA07F5AC43274DA84212
:1008700001D1002515E0264DA84201D1012510E047
:10088000244DA84201D102250BE0234DA84201D1FD
:10089000032506E0214DA84202D1042501E028E00D
:1008A0000725BD402543C6F80858DBF800405D46E3
:1008B0004E689C43F60300D51C432C60DEF80040D4
:1008C00075464E689C43B60300D51C432C600C4D06
:1008D00008352C684E689C43F60200D51C432C60FA
:1008E000074D0C352C684E689C43B60200D51C435E
:1008F0002C60521C102AFFF45DAFBDE8F88F000099
:10090000003C0140443802400030014000000240F9
:100910000004024000080240000C024000100240A7
:100920000069084000D0012070470AB1816170471A
:100930000904FBE70148006870470000DC04002060
:1009400070B5040004D094F83D00002510B106E015
:10095000012070BD84F83C50204600F005FA2420A8
:1009600084F83D002068016821F00101016000F079
:1009700039FB33492268B0FBF1F15160314A6368B9
:10098000934206D94FF4967359434FF47A73B1FBEF
:10099000F3F12368491C1962616891420BD8490040
:1009A000B0FBF1F2C2F30B02042A01D2042019E0D9
:1009B000B0FBF1F016E0A3689BB301EBC10202EBC0
:1009C0000112B0FBF2F242F48042120530D04BB378
:1009D00001EBC10202EB0111B0FBF1F040F48040E9
:1009E00040F400402168C861D4E907010843216848
:1009F0000860D4E90310084321688860D4E9050140
:100A000008432168C8602068016841F00101016065
:100A10002564202084F83D00256384F83E500020A2
:100A200070BD00E006E001EB4102B0FBF2F2CCE762
:100A30000120D7E701EB4101B0FBF1F0D0E7000066
:100A400040420F00A08601002DE9F84F1F46904656
:100A50008A460446DDF82890FFF76CFF054694F8B7
:100A60003D0020286FD1192301226E4920460095B0
:100A700000F04DFF0028F5D194F83C00012862D029
:100A8000012084F83C0020680168C90703D101688F
:100A900041F0010101602068016821F400610160FA
:100AA000222084F83D00102084F83E0000262664B1
:100AB000C4F8248067855C48E062608D20852B4601
:100AC0004A465146204600F041FE28B1206C84F889
:100AD0003C60042841D04DE0208D544F68B101287E
:100AE00014D002282068016816D041F480610160AA
:100AF000206841698069009085E0206841698169CA
:100B00000091016841F4007101607CE02068016897
:100B100021F480610160F0E721F4806101602068C8
:100B2000016841F40061E2E7032849D801280BD0AD
:100B3000022817D04B46002239462046009500F087
:100B4000E6FEB8B92AE06AE02A464946204600F0A7
:100B500053FF28B1206C20280CD00120BDE8F88F6D
:100B6000206845E04B46002239462046009500F0BB
:100B7000CEFE08B10320F1E72068016841F400715E
:100B8000016020680169606A421C62620170208D08
:100B9000401E2085608D401E6085E1E72068016869
:100BA00021F48061016020680169606A421C626210
:100BB0000170208D401E2085608D401E6085D1E72C
:100BC0002A464946204600F017FF0028C2D1206877
:100BD0000269606A411C61620270208D401E20859E
:100BE000608D401E608520684169C94349070AD469
:100BF0000169606A421C62620170208D401E20857E
:100C0000608D401E6085208D00288DD1202084F8C5
:100C10003D0084F83E6084F83C6000209EE702209E
:100C20009CE70000020010000000FFFF040001002C
:100C30002DE9F84F1F4690468A460446DDF8289075
:100C4000FFF778FE064694F83D0020287DD1192351
:100C5000012243492046009600F059FE00287CD12D
:100C600094F83C00012878D0012084F83C002068EA
:100C70000168C90703D1016841F0010101602068E2
:100C8000016821F400610160212084F83D001020FA
:100C900084F83E0000252564C4F824806785314827
:100CA000E062608D208533464A465146204600F07A
:100CB000BDFD28B1206C84F83C5004284BD00DE0D9
:100CC00020684169806900902FE0324649462046FD
:100CD00000F0C3FE28B1206C042837D00320BDE803
:100CE000F88F606A411C6162216800780861608D3C
:100CF000401E6085208D401E208521684869C043C4
:100D000040070BD457B1606A421C626200780861E8
:100D1000608D401E6085208D401E208532464946EC
:100D2000204600F0CDFD0028D5D1208D0028CCD163
:100D300054F83D0B016841F400710160202004F873
:100D40001E09E57765770020C9E706E0206801689D
:100D500041F4007101600120C1E70220BFE70000FB
:100D6000020010000000FFFF704700000248016809
:100D7000491C016070470000DC0400200B4810B5DE
:100D8000016841F400710160016841F48061016013
:100D9000016841F480710160032000F053F80F20D6
:100DA00000F006F800F018F8002010BD003C0240EA
:100DB00010B5044607484FF47A710068B0FBF1F0B3
:100DC00000F0EDFA00222146501E00F01BF8002032
:100DD00010BD0000D804002010B5072000F032F844
:100DE0000022BDE810401146501E00F00BB800F084
:100DF0001F02012191404009800000F1E020C0F86D
:100E000000117047F0B40E4B1B680C46C3F302236D
:100E1000C3F10705042D00D90425191D072901D2A6
:100E2000002300E0DB1E012606FA05F1491E2140E1
:100E300099409E40761E16403143F0BC00F09ABEA9
:100E40000CED00E0064900F0070208684FF6FF03CA
:100E5000184040EA0220034A10430860704700002F
:100E60000CED00E00000FA052DE9F047DFF8649191
:100E700005460F46D9F8000000F00F01F8B2804691
:100E8000B94208D2014689F80010D9F8000000F0F4
:100E90000F00B84274D128784F4C800705D52068E0
:100EA000A96820F0F000084320602878C00759D0D6
:100EB00049496868083901281AD002281BD003283C
:100EC00019D00968890700295ADA216821F003013D
:100ED00001432160FFF72EFD6968064641F2883024
:100EE000012911D002291DD00329824627D035E0DF
:100EF00009688903E7E709688901E4E7FFF71AFD54
:100F0000811B514501D926E082462068C0F381004B
:100F10000128F3D126E000BFFFF70CFD811B5145EE
:100F200001D918E082462068C0F381000228F3D17D
:100F300018E000BFFFF7FEFC811B51450BD820686D
:100F4000C0F381000328F5D10CE000BFFFF7F2FCED
:100F5000811B514502D90320BDE8F087206810F0BD
:100F60000C0FF3D1D9F80010484601F00F01B94237
:100F700008D980F80080006800F00F00B84201D066
:100F80000120E9E72878400705D52068E96820F4C2
:100F9000E050084320602878000706D520682969BA
:100FA00020F4604040EAC100206000F04BF8216866
:100FB000F02292FAA2F201F0F001B2FA82F2D140EC
:100FC000064A515CC840064908600F20FFF7F0FE52
:100FD0000020C1E7003C02400838024008540008E5
:100FE000D804002008480949006809684FF4E05215
:100FF00092FAA2F201F4E051B2FA82F2D140044A2C
:10100000515CC84070470000D804002008380240F6
:101010000854000808480949006809684FF460420C
:1010200092FAA2F201F46041B2FA82F2D140044A8B
:10103000515CC84070470000D804002008380240C6
:101040000854000830B51948006810F00C01184821
:1010500012D0184C04290ED008290DD11349091FAC
:101060000A6802F03F030A68550247F6C07204D5C9
:10107000B4FBF3F003E0204630BDB0FBF3F00B68A7
:101080000968134092FAA2F2B2FA82F2D3405843AE
:101090004FF4403292FAA2F201F44031B2FA82F2F5
:1010A000D140491C4900B0FBF1F030BD0838024086
:1010B0000024F40040787D012DE9F84F0446DFF864
:1010C000CC820078A8F1040BC007ABF1040537D03F
:1010D000D8F800104046C1F38101012908D000680A
:1010E000C0F3810002280AD1DBF80000400206D5D7
:1010F0002868800324D56068002878D020E0A349C0
:101100002079891F0870606868B1FFF713FC0646F4
:1011100005E000BFFFF70EFC801B642868D8286834
:101120008003F7D50CE0FFF705FC064605E000BF9D
:10113000FFF700FC801B6428F0D828688003F7D4F0
:101140002078934E80074FF0010A4FF0000742D5F8
:10115000D8F80010404611F00C0F08D00068C0F31A
:10116000810002280AD1DBF80000400206D428687A
:10117000800714D5E068012839D110E0E068D8B1C3
:10118000C6F800A0FFF7D6FB814605E0FFF7D2FBCB
:10119000A0EB09000228C1D828688007F6D5286886
:1011A000F82292FAA2F22169B2FA82F220F0F80053
:1011B0009140084328600EE03760FFF7BBFB814693
:1011C00006E000BFFFF7B6FBA0EB090002280FD82E
:1011D00028688007F6D42078000728D56D48616913
:1011E000A1B1C0F800A0FFF7A5FB814608E0CAE066
:1011F00079E000BFFFF79EFBA0EB0900022872D840
:1012000062486C3000688007F4D510E00760FFF793
:1012100091FB814606E000BFFFF78CFBA0EB0900C5
:10122000022860D859486C3000688007F4D42078D0
:10123000400749D555483830016841F08051016078
:10124000006800F0805000905348016841F48071BC
:101250000160FFF76FFB814606E000BFFFF76AFB06
:10126000A0EB090002283ED84B480068C005F5D520
:10127000DFF81891207A09F1680989F80000A06860
:1012800088B1FFF757FB009008E000BFFFF752FB63
:101290000099411A41F2883081426CD8D9F8000097
:1012A0008007F3D510E0FFF745FB009008E000BF92
:1012B000FFF740FB0099411A41F2883081425AD829
:1012C000D9F800008007F3D4A069E0B3D8F8001083
:1012D000C1F38101022956D00228376604D0FFF7F6
:1012E00029FB04464AE046E0FFF724FB074604E0FA
:1012F000FFF720FBC01B02283DD828688001F7D4E7
:10130000D4E90701084347F6C07292FAA2F2616A73
:10131000B2FA82F29140A26A4FF0FF3303EB52021D
:101320004FF4403393FAA3F3B3FA83F39A40114393
:1013300008434FF0706292FAA2F2E16AB2FA82F2C6
:101340009140084300E01CE0CBF80000C6F860A024
:10135000FFF7F0FA044604E0FFF7ECFA001B02285E
:1013600009D828688001F7D50BE000BFFFF7E2FA43
:10137000001B022802D90320BDE8F88F28688001ED
:10138000F4D40020F8E70120F6E700000838024016
:1013900000004742800E474200700040704710B581
:1013A000401EB0F1807F01D3012010BD4FF0E0243A
:1013B00060610F21601700F0DDFB0020A0610720B5
:1013C0002061002010BD10B5FFF7E8FF10BD30B55B
:1013D00090F83820012A20D0012280F838200223FA
:1013E00080F8393003685C6824F070045C6003683E
:1013F0005C680D682C435C6003689C6824F0800482
:101400009C6003689C6849680C439C6080F83920A4
:10141000002180F83810084630BD022030BD02217E
:1014200080F8391001680A6842F001020A6001215F
:1014300080F839100020704770B5044690F83800E5
:1014400001280DD0012584F83850022084F8390095
:1014500042B1042A0AD0082A0CD00C2A11D10DE07E
:10146000022070BD206800F0C9FD0AE0206800F08D
:10147000EDFD06E0206800F015FE02E0206800F0B7
:101480003DFE84F83950002084F8380070BD10B556
:10149000040003D094F8390010B107E0012010BD1A
:1014A000002084F83800204600F00CF8022084F870
:1014B0003900211D206800F059FD012084F8390011
:1014C000002010BD08B501680B48B1F1804F0BD06A
:1014D0000A4A914207D1016841F0080101600068A1
:1014E00000F00800009008BD016841F001010160B2
:1014F000006800F00100F5E740380240000C0040B1
:101500007047000070B5026804461068D1685369DE
:1015100010F00F0F51D003F0010501F49076354320
:101520005DD0C20705D0CA0503D5E26B42F00102C7
:10153000E263420705D5DA0703D0E26B42F002020C
:10154000E263820705D5DA0703D0E26B42F00402BA
:10155000E263020705D5DA0703D0E26B42F0080226
:10156000E263E26B002A34D0800604D5880602D5F7
:10157000204600F007FE20684069E16BC0F3801050
:1015800001F008010143204624D000F0EDFD206861
:10159000416949061AD5416921F040014161606BFA
:1015A000A0B11B490165606BFEF77EFF002810D0DB
:1015B000606B016DBDE87040084783060FD58B0650
:1015C0000DD52046BDE8704000F0DCBD2046FFF799
:1015D00097FF70BDFFF794FF0020E06370BD030626
:1015E00006D50B0604D52046BDE8704000F066BF66
:1015F0004006F3D54806F1D5D168204621F04001D8
:10160000D160202184F8391000F07DF870BD000011
:101610005921000870B5040004D094F83900002561
:1016200010B106E0012070BD84F83850204600F06B
:1016300023F8242084F839002068C16821F400517F
:10164000C160204600F0E4FD2068016921F490416A
:1016500001612068416921F02A0141612068C16867
:1016600041F40051C160E563202084F8390084F81A
:101670003A00002070BD000070B5064600681C49A5
:1016800086B0884232D11B480025016841F4003100
:1016900001600068694600F4003005900C2000905D
:1016A0000220CDE901050720CDE903501248FFF7DC
:1016B00073F8134C114820604FF0006060604020C8
:1016C000C4E902050001C4E90405A561E5612562DC
:1016D00020466562FEF7CEFF3463002211462620C5
:1016E000A663FFF78FFB2620FFF781FB06B070BDD6
:1016F000004400404038024000000240A060024028
:1017000048080020704770471FB5024603A168468D
:1017100003F072FA684603F019F9FEE74572256492
:101720000000000001684A69D24352050CD46FF4EE
:1017300080624A6104210164002140F8301F2022A8
:101740004273017301207047002070472DE9F84F64
:101750000446C06A1E4692460D4621680A6842F455
:1017600080620A60042807D0012805D010F5803F68
:1017700002D0206B112804D12068016841F48071E7
:1017800001604FF001185346002241462046009662
:1017900000F0BDF8B8BB206908F10109B0F5804F31
:1017A00012D00620216800EAD51747F0F000086142
:1017B0003346524608F10701204600F0D9F838B107
:1017C000206C04282FD01EE0E8B240F001001FE09A
:1017D0002168E8B20861334652464946204600F087
:1017E000C7F80028ECD1206841698169009101683F
:1017F00041F4807101605346002241462046009624
:1018000000F085F810B10320BDE8F88F47F0F10033
:1018100021680861334652464946204600F0A8F840
:101820000028CDD1F0E70120EEE70000F8B504462E
:10183000C06A1E460D461746042807D0012805D069
:1018400010F5803F02D0206B122804D12068016877
:1018500041F480710160134600224FF001112046CF
:10186000009600F054F8A0B92069B0F5804F12D06E
:101870000620216800EAD51040F0F00008613346E8
:101880003A460E49204600F073F838B1206C04281F
:1018900011D00320F8BD05F0FE0000E0E8B2216899
:1018A0000861064933463A46891F204600F060F831
:1018B0000028EBD1F8BD0120F8BD000008000100B0
:1018C00070B516460D4604461AE02046FFF72AFF7B
:1018D00008B1012070BD681C12D025B1FFF72AF8AD
:1018E000801BA8420CD954F8400F40F0200044F867
:1018F000100900202060202161732073032070BD37
:1019000020684069C0434007DFD4002070BD2DE946
:10191000F0471E4690460D460446C1F30747DDF8E2
:10192000209012E0701C10D02EB1FFF703F8A0EB4E
:101930000900B04209D9002044F8300F202161731A
:10194000A07320730320BDE8F0872068012F0AD020
:10195000806925EA00000004000C06D00021414502
:10196000E0D00020EFE74069F3E70121F7E700004E
:101970002DE9F0479A4691460D46044600264FF061
:101980002008C1F307472AE020684069C0434005AA
:1019900012D42068016841F40071016021686FF47D
:1019A0008060486104202064266384F83D8084F8C8
:1019B0003C600120BDE8F087B9F1FF3F0FD0B9F1DD
:1019C000000F05D0FEF7B6FFA0EB0A01494506D986
:1019D00044F8306F84F80D8026730320EAE720680E
:1019E000012F07D0D0F8180025EA00000004000CF1
:1019F000E0D0C9E74069F7E72DE9F04100259046BE
:101A00000E460446202721E04069C043C0060CD49E
:101A100021686FF0100048612564256384F83D70EB
:101A200084F83C500120BDE8F0812EB1FEF782FF22
:101A3000A0EB0800B04209D954F8400F40F0200054
:101A400044F80409677025700320ECE720684169B9
:101A5000C9434906D8D40020E5E770B516460D46BF
:101A600004461AE02046FFF75DFE08B1012070BD74
:101A7000681C12D025B1FEF75DFF801BA8420CD96F
:101A800054F8400F40F0200044F810090020206076
:101A9000202161732073032070BD20684069C0431A
:101AA0000006DFD4002070BD10B51C4886B00024AD
:101AB000016841F004010160016801F00401059131
:101AC000016841F080010160016801F08001059129
:101AD000016841F001010160016801F00101059117
:101AE000016841F0020101600068694600F00200EF
:101AF00005904FF4005000900948CDE901040948D1
:101B0000FEF74AFE202000900120CDE9010469463D
:101B100005480394FEF740FE06B010BD3038024081
:101B200000001210000802400000024010B51048EA
:101B30008AB00E49016053210024C0E90114611EDE
:101B4000C0E90314FFF7A3FC079407A90848089409
:101B5000FFF73DFC0094019402940022694604487A
:101B60000494FFF769FC0AB010BD0000000C0040AF
:101B7000CC0700200907090E002806DA00F00F0044
:101B800000F1E02080F8141D704700F1E02080F89B
:101B90000014704770B5FEF7CDFE04464FF47A7519
:101BA00008E000BFFEF7C6FE001BA84202D908A04D
:101BB00002F0CCFEFEF78CFB0028F3D0FEF7BAFE55
:101BC000001BA84201D9012070BD002070BD00009B
:101BD00020726220000000002DE9FC4706464FF00D
:101BE0000009084600F0D2F800203C4905460123D0
:101BF00003FA00F2984632420CD000EBC00202EB2E
:101C0000001201EB0212D2F868211AB16D1C012DED
:101C100000D18146401C0328EADBDDB18A46012D54
:101C20002BDD2FA16846FEF7F5FA002707EBC7006A
:101C300000EB07110AEB0114D4F86801C8B108FAE7
:101C400007F0304215D02046274900F0AEFF28B1FA
:101C500002201EE04FF0FF30BDE8FC8720462249FD
:101C600000F076F82049204600F048F80DEB070117
:101C700048707F1C032FD9DB26E009EBC90101EB7B
:101C800009110AEB01100446174900F08EFF10B14C
:101C90000120FFF739FD2046134900F059F812489A
:101CA000007E40B111A1684602F0A6FF94F86101E0
:101CB0008DF8000008E0D4F878010A2190FBF1F2D9
:101CC0000CA1684602F098FF684602F03FFEFEF75E
:101CD000FFFA0028A3D1FFF75DFFBDE72800002031
:101CE0002020202000000000B00700202D2D2D2DE9
:101CF000000000002533646300000000097E09B184
:101D00002D2070470749D0F878018A68904201DA9F
:101D10005F207047C968884201DA3D2070477E2005
:101D2000704700000000002010B5FEF71DFB0028E2
:101D300006DD012808D10548D0F8F802002803D1B3
:101D40004FF0FF30FFF7E0FC10BD0000280000203E
:101D50000A7E1AB10121C0F87C117047D0F87C21AD
:101D600022B10022C0F87C2109890AE0064A0989CB
:101D70001268C2F580734B43D0F8781101FB023131
:101D80000912C0F878117047000000202DE9F14FCA
:101D9000DFF8F4B084B04FF480484FF4901748F265
:101DA000E8064FF00E0A4FF00A09002505EBC500C2
:101DB00000EB05110BEB0114D4F86801002852D098
:101DC000204601F061F9204601AA694600F0D7FEDD
:101DD000204603AA02A900F0D5FE2046002100F00B
:101DE00077FF20460122002101F020F80122204641
:101DF000114601F01BF8049820B1012839D00228BF
:101E000011D109E041F699184FF4701748F2E8062D
:101E10004FF0120A0E2005E04FF480484FF490175F
:101E20001A4E2CE0814620464246012101F03FF83F
:101E300020463A46002101F03AF82046314601F0AA
:101E40005EF820465246002101F0B2F820464A468C
:101E5000012101F0ADF8204601AA694600F08FFE8D
:101E60000120C4F87C016D1C032D9FDB05B0BDE88B
:101E7000F08F4FF480484FF4001744F620664FF07F
:101E80000E0A0A20CEE7000028000020400D0300C3
:101E900010B5FEF76BFFBDE81040FFF794BA0000E5
:101EA00030B51B4893B00024016841F080510160B7
:101EB000006800F0805011901648016821F44041FC
:101EC00041F4004101600068022500F44040119097
:101ED0000120039006200490009506951020CDE97E
:101EE00007404FF4A870099004200A9007200B9037
:101EF0006846FFF7E1F80520CDE90C05E802CDE9D9
:101F00000E4002210CA81094FEF7AEFF13B030BDB6
:101F100040380240007000401048016841F47001F0
:101F200001600F48016841F0010101600C4A002185
:101F30000832116002680B4B1A400260031D0A4A06
:101F40001A60026822F48022026005480C300160A9
:101F500002495806803908607047000088ED00E0AB
:101F600000380240FFFFF6FE10300024F0B5026892
:101F70001B4B1C4C9F031C4D1C4E984207D0B84273
:101F800005D0A04203D0A84201D0B04204D122F033
:101F9000700C4A6842EA0C02984210D0B8420ED047
:101FA000A0420CD0A8420AD0B04208D0104CA042A7
:101FB00005D0104CA04202D00F4CA04203D122F415
:101FC0004074CA68224302608A68C2620A688262F8
:101FD000984201D10969016301214161F0BD00000E
:101FE000000001400004004000080040000C0040D8
:101FF00000400140004401400048014030B5026A01
:1020000022F001020262026A4368846924F07305C7
:102010000C682C4322F002058A682A430A4DA84224
:102020000BD122F00805CA6823F440732A434D6996
:1020300022F004021D438B692B434360846149688D
:102040004163026230BD00000000014030B5026A09
:1020500022F010020262026A436884690D6824F467
:10206000E64444EA05248D6822F0200242EA051283
:102070000B4DA8420ED1CD6822F0800242EA051233
:102080004D6923F4406343EA85038D6922F04002E1
:1020900043EA85034360846149688163026230BD1D
:1020A0000000014030B5026A22F480720262036AC5
:1020B0004268C46923F4007324F073050C682C4350
:1020C0008D6843EA05230C4DA8420ED1CD6823F458
:1020D000006343EA05234D6922F4405242EA0512A7
:1020E0008D6923F4806342EA05124260C461496845
:1020F000C163036230BD00000000014030B5026AD8
:1021000022F480520262046A4268C3690D6823F4B3
:10211000E64343EA05238D6824F4005444EA053479
:10212000064DA84204D14D6922F4804242EA85124C
:102130004260C36149680164046230BD000001402F
:1021400010B50448FFF76BF902490020096848629E
:1021500010BD0000CC07002010B5806B0021C185A8
:10216000C184FFF7CDF910BD0168CA6822F49072EE
:10217000CA6001684A6922F001024A61202180F8A0
:102180003A10704710B590F83A10222901D0022079
:1021900010BD8168B1F5805F11D001690029016827
:1021A0001FD0496801F07F03816A4A1C82620B706C
:1021B000C18D491E0904090CC18518D026E00269A9
:1021C000816A002A0268526805D0D2B20A80816A08
:1021D000491C8162ECE7C2F308020A80816A891C0B
:1021E000F7E74A68816A4B1C83620A70E0E701687E
:1021F000CA6822F49072CA6001684A6922F001023A
:102200004A61202180F83A10FFF77CFA002010BDC7
:102210002DE9F04104460068016921F44052E1686B
:10222000114301612168C86849F20C629043236937
:10223000A268E5691A4363692B431A430243CA60E3
:102240002168486920F44072A06910434861E1693F
:102250006425B1F5004F9748974A21684FF032083E
:102260003FD0914201D081427CD1FEF7D3FE00EBFA
:10227000C00101EB001061688900B0FBF1F6FEF7C8
:10228000C9FE00EBC00101EB001061688900B0FBE2
:10229000F1F0B0FBF5F06FF01801484306EB800158
:1022A00008EB0110B0FBF5F000F0F006FEF7B2FE0F
:1022B00000EBC00101EB001061688900B0FBF1F098
:1022C000B0FBF5F006EB0016FEF7A4FE00EBC00134
:1022D00001EB001061688900B0FBF1F7FEF79AFE90
:1022E000D2E0914201D081423DD1FEF793FE00EB56
:1022F000C00101EB001061684900B0FBF1F0B0FBD8
:10230000F5F00601FEF786FE00EBC00101EB0010C0
:1023100061684900B0FBF1F7FEF77CFE00EBC001FD
:1023200001EB001061684900B0FBF1F0B0FBF5F083
:102330006FF01801484307EB800108EBC100B0FBC8
:10234000F5F000F0F80006EB4006FEF763FE00EB48
:10235000C00101EB001061684900B0FBF1F7FEF726
:1023600059FE3CE055E0FEF73DFE00EBC00101EBFD
:10237000001061684900B0FBF1F0B0FBF5F0060118
:10238000FEF730FE00EBC00101EB00106168490070
:10239000B0FBF1F7FEF726FE00EBC00101EB0010E9
:1023A00061684900B0FBF1F0B0FBF5F06FF0180187
:1023B000484307EB800108EBC100B0FBF5F000F0EB
:1023C000F80006EB4006FEF70DFE00EBC00101EB46
:1023D000001061684900B0FBF1F7FEF703FE00EB67
:1023E000C00101EB001061684900B0FBF1F0B0FBE7
:1023F000F5F06FF01801484307EB800108EBC100CE
:10240000B0FBF5F000F00700216830448860BDE8BB
:10241000F081FEF7E7FD00EBC00101EB0010616801
:102420008900B0FBF1F6FEF7DDFD00EBC00101EB2A
:10243000001061688900B0FBF1F0B0FBF5F06FF0BF
:102440001801484306EB800108EB0110B0FBF5F0E2
:1024500000F0F006FEF7C6FD00EBC00101EB001036
:1024600061688900B0FBF1F0B0FBF5F006EB0016F7
:10247000FEF7B8FD00EBC00101EB001061688900B8
:10248000B0FBF1F7FEF7AEFD00EBC00101EB001071
:1024900061688900B0FBF1F0B0FBF5F06FF0180156
:1024A000484307EB800108EB0110B0FBF5F000F0AA
:1024B0000F00A9E7001401400010014090F8391006
:1024C000212901D0022070478168B1F5805F016A3F
:1024D0000BD04A1C0262026809785160C18C491E07
:1024E0000904090CC1840ED017E009880268C1F301
:1024F0000801516001690029016A02D0491C01628A
:10250000ECE7891CFBE70168CA6822F08002CA6018
:102510000068C16841F04001C160002070470000C0
:102520000148FEF7EFBF00000808002070470000D8
:102530007CB50446002094F8DA200D46012A03D029
:10254000022A01D0032A14D101AB6A460121204698
:1025500000F091F9009A4FF47F018A4202D8019A63
:102560008A4206D9002804D125B10F49204601F03E
:10257000E1FC7CBD0422FF21204600F055FE05460B
:1025800000227021204600F04FFE05430022FF216B
:10259000204600F049FE054300228021204600F03D
:1025A00043FE28437CBD0000D3050020F8B5064655
:1025B000002401220B21304600F036FE074600229F
:1025C0000B21304600F030FE40EA07056A46132131
:1025D000304600F00BFB641C9DF800102843E4B269
:1025E000490704D0032C04D20028E2D0F8BD032C04
:1025F000FCD36FF00B00F8BDF0B591B0044600229B
:10260000882100F011FE002584F8F0504FF47A7014
:10261000A4F852014FF4C870A4F854015748C4F804
:10262000580157482562C4F8D4006946204600F096
:10263000A9F8060009D18DF800508DF8015040220C
:10264000694604F11000FDF7C1FD6420A4F83401CF
:102650004FF46170A4F836014FF4FA70A4F8380111
:102660004FF42060A4F83C01012784F850713A46E9
:102670008021204600F0D8FD06430122FF2120469C
:1026800000F0D2FD064300221146204600F0CCFDAA
:10269000064310AA9121204600F0A8FA06439DF8AF
:1026A000400084F83A0101220021204600F0BCFDE0
:1026B00006430022FF21204600F0B6FD064300221B
:1026C0008021204600F0B0FD30430026002852D182
:1026D000B1B20122204600F0A9FB761C062EF5DBE4
:1026E000002848D100220221204600F09FFB00284C
:1026F00041D100220321204600F098FB00283AD166
:1027000000220421204600F091FB002833D1002252
:102710000521204600F08AFB00282CD14FF49012AE
:102720000021204600F0C3FB002824D14FF4804252
:102730000121204600F0BBFB00281CD14FF40C12F5
:102740000221204600F0B3FB002814D1002203210F
:10275000204600F0ACFB00280DD1FF2084F83001AA
:1027600002460121204600F05FFD84F83271002806
:1027700001D184F8155111B0F0BD0000856B010046
:10278000A470090070B506460C46007C01F8080BE1
:10279000304600F044F8002833D1207304F11001D2
:1027A000304600F0D6F900282BD104F11401304650
:1027B00000F0E2F8002824D1002501E0002820D113
:1027C00004EB8502A9B23046243200F07AF80028E2
:1027D00017D16219A9B23046183200F066F86D1CA4
:1027E000062DEBDB00280CD104F13C01304600F053
:1027F00095F9002805D1211D3046BDE8704000F054
:10280000B9B870BD10B50C460A46092100F0EEF9C2
:10281000002803D1217801F00101217010BD3EB5DF
:102820000C46054602AAF82100F018FA00280ED13D
:102830006A460421284600F0EDF9002807D1BDF8CA
:10284000081029B1009AB2FBF1F12160A9613EBDE7
:102850002168FBE738B50C466A46132100F0C6F93B
:102860009DF8001001F0070211F0180F226001D04E
:102870006FF0050038BDF8B515461C4606466A4699
:102880000E2100F0EBF9BDF800100905C908296018
:10289000002809D16A460C21304600F0DFF9BDF866
:1028A00000100905C9082160F8BD0346002006296B
:1028B00002D3001F002102E0194491F82810117082
:1028C0007047F8B504460020154606292DD2DFE8EA
:1028D00001F00305191B1D1D646B24E06A464421A9
:1028E000204600F0BBF9002803D1BDF800104FEAE4
:1028F000412606D1E6B12E604FF00101A66384F8AF
:102900002910F8BDE46B0EE0246C0CE06A464FF031
:102910006401204600F0A2F9002803D1BDF80010A0
:102920004FEA4124EDD12C60F8BD6FF00300F8BDF3
:10293000A16B29604FF00001E1E77CB50C4690F8EF
:10294000DA100025012604290AD06A46142100F075
:102950004DF900280BD19DF80010C90706D007E0FB
:1029600001A9FFF777FF0199042901D025707CBDEB
:1029700026707CBD01F01BB901F07BB9F0B58DB0BC
:102980000C4605460C2302AA142100F085F9060026
:102990007ED10021A17521609DF813009DF81220C1
:1029A000616000EB02209DF80F209DF80E304FF47F
:1029B0007A7E02EB03221204D209E2609DF8113004
:1029C0009DF8106080B203EB06231B04DB09236132
:1029D0009DF80B309DF80A6003EB06239BB2A3829F
:1029E000B5F852619DF8087095F831C176451FD051
:1029F000464306F5FA7696FBFEF02E8C95F81CE021
:102A000080B2B6B2BEF1000F12D05E43B2EB262FF9
:102A100008D1BCF1000F02D042F2B82008E048F61D
:102A2000E0200DE05043A2EB2626B0FBF6F080B28A
:102A3000BCF1000F04D0810821818001E07501E024
:102A40002081E1750CA8CDE900403946284601F007
:102A50002BF9060024D19DF8307005F1500127763E
:102A60001C220D4605A8FDF7B1FB2089ADF81C001E
:102A7000E07D8DF82B006089ADF81E00606806903F
:102A8000E068089020690990A08AADF8280000E06D
:102A900006E08DF82C701C2205A92846FDF796FB50
:102AA0000DB03046F0BD38B5054600200C468DF817
:102AB00000006A460121284600F098F800282AD133
:102AC00023469DF800200021284602F0FBFB002849
:102AD00021D1A31C9DF800200121284602F0F2FB21
:102AE000002818D1631C9DF800200221284602F01E
:102AF000E9FB00280FD1E31C9DF8002003212846A4
:102B000002F0E0FB002806D1231D9DF800200421DF
:102B1000284602F0D7FB38BD01F0DEB938B50C46C7
:102B200005466A46012100F061F800280BD19DF8A6
:102B3000001085F83011090601D5012100E00021BF
:102B4000217085F84C1038BD02460020127F0A70B3
:102B5000704738B50D4604466A46202100F07EF8DD
:102B6000002807D1BDF8001029B1C90029602162F1
:102B70000121217738BD216A29600021F9E701236D
:102B800001F07FBA01F09DBA70B5047C054614B916
:102B900000F010FA10B9284601F01EFA50EA0401BC
:102BA00002D1032185F8321170BD70B50C4605467F
:102BB000002100F08DF8002810D12846FFF7E4FF2F
:102BC00000280BD121462846FFF7D8FE002805D162
:102BD0002846BDE870400021FFF7E8BC70BD10B585
:102BE00000240220FDF7AEFD204610BDF7B51646C5
:102BF00007460024012201A901F062FF6FF01305CE
:102C000028B901223146384601F04AFF00B12C466E
:102C10002046FEBDF7B5164607460024012201A94D
:102C200001F04EFF6FF0130528B904220A49384617
:102C300001F036FF08B12C460BE00748C178027856
:102C400001EB026142788078120402EB0020084414
:102C500030602046FEBD0000A8080020F7B51646EB
:102C600007460024012201A901F02AFF6FF0130595
:102C700028B902220749384601F012FF08B12C4654
:102C800005E004484178007801EB002030802046C0
:102C9000FEBD0000A80800202DE9FF4117461E4692
:102CA00080460024012201A901F00AFF6FF01305FC
:102CB00028B932463946404601F0F2FE00B12C46B2
:102CC00004B02046BDE8F0814A088A2100F0ACBA81
:102CD0000246002003290BD003DC49B1012904D1AD
:102CE00006E0142904D0152902D06FF007007047C0
:102CF0001174704770B51C46049E054611B16FF003
:102D0000090070BD142A08D0152A0FD0052C6FD2E7
:102D1000DFE804F066686A6C6F002EB10122BDE83E
:102D20007040842100F080BA1022F8E70122FF21D0
:102D300000F07AFA044600221146284600F074FAA0
:102D400004430022FF21284600F06EFA04430122CA
:102D50008021284600F068FA044302228521284693
:102D600000F062FA04430422FF21284600F05CFAD6
:102D700004430022CD21284600F056FA04431122D4
:102D8000CC21284600F050FA04430722FF212846B0
:102D900000F04AFA04430022BE21284600F044FA1B
:102DA00004430622FF21284600F03EFA044309228C
:102DB000CC21284600F038FA04430022FF2128469F
:102DC00000F032FA04430122FF21284600F02CFAD9
:102DD000044300221146284600F026FA204370BD25
:102DE000002207E0012205E0022203E0032201E0C5
:102DF00017E004220A21284600F016FA0028EED136
:102E000096B11023EF228421284600F0F7F900281C
:102E1000E5D185F8DA402846BDE870400021FFF78B
:102E2000C5BB6FF00A0070BD0023EBE72DE9F04150
:102E3000044600200D461646071F0346014602467B
:102E4000062D02D33846BDE8F08156B104EB85016A
:102E50004B6B0121062DF5D2DFE805F005080F12B6
:102E600015180122F6E784F8281017E0C3F34F2263
:102E70004421204600F0EAF90EE084F82A100DE023
:102E800084F82B100AE05300FE2201E01301EF2228
:102E90006021204600F0B2F90028D4D1611926B192
:102EA0005FF0010281F82820CDE70022FAE770B533
:102EB00014460022431800EB810593F82830DBB15B
:102EC000C4F34F23062914D2DFE801F00305080AF2
:102ED0000C0C446310E01A46442105E0C4630BE087
:102EE000046409E01A46642100F0B0F9020003D03E
:102EF00003E06FF0030200E06C63104670BD01F068
:102F00009EBA2DE9F8430746002090460E468DF8FC
:102F100000006A4601213846FFF768FE05009DF86B
:102F2000000004462ED1291FB8F1010F06D0052E4E
:102F30002CD2DFE806F0191C1F222500052E25D211
:102F4000DFE806F00306090C0F0044F0100419E056
:102F500044F0280416E044F0040413E044F0400474
:102F600010E044F080040DE004F0EF040AE004F007
:102F7000D70407E004F0FB0404E004F0BF0401E020
:102F800004F07F04844210D015B10EE00D460CE031
:102F900022460121384600F047F9050005D187F89F
:102FA000304138467969FFF7AAFF2846BDE8F88323
:102FB00001F0F9BAF8B501250646047C2A468021BD
:102FC00000F032F90122FF21304600F02DF90022F5
:102FD0001146304600F028F996F83A219121304602
:102FE00000F022F901220021304600F01DF90022F4
:102FF000FF21304600F018F900228021304600F011
:1030000013F93CB10425012C26D0032C2FD06FF0EE
:103010000700F8BD01220021304600F005F98DF8C7
:1030200000500028F5D100244FF4FA6705E024B1E0
:103030006A4600213046FFF7D9FD9DF80020641C48
:1030400025EA0201014304D0BC42E2D36FF006003E
:10305000F8BDBC42EBD3F9E718B901213046FFF7C0
:1030600067FA022209E000BF86F83251F8BD18B9AC
:1030700001213046FFF75CFA04220021304600F0BF
:10308000D3F80028F0D0F8BD30B597B00446402101
:1030900001A8FDF7B4F800258DF84450ADF8505064
:1030A0008DF8545001212046169500F0ECFA94F862
:1030B000142194F81311012A06D802D1202903D82B
:1030C00008E03AB90C2905D915AA16A9204600F03E
:1030D000F8FF02E0204601F013FA474900287DD1AD
:1030E00094F8500108B9D4F84C11204600F022FFA2
:1030F00000287ED100220423114620460095FFF7C8
:10310000F9FD002875D10122FF21204600F08CF83E
:10311000054614AA84212046FFF7A0FD054300229E
:10312000FF21204600F080F8284362D1BDF850000E
:1031300001A90001C4F8D4002046FFF723FB0028B2
:1031400057D111A92046FFF75DFB002851D19DF80A
:10315000440084F83101402201A904F11000FDF778
:1031600035F811AA01212046FFF740FD002840D183
:103170009DF8440084F83001002211462046FFF7F4
:10318000C0FE002835D1002202212046FFF7B9FEFB
:1031900000282ED1032084F8320112AA00212046F3
:1031A000FFF7BAFC002824D19DF8480084F8E80015
:1031B00012AA01212046FFF7AFFC002819D19DF883
:1031C000480084F8E00013AA0321204601F070FFB4
:1031D00000280ED1139813AA042100E009E0C4F8D6
:1031E000E400204601F064FF002802D11399C4F8DE
:1031F000DC1017B030BD0000E0040020F8B5154623
:103200001C460E4607466A46FFF7F0FC002809D127
:103210009DF8002031462A4022438DF80020384690
:1032200000F002F8F8BD0000034610B5064800247F
:103230000170427001460222184601F041FC08B1BB
:103240006FF01304204610BDA8080020034610B5F7
:10325000074800240170110A417082700146032260
:10326000184601F02DFC08B16FF01304204610BD84
:10327000A808002070B51C460025134606463F2CC2
:1032800001D9281F70BD0848224600F8011B1946C5
:10329000FCF79CFF621C0449304601F011FC08B1A8
:1032A0006FF01305284670BDA80800202DE9F047EF
:1032B000B0F854C1D0F85801DDE90A860CFB00F5DE
:1032C0008035DDE908972C0A4FF0000A04FB0CF466
:1032D000554652B1880200EB5200B0FBF2F000EB11
:1032E0004000404300F50040050C07F50040000C8D
:1032F0000622C01CB0FBF2F003FB09F303F5004308
:10330000190C4943C0EBC000B0F5803F01D31C4805
:1033100008E0FF1CB7FBF2F0C0EBC00000F5004076
:10332000000C4043084400EB5800B0FBF8F0800369
:10333000FE227F30B0FBF2F068434FF47A7100F563
:10334000FA70B0FBF1F0000100F5FA70B0FBF1F794
:10335000402004F12001B1FBF0F000F0D5FD05465E
:1033600027B104EB5700B0FBF7F000E0002000F0BD
:10337000CBFD3560854200D930605046BDE8F0870E
:103380000000F0FF01EBC10140F277600902A1FBF0
:10339000000170472DE9FF4F87B00446006A069090
:1033A000884608694FF47A714843000C0390D8F8B6
:1033B0000C000590DFF8F8B14FF4481604AA414616
:1033C000204600F064FD06AA4146204600F06DFD4F
:1033D00081464FF47A710498069D484300F50040F9
:1033E000070C4D43B54200D93546B9F1000074D100
:1033F000D4F8DC00019094F8E060014632462046A3
:1034000000F0DCF88246D4F8E4000090014694F81D
:10341000E820204600F0D2F801460320082E00D113
:10342000022051444143C9024FF47A7001F5FA7108
:10343000B1FBF0F140F27762514301F5FA71B1FB53
:10344000F0FA04988030010A01FB0AF08030060A85
:10345000080204900FB14EB109E00999C1F800B01B
:10346000C4F840B10A98002101609DE001264FF4A4
:103470004870029003984F490004B0FBF7F088426F
:1034800000D908464FF4167100FB01F906EB46001F
:10349000800000F039FD40000390B8F8081046485D
:1034A0006A424143380400EB42024FF47A7002F55D
:1034B000FA72B2FBF0F2431003EB0743B3FBF0F0F8
:1034C0001202B2FBF0F0002800DA404298F818200F
:1034D00000021AB14FF480350FE066E041F25C2241
:1034E000B1FBF2F1C0F58030484300F50040000C1C
:1034F00000F5803040084043850B4FF4487105FBD0
:1035000001F000F50040000C10FB00F109F500404F
:10351000000C4043084400F0F7FC00046421323002
:10352000B0FBF1F10398B1FBF0F040F6B531484340
:1035300041F2883108444900B0FBF1F74FF4704084
:10354000874200D90746DDE9001008444FF47A7835
:1035500000F5FA70B0FBF8F04FF4C81101EB500120
:10356000B1FBF0F000F0D0FC000200F5FA70B0FB07
:10357000F8F07F434043384400F0C6FC41464843DE
:103580000EB1584500D9584609990860C4F8400161
:103590000A98029B03908DE80806DDE904122B4689
:1035A0002046FFF783FE814648460BB0BDE8F08F0A
:1035B000AE878F02666666009A99060000B50B46D4
:1035C0001146FFF7DFFE4FF47A7100F5FA70B0FB99
:1035D000F1F04B4303EB5001B1FBF0F000BD00B53F
:1035E0000B461146FFF7CEFE4FF47A7100F5FA70E4
:1035F000B0FBF1F0434303F5FA73B3FBF1F000BD08
:103600000146C0B2090A8840401C70474000801C37
:10361000C0B27047F8B5064600228321FFF704FECA
:10362000040011D100254FF4FA676A468321304621
:10363000FFF7DCFA04469DF8000020430BD0BD42A2
:1036400002D300BF6FF00604012283213046FFF74A
:10365000EBFD2043F8BD6D1CBD42E6D3F2E700222E
:10366000114648B1401E02E04008491C89B2020AD6
:10367000FAD161F31F2082B210467047FF2101EB9F
:103680005000C0B270472DE9F04F95B000250446B8
:103690000E954FF4C8500F95CDE90450129594F84B
:1036A000F0600F46AB46AA46072E7ED0012280214D
:1036B0002046FFF7B9FD80460122FF212046FFF793
:1036C000B3FD40EA0805002211462046FFF7ACFD95
:1036D00040EA05080622FF212046FFF7A5FD40EA43
:1036E000080502AA83212046FFF780FA40EA050870
:1036F0009DF80800832140F004022046FFF794FD66
:1037000040EA08050722FF212046FFF78DFD40EA29
:103710000508012281212046FFF786FD40EA0805C1
:103720002046FFF75CFA40EA050801228021204686
:10373000FFF77AFD40EA0805F80755D0F00753D1A6
:103740006B2294212046FFF76FFD40EA05082046D2
:10375000FFF760FF40EA080501AA90212046FFF725
:1037600059FA40EA050801982422C0F30621C0F363
:10377000C03B129194212046FFF756FD40EA080510
:103780002046FFF747FF40EA050801AA902120469E
:10379000FFF740FA40EA08050198010E8DF82C1059
:1037A000010C8DF82D10010A00E0FCE18DF82E10BF
:1037B0008DF82F00252294212046FFF735FD40EAA1
:1037C00005082046FFF726FF40EA080901AA9021D4
:1037D0002046FFF71FFA40EA09050198010E8DF80F
:1037E0003010000C8DF83100B8077ED5B0077CD4BE
:1037F000022294212046FFF717FD40EA05082046E3
:10380000FFF708FF40EA080513AA90212046FFF7BA
:10381000EDF940EA05087B2294212046FFF704FDDC
:1038200040EA08052046FFF7F5FE40EA050810AA21
:1038300090212046FFF7DAF940EA08057722942123
:103840002046FFF7F1FC40EA05082046FFF7E2FEBC
:1038500040EA080501AA90212046FFF7DBF940EA7B
:10386000050801987822410E8DF81810C0F38641A2
:103870008DF81910C0F3C6218DF81A10C0F3061187
:103880000007400E8DF81B108DF80800942120468B
:10389000FFF7CAFC40EA08052046FFF7BBFE40EAF6
:1038A000050801AA90212046FFF7B4F940EA08056F
:1038B0009DF80810019801EB50718DF81C10C0F3B1
:1038C00086518DF81D10C0F3C6318DF81E10C0F35F
:1038D00006218DF81F10C0F34601C007400E8DF879
:1038E00020108DF80800792200E055E09421204650
:1038F000FFF79AFC40EA05082046FFF78BFE40EAF6
:10390000080501AA90212046FFF784F940EA05083E
:103910009DF8081001987A2201EB90618DF8211032
:10392000C0F3C6418DF82210C0F306318DF8231084
:10393000C0F34611C006400E8DF824108DF8080023
:1039400094212046FFF770FC40EA08052046FFF767
:1039500061FE40EA050801AA90212046FFF75AF9C6
:1039600040EA08059DF80810019801EB90718DF868
:103970002510C0F3C6518DF82610C0F306418DF80E
:103980002710C0F346218DF82810C0F386008DF86B
:10399000290000208DF82A0078077ED570077CD496
:1039A0007B2294212046FFF73FFC40EA0508204691
:1039B000FFF730FE40EA08050EAA90212046FFF7E7
:1039C00029F940EA05087C2294212046FFF72CFCC7
:1039D00040EA08092046FFF71DFE40EA09050FAA44
:1039E00090212046FFF716F940EA0508732294213A
:1039F0002046FFF719FC40EA08052046FFF70AFEBB
:103A000040EA050801AA90212046FFF703F940EAA1
:103A100008050198742200064FEA104994212046B7
:103A2000FFF702FC40EA05082046FFF7F3FD40EAF5
:103A3000080501AA90212046FFF7ECF8019940EA19
:103A4000050849EA11600490752294212046FFF789
:103A5000EBFB40EA08052046FFF7DCFD40EA0509DC
:103A600001AA90212046FFF7D5F840EA09080198FD
:103A7000762200064FEA104994212046FFF7D4FB36
:103A800040EA08052046FFF7C5FD40EA050801AAFF
:103A900090212046FFF7BEF800E004E0019940EADB
:103AA000080549EA116A002281212046FFF7BCFB84
:103AB00040EA05080622FF212046FFF7B5FB40EA51
:103AC000080502AA83212046FFF790F840EA05087E
:103AD0009DF80800832100F0FB022046FFF7A4FBBD
:103AE00040EA08050122FF212046FFF79DFB40EA3E
:103AF0000508012200212046FFF796FB40EA080551
:103B00000022FF212046FFF78FFB40EA0508002234
:103B100080212046FFF788FB50EA080543D1F807CB
:103B20000FD0F0070DD1129884F8130184F814B166
:103B300000200BA923180A5C401C83F82A210628C0
:103B4000F8DBB8070ED5B0070CD49DF84C0084F80C
:103B5000F1009DF8400084F8F20004F1F30006A99A
:103B6000FCF758FB780719D5700717D40E98C4F8DE
:103B700018010F98C4F81C0104984002C4F82001F1
:103B80000020BAF1000F08D00599AAEB01004FF40C
:103B90007A1148430014404200B2E0603E438DF881
:103BA000086084F8F06015B02846BDE8F08F30B5A5
:103BB00085B005464FF4FA6002900020039040F66D
:103BC000363008600C4669462846FEF76CFF002830
:103BD0004DD19DF8001029B99DF8011011B99DF83B
:103BE000021011B302AA0221284601F061FA00284E
:103BF0003DD19DF8001029B10299226801F24E21B1
:103C0000114421609DF8021031B10299226801F23D
:103C1000B22102EB410107E09DF8011029B10299A0
:103C2000226801F52571114421609DF8031061B1EE
:103C300003AA0321284601F03BFA0399226801F503
:103C4000257111442160002811D19DF8041061B143
:103C500004AA0421284601F02BFA0499226801F2F3
:103C6000262111442160002801D12168696105B035
:103C700030BD38B50C4640F2FF756A462821FEF784
:103C8000EDFF00280ED1BDF80010C1F30B02ADF816
:103C90000020AA424FF0FA0101DDA2F5805212FB8A
:103CA00001F1216038BD00002DE9FF4F8BB04FF0CE
:103CB0000009199D8DF800909A460646C8464F4661
:103CC0008DF804908DF808908DF80C90ADF8109058
:103CD000C1F3C304CDF81490BCB1052C15D0072C4A
:103CE00013D00C2C11D00D2C0FD00E2C0DD00F2C6E
:103CF0000BD0002083466A4600213046FEF7D5FDF2
:103D00009DF80010C9B110B11DE00120F2E705AB2C
:103D100006AA30461899FFF73DFBA0B918990598F7
:103D200007AA488100213046FEF7CBFD079921B153
:103D3000069A8A4201D94FF0010920B902AA02214C
:103D40003046FEF7B2FD9DF8081011B338BB08AA43
:103D500002213046FEF7B5FD80B90122FF21304631
:103D6000FFF762FA50B904AAB6213046FEF776FF93
:103D700020B90022FF213046FFF756FABDF8101097
:103D80004902C6F84811089A1AB1914201D94FF078
:103D9000010820B903AA03213046FEF786FD9DF8ED
:103DA0000C1091B190B9BAF1000F12D00D98010228
:103DB000B1FBFAF0824609AA03213046FEF781FDE5
:103DC000099911B18A4500D2012720B1287858B34A
:103DD0002DE00020EEE7BBF1000F01D0FF2013E043
:103DE000012C10D0022C0ED0032C0CD0062C0DD0A0
:103DF000092C0BD0082C04D00A2C02D0B8F1000FEB
:103E000006D0032000E00520287010E00420FBE726
:103E1000042C00D00FB10220F6E7B9F1000F01D059
:103E20000120F1E70020287018990020488101AA9C
:103E300001213046FEF739FD002825D19DF80010FC
:103E400011B15FEA090100D0012186F82E10042C7F
:103E500015D09DF8041091B15FF0000186F82F1085
:103E60009DF8081011B15FEA080100D0012186F821
:103E700030109DF80C1001B11FB1012102E00121A9
:103E8000ECE7002186F831100FB0BDE8F08F38B5AF
:103E90001446CA6822606A4600F007F8002803D179
:103EA0002168009A1144216038BDF8B5064600200B
:103EB0000D461060144669463046FEF745FE002860
:103EC00009D19DF80010002905D0A98A326A514312
:103ED0008031090A2160F8BD38B5144621B10129A5
:103EE00005D06FF003010DE06A46502101E06A46FB
:103EF0007021FEF77BFE010004D19DF80000FFF762
:103F000085FB2070084638BD024600204FF08041F6
:103F100000E089089142FCD808E04318934203D896
:103F2000D21A01EB500000E0400889080029F4D1C2
:103F300070470000F8B5074600200D460446061FEE
:103F400013E0CBB2641CFF2B05D0042B0CD8295DE9
:103F500000206A4639E0295D641C61B1012912D054
:103F6000022918D003291ED03046295D002901D02E
:103F70000028E6D0F8BD2A5D641C295D01EB022112
:103F8000A7F8341116E0295D641C2A5D02EB0121BB
:103F9000A7F836110EE02A5D641C295D01EB0221B1
:103FA000A7F8381106E0295D641C2A5D02EB0121A7
:103FB000A7F83C11641C295D0029C2D1F8BD00BFDF
:103FC00015F804C002F800C0401C641C9842F7DBDE
:103FD0003846FFF74FF9C8E7F8B5064600208DF8D8
:103FE000000004464FF4FA6569463046FEF7A5FC2A
:103FF000002807D19DF80010012903D0641CAC42B1
:1040000001D3C01FF8BD3046FEF7E9FDECE72DE90E
:10401000F04385B01D0091460E4607464FF0000460
:1040200001D097F8304102220121FFF7FDF84FF04F
:10403000000838B90021384600F052F910B9B9F13A
:10404000010F11D086F8008000280AD1002D08D079
:10405000224601213846FFF7E7F8002801D187F80A
:10406000304105B0BDE8F083012004A9CDE9001678
:10407000CDE90280424601461346384600F086F9F3
:10408000E2E72DE9F0411E461746054690F830411B
:104090000023324600F040F9002810D100233246B8
:1040A00039462846FFF7B3FF002808D122460121F0
:1040B0002846FFF7B9F8002801D185F83041BDE85E
:1040C000F0812DE9F74F96B006462C200B9000208A
:1040D0000E9011908DF84C008DF850001290B6F8AB
:1040E0003CA14FF0B4094FF0030B01464FF0060816
:1040F000074672180020491C82F824014145F8D374
:104100000122FF213046FFF78FF8040079D1002209
:104110004F213046FFF788F80400F7D12C224E21BA
:104120003046FFF781F80400F0D10022FF2130462D
:10413000FFF77AF80400E9D14A46B6213046FFF786
:1041400073F80400E2D1002280213046FFF76CF8BA
:104150000400DBD1002314AA13A93046FFF791FF16
:104160000400D3D106F592730EAACDF80080069311
:104170000E90CDE903B29A1D0A92CDE90190014655
:10418000304600F003FF04003BD109A930460E9DE4
:1041900001F066F8040034D1BDF82410514531D93E
:1041A00000213218401C82F824114045F9D300E068
:1041B0006D1C09EB050000F0F5FF10B90B98854266
:1041C000F6D301200EA9CDF800801590CDE903B1FA
:1041D000CDE9019501463046069B0A9A00F0D6FECD
:1041E000040079D109A930460E9D01F039F8040088
:1041F00072D1BDF82410514505D901205F461290B7
:1042000001E051E0159089B2514555D215981290B0
:104210005F4642460FA80699FBF7D8FFBDF8241069
:10422000B1EB0A0000D54042834611AB2A46414615
:104230000A9800F00AFF1198411C0FD0484400F082
:10424000B1FF159988422ED1119D41462A467F1C07
:10425000069800F0E5FE040003D03DE06FF0310465
:104260003AE030466D1C069901F048F8040033D15D
:1042700009A9304600F0F4FF04002DD1BDF8241048
:10428000B1EB0A0000D5404251450ED958450AD934
:104290000FA9304601F032F8044642460FA90698AD
:1042A000FBF794FF7F1E3CB116E0834642460FA801
:1042B0000699FBF78BFFB8E71798076018991298D3
:1042C0000870012086F815011798007886F8130108
:1042D0001898007886F8140119B02046BDE8F08FD0
:1042E00010B541F0010204460021FEF79DFF0028B1
:1042F00011D12046FFF770FE00280CD10021204686
:10430000FEF754F9002806D120460022BDE81040EF
:104310001146FEF789BF10BD2DE9F04385B04FF07F
:1043200000051E0091460F4680462C468DF8105021
:1043300001D098F8305101221146FEF775FF38B9C7
:1043400040214046FFF7CCFF10B9B9F1010F10D062
:104350003C7000280AD1002E08D02A460121404690
:10436000FEF762FF002801D188F8305105B0BDE8A2
:10437000F083012004A900970394CDE9011022469F
:1043800001461346404600F001F8E2E72DE9FF4FF1
:1043900081B00020DDE90EA9DDE910650F468DF83A
:1043A00000009B460122FF210198FEF73DFF0446D5
:1043B000002211460198FEF737FF40EA0408002268
:1043C000FF210198FEF730FF40EA08046FB12EB1DB
:1043D0005246CB210198FEF709FC0443A5B16A4679
:1043E000EE210198FEF702FC0DE02EB1CB21039ADD
:1043F0000198FEF719FF044335B15B468022EE2198
:104400000198FEF7FBFE04430122FF210198FEF70D
:104410000BFF0443012200210198FEF705FF04432E
:104420000022FF210198FEF7FFFE9DF800102043B7
:1044300001F0EF0289F8002005B0BDE8F08F2DE90A
:10444000FF4107464FF4FA6002900020039044F6C3
:1044500020600E466FF0030581424FD3A6F6363436
:1044600069463846FEF71FFB002844D19DF800102E
:1044700029B99DF8011011B99DF8021001B302AAE3
:104480000221384600F014FE002834D19DF80010B7
:1044900029B1029901F24E21A1422FD2641A9DF84E
:1044A000021021B1029901F2B221490005E09DF804
:1044B000011029B1029901F52571A1421ED2641A99
:1044C0009DF8031061B103AA0321384600F0F0FD06
:1044D000039901F52571A14210D2641A00280AD16E
:1044E0009DF80410002906D0A4F2262204213846A3
:1044F00000F009FF7E6104B0BDE8F0812846FAE7CC
:104500002DE9F0479046894686B004460025B4263A
:1045100006274FF02C0A0122FF21FEF785FEB0B9D5
:1045200000224F212046FEF77FFE80B92C224E212B
:104530002046FEF779FE50B90022FF212046FEF703
:1045400073FE20B93246B6212046FEF76DFE0020EC
:1045500001462218401C82F82411B842F9D3B8F160
:10456000000F01D106E06D1C701900F01BFE08B9A8
:104570005545F8D305A90097CDE90391CDE901652B
:1045800004F592739A1D4146204600F0FFFC002876
:1045900006D1012184F8151184F8139184F814814F
:1045A00006B0BDE8F0872DE9FF41074600208DF8F1
:1045B0000C0014460E46D0076FF0030571D116B1FA
:1045C000012E0DD0B2E00C2C6BD3122C69D80C2C20
:1045D00013D00E2C13D0102C13D0122C13D0A5E016
:1045E000082CF1D30E2CF1D8082C17D00A2C44D06B
:1045F0000C2C57D00E2C69D098E0182204E0302201
:1046000002E0402200E0502257213846FEF70CFE1F
:10461000082256213846FEF707FE85E01022482181
:104620003846FEF701FE082247213846FEF7FCFD1A
:104630008046022232213846FEF7F6FD40EA08089D
:104640000C2230213846FEF7EFFD40EA080801222F
:10465000FF213846FEF7E8FD40EA080830221146FF
:104660003846FEF7E1FD40EA08080022FF213846FF
:10467000FEF7DAFD40EA080056E0282248213846D5
:10468000FEF7D2FD082247213846FEF7CDFD8046D1
:10469000032232213846FEF7C7FD40EA0808092206
:1046A00027E04AE0382248213846FEF7BDFD0822BF
:1046B00047213846FEF7B8FD8046032232213846AE
:1046C000FEF7B2FD40EA0808082212E0482211462F
:1046D0003846FEF7A9FD082247213846FEF7A4FD1B
:1046E0008046032232213846FEF79EFD40EA080844
:1046F000072230213846FEF797FD40EA08080122DC
:10470000FF213846FEF790FD40EA080820223021BC
:104710003846FEF789FD40EA08080022FF213846A6
:10472000FEF782FD40EA0800002807D12046FEF788
:10473000A5FF80462EB1012E23D0284604B0BDE847
:10474000F08101AA0321384600F0B2FCB0B902AAF8
:104750000221384600F0ACFC80B942465021384670
:10476000FEF762FD50B903213846019A00F0CBFDF7
:1047700020B902213846029A00F0C5FD87F8E840CA
:1047800012E06A460421384600F092FC50B94246D5
:1047900070213846FEF748FD20B904213846009ABA
:1047A00000F0B1FD87F8E0400028C7D138467969AC
:1047B000FEF7A5FB0028C1D10123002203A938463A
:1047C000FFF725FCBAE7000010B586B000F086F9C7
:1047D00019480024016841F002010160006800F0FE
:1047E0000200059014481030016841F40011016086
:1047F0000068694600F4001005904FF44070009086
:104800001220CDE901040420CDE903400B48FBF759
:10481000C3FF0C480A4901600B49C0E901144FF479
:104820008041C0E9034144618461C4610462FCF7D2
:1048300087F806B010BD0000303802400004024086
:1048400000540040E8080020801A060038B500F047
:10485000AFF8FFF7B9FF02236A460021862000F077
:10486000D1F8002838D19DF80010002934D19DF8E6
:104870000110162930D102236A460021842000F05D
:10488000C1F8002828D19DF80010002924D19DF8F6
:104890000110162920D1114DFF24022328608DF824
:1048A00000408DF801406A461421862000F0C8F8C7
:1048B000002811D18DF80040BF208DF8010002239F
:1048C0006A461421842000F0BBF8002804D16FF060
:1048D000C020286000F0CEF838BD00009C07002002
:1048E000194A632853780DD005DCC0B1012809D0DE
:1048F000022804D11AE06C2811D0722816D04FF08B
:10490000FF307047D07820F08000D07011B140F0B7
:104910008000D070012313218420D21C11E023F0E9
:104920004000507049B140F0400005E023F08000A5
:10493000507011B140F08000507001231321862087
:10494000521C00F07DB800009C0700202DE9F041CA
:10495000154F00217F223B1FDFF850E011E000BF20
:104960001EF8044017F821C022EA040502FA0CF4EC
:104970001E6805FA0CF5A6432E43491C1E60042947
:104980000EDA445C002CEBD108E000BF17F82100E0
:104990001C6802FA00F00443491C1C600429F5DB82
:1049A000BDE8F04100F066B8A007002020540008E0
:1049B00038B511480024016841F400110160006815
:1049C000224600F40010009021461120FCF71AFA4C
:1049D0001120FCF70CFA0A48084901604FF4E13154
:1049E000C0E901140C21C460C0E904418461C461C0
:1049F000BDE83840FCF70EBE3038024000440040AD
:104A0000080800207CB5054664201C4616468DF833
:104A100004100090A9B2012301AA0848FCF708F984
:104A2000002809D1642104FB01F00090A3B2A9B2CF
:104A300032460248FCF708F87CBD0000E808002078
:104A400030B585B01C46134605468DF80410224645
:104A500019460DF10500FBF7B9FB6420641C0090BA
:104A6000A3B2A9B201AA0248FCF7E2F805B030BD32
:104A7000E808002010B50223084A12218620FFF71B
:104A8000DFFF002808D1054A0223921C1221BDE84D
:104A900010408420FFF7D4BF10BD00009C07002009
:104AA00038B502F10A03009393B290F86021D0F870
:104AB0005C0142F001040A462146FBF7C5FF38BD00
:104AC00038B502F10A03009393B290F860410A46A8
:104AD000D0F85C012146FCF7ABF838BD2DE9F04F6A
:104AE000DFF80881002687B0D8F80010B24641F000
:104AF0000201C8F80010D8F80000012200F00200FE
:104B00003B4C1702069039462046FBF70EFF012268
:104B1000550229462046FBF708FF4FF440700190EC
:104B200011204FF00109CDE9020901A92046FBF748
:104B300033FEAB460025002239462046FBF7F5FE42
:104B40000120FBF7FFFD012239462046FBF7EDFE71
:104B50000120FBF7F7FD6D1C0A2DECDB59462046C2
:104B6000FBF7DEFE18B93046761C0728E2DB594613
:104B70002046FBF7D5FE002835D1D8F8002042F0BA
:104B80000102C8F80020D8F8000001A900F00100D7
:104B90000090202081E80106164C2046FBF7FCFD22
:104BA0004FF42575012220212046FBF7BEFE21206F
:104BB000FBF7C8FD002220212046FBF7B6FE21208E
:104BC000FBF7C0FD012220212046FBF7AEFE21208D
:104BD000FBF7B8FD002220212046FBF7A6FE284661
:104BE000FBF7B0FDDEE707B0BDE8F08F30380240DC
:104BF00000040240000002400FB4084B10B504A9A5
:104C000002AA039800F01CF8044602A9002000F054
:104C1000B8F9204610BC5DF814FB0000834F000873
:104C200002E008C8121F08C1002AFAD17047704775
:104C3000002001E001C1121F002AFBD170470000D3
:104C40002DE9FF4F8BB088460546002606E0252853
:104C50000BD0DDE90D1290476D1C761C28780028DA
:104C6000F5D10FB03046BDE8F08F0024A146A24632
:104C70000122AE4900E0044315F8013F203B02FA4F
:104C800003F00842F7D128782A2810D06FF02F02BD
:104C90002878A0F13001092915D809EB890102EB28
:104CA000410144F0020400EB01096D1CF0E758F8E3
:104CB000041B5FEA010903D544F40054C9F100095B
:104CC00044F002046D1C28782E2817D115F8010F26
:104CD00044F004042A280ED06FF02F022878A0F1A7
:104CE000300109290AD80AEB8A0102EB410100EBE5
:104CF000010A6D1CF2E758F804AB6D1C28786C288B
:104D00000FD006DC4C2817D068280DD06A2814D1A3
:104D100004E0742810D07A280FD10DE044F4001478
:104D20000AE044F4801401E044F4401469788142BC
:104D300002D104F580146D1C6D1C2878692865D09B
:104D400006DC00288DD0632827D0642806D15DE0DA
:104D50006E2808D073282AD0752877D0DDE90D1287
:104D60009047761CE0E0C4F30250022809D00328E3
:104D70000DD0D8F8001004280DD00E6008F10408FA
:104D8000D2E0D8F80010F217C1E90062F6E7D8F8CF
:104D900000100E80F2E70E70F0E718F8041B8DF893
:104DA000001000208DF80100EB46012003E058F8C8
:104DB00004BB4FF0FF3061074FF0000701D40AE059
:104DC0007F1C57450DDA8742FADB1BF807100029D4
:104DD000F6D106E07F1C8742FCDB1BF80710002998
:104DE000F8D1DDE90D23A9EB07008146214600F04B
:104DF000B1F83044C61904E0DDE90D121BF8010BCF
:104E000090477F1EF8D22146484688E058F8040BA8
:104E1000C4F302514FF00A0B032900D100B2042958
:104E200000D140B2002802DA40422D2102E02105E3
:104E300005D52B218DF82410012104E006E0E107BF
:104E400010D02021F6E708AF089113E058F8040BC2
:104E5000C4F302514FF00A0B032900D180B2042998
:104E600000D1C0B20021EEE75946FBF7DCF9303142
:104E700007F8011D0028F7D1ADEB070000F1200B6A
:104E8000600702D524F4803401E04FF0010ADA45CE
:104E900002DDAAEB0B0000E00020824600EB0B01D4
:104EA00008980144A9EB01000A90E00306D4DDE96B
:104EB0000D2321460A9800F04DF806444FF00009F2
:104EC00008E009A911F80900DDE90D12904709F180
:104ED0000109761C08998945F3DBE0030CD5DDE96F
:104EE0000D2321460A9800F035F8064404E0DDE978
:104EF0000D1230209047761CBAF10001AAF1010A88
:104F0000F5DC05E0DDE90D1217F8010B9047761C82
:104F1000BBF10001ABF1010BF4DC0A982146DDE99D
:104F20000D2300F005F806446D1C97E609280100E2
:104F30002DE9F041044600251E461746880404D496
:104F400005E039462020B0476D1C641EF9D528467F
:104F5000BDE8F0812DE9F041044600251E4690464B
:104F6000C80301D5302700E02027880404D505E0D8
:104F700041463846B0476D1C641EF9D52846BDE849
:104F8000F0810A68531C0B60107070472DE9FF4FC9
:104F900083B00024DDE9125A149F9B46DDF840904F
:104FA00026466FF0310800951AE06B462A464946BE
:104FB000059800F04AF80098411C06D01199084461
:104FC00000F0F0F80499884202D044463D6023E0A6
:104FD000009D49462A46584600F022F86D1C761C72
:104FE0005645E2D33D60BCB95946039800F086F9B6
:104FF000040011D101A9039800F055F804460020DF
:1050000001A907E01BF800200B5C9A4201D044463E
:1050100002E0401C4845F5D307B02046BDE8F08FBC
:1050200070B50825B2FBF5F3B2FBF5F60446002097
:1050300005FB16228B4202D36FF0310070BDE15C9C
:10504000012595402943E15470BD2DE9F043082521
:1050500081464FF0FF301860B2FBF5F0B2FBF5F679
:1050600005FB10274FF0000C304615E0002219F820
:105070000040B04202D1FC403A460AE05FEAC47800
:1050800005D000FB05224FF0010C1A6003E0640814
:10509000521CAA42F2D3401C884202D2BCF1000F3B
:1050A000E4D0BDE8F08306230A46B021FDF7F4BD45
:1050B0002DE9F04100248AB0174680468DF81C4047
:1050C0002546ADF81840264641B1012906D00229EF
:1050D00004D0032912D0042929D05DE06A460021BA
:1050E0004046FDF719FD040005D107AA46214046B8
:1050F000FDF77CFD04469DF81C0015E06A46002182
:105100004046FDF709FD040046D16A4600214046AD
:10511000FDF702FD040005D106AA51214046FDF726
:105120009DFD0446BDF81800FEF76AFA2DE004A9BB
:105130004046FDF7B8FC9DF81300002590B16A4683
:1051400000214046FDF7E8FC04001DD106AA5121CC
:105150004046FDF783FD0446BDF81800FEF750FAFF
:1051600085B28CB96A4601214046FDF7D5FC0400A2
:105170000AD108AA71214046FDF770FD0446BDF82A
:105180002000FEF73DFA86B2701B81B29DF8002028
:105190004046FEF724FA05463D600AB02046BDE8C9
:1051A000F08100000146044A8909012052F82110CB
:1051B000002900D1002070478C07002000242546DC
:1051C0000226FBF7DBFDFCF76BFEFCF76DFCFCF742
:1051D000ADFCFFF73BFB1FA0FFF7B8FB4FF42570BA
:1051E000FBF7B0FA0120FCF79FFDDFF870804FF469
:1051F000FA7708F1080900BF58F82500FFF7A6FB69
:105200003846FBF79FFA59F82400FFF79FFB384612
:10521000FBF798FA0020FCF787FDFCF791FF214689
:105220003046FCF7D9FC58B10C48143840680128C6
:10523000E2DD15B100250226DEE701250726DBE7C2
:105240001CB1012C03D00024D6E70124D4E70224AA
:10525000D2E7000035334C3000000000140000207D
:1052600070B50E4688B0054690F83041C022012145
:10527000FDF7DAFF002823D169462846FDF795FCA3
:1052800000281DD10122FF212846FDF7CDFF00286F
:1052900016D13246B6212846FDF7E0FC00280FD192
:1052A0000022FF212846FDF7BFFF002808D1224633
:1052B00001212846FDF7B8FF002801D185F83041CB
:1052C00008B070BD10B500201870052913D2DFE8B2
:1052D00001F00306090C0F00C2F3001109E0C2F34C
:1052E000C00106E0C2F3800103E0C2F3801100E0D8
:1052F000D109197010BD6FF0030010BD06230A46D6
:10530000B021FDF7B7BFF0B587B01646054661B1CD
:1053100001290AD0022908D0032922D004293ED02D
:105320006FF0030407B02046F0BD05AA0021FDF789
:10533000F3FB0400F6D19DF8142031462846FEF711
:105340003DF980B2B0F5807F01D9FF2201E0401E17
:10535000C2B2A5F8D82046212846FDF765FF0446CD
:10536000E0E705AA0021FDF7D7FB04469DF81420CD
:1053700031462846FEF722F980B2FEF770F9ADF803
:1053800008000246A5F8D800002CCBD151212846B0
:10539000FDF75CFF0400C5D1C5F8E460C2E703A9CE
:1053A000FDF781FB9DF80F00002798B105AA0021A9
:1053B0002846FDF7B1FB0400B4D102AA51212846CA
:1053C000FDF74CFC0446BDF80800FEF719F987B25A
:1053D000002CA7D105AA01212846FDF79DFB04005A
:1053E000A0D19DF8142031462846FEF7E7F838444E
:1053F000FEF735F9024671212846FDF727FF040024
:1054000090D1C5F8DC608DE70000000001020304C4
:10541000010203040607080900061016000610160C
:10542000000000000000000000000000000000007C
:10543000000000000000000000000000000000006C
:10544000000000000000000000007F0000040000D9
:105450007B603D7C665E5F687F7E00000014002DEF
:10546000186F571B001F0F7E676071671349457BDC
:105470002F2F055E1773513267763D1B0078081099
:1054800000555715753F0F7E470171471149455526
:105490002F6E055E1773513267763D0000001C00C9
:1054A00000000000000000000000000000000000FC
:1054B00000000000000000000000000000000000EC
:1054C00000000000000000000000000000000000DC
:1054D00000000000000000000000000000000000CC
:1054E00000000000000000000000000000000000BC
:1054F00000000000000000000000000000000000AC
:10550000000000000000000000000000000000009B
:10551000000000000000000000000000000000008B
:10552000484100004C52000048530000726E670072
:10553000626172005455000800000020B0070000AE
:10554000780200082C580008B007002090050000E1
:10555000304C000872993264632C01132C551B08DF
:1055600030041A24041A28041A200401FF015D13D0
:10557000E80804FF20526C018B13E80824205263D2
:1055800002FF01018813E80824205272022C025302
:1055900024F42D01FF010106111301091301101359
:1055A000011138090124010125FF01751B154E2C3D
:1055B00001482C013020211530090154100F013110
:1055C00004013203014083014625016013012716BF
:1055D0000150060151100C01529601560801573036
:1055E00001611301621301641301652C0166A0457A
:1055F000380B22320147140149FF014A69157A0A22
:10560000017B2C0178211B1523340142281601440B
:10561000FF014526014605014040010E0601201A02
:105620000143402A2E340301354427197528094BBC
:1056300009014C05014D04181244100C01452001CC
:1056400047080148280167100C017004017101012D
:1056500072FE01763B0177B72B0D01272E800101E9
:1056600001F80F1A8EE4491249F3391B59F9100950
:1056700001014F0201FF0E01102503010184010207
:105680000A0103030104080105C801060301078D8F
:105690000108080109C6010A01010B02010C1012E0
:1056A000010DD5010E18010F120110010111820127
:1056B0001218270113D5011418011513011603013F
:1056C000178601180A011909011A08011BC2011CD9
:1056D00003011D8F011E0A011FD5170101210201BF
:1056E0002210120123D501241801252201260101CF
:1056F0002782012810180129D5012A18012B0B0136
:105700002C28012D78012E28012F9101301601310E
:105710000B01321601330B0134160135A101361687
:105720000137A001381024013904013A28013B3027
:10573000013C0C013D04013E0F013F79014028016D
:10574000411E01422F01438701441601450B0146CA
:105750001601470B0148160149A7014A16014BA63D
:10576000014C1E014D04014EF311130150100F01A5
:1057700051800152090153080154010155100F01D4
:10578000560F015779015809015905015A101201A4
:105790005B60015C05015DD1015E0C015F3C016055
:1057A000102D0161D001620B0163030164280165C2
:1057B0001001662A01673901680B016902016A2834
:1057C000016B10016C2A016D61016E0C016F1009F3
:1057D00001700F01717901721601730B01741601CA
:1057E000750B0176160177A10178160179A0017A6F
:1057F0001029017B0401FF0401791D017B2701961B
:105800000E0197FE0198030199EF019A02019B4452
:1058100001730701700101FF0101190671320A725B
:0C58200005690841320732103217000001
:040000050800019559
:00000001FF
